{
  "_format": "hh-sol-artifact-1",
  "contractName": "LegendsNFT",
  "sourceName": "contracts/legend/LegendsNFT.sol",
  "abi": [
    {
      "inputs": [],
      "stateMutability": "nonpayable",
      "type": "constructor"
    },
    {
      "anonymous": false,
      "inputs": [
        {
          "indexed": true,
          "internalType": "address",
          "name": "owner",
          "type": "address"
        },
        {
          "indexed": true,
          "internalType": "address",
          "name": "approved",
          "type": "address"
        },
        {
          "indexed": true,
          "internalType": "uint256",
          "name": "tokenId",
          "type": "uint256"
        }
      ],
      "name": "Approval",
      "type": "event"
    },
    {
      "anonymous": false,
      "inputs": [
        {
          "indexed": true,
          "internalType": "address",
          "name": "owner",
          "type": "address"
        },
        {
          "indexed": true,
          "internalType": "address",
          "name": "operator",
          "type": "address"
        },
        {
          "indexed": false,
          "internalType": "bool",
          "name": "approved",
          "type": "bool"
        }
      ],
      "name": "ApprovalForAll",
      "type": "event"
    },
    {
      "anonymous": false,
      "inputs": [
        {
          "indexed": true,
          "internalType": "uint256",
          "name": "legendId",
          "type": "uint256"
        },
        {
          "indexed": true,
          "internalType": "address",
          "name": "creator",
          "type": "address"
        }
      ],
      "name": "LegendCreated",
      "type": "event"
    },
    {
      "anonymous": false,
      "inputs": [
        {
          "indexed": false,
          "internalType": "uint256",
          "name": "legendId",
          "type": "uint256"
        }
      ],
      "name": "LegendDestroyed",
      "type": "event"
    },
    {
      "anonymous": false,
      "inputs": [
        {
          "indexed": true,
          "internalType": "uint256",
          "name": "legendId",
          "type": "uint256"
        },
        {
          "indexed": false,
          "internalType": "uint256",
          "name": "birthday",
          "type": "uint256"
        }
      ],
      "name": "LegendHatched",
      "type": "event"
    },
    {
      "anonymous": false,
      "inputs": [
        {
          "indexed": true,
          "internalType": "uint256",
          "name": "legendId",
          "type": "uint256"
        },
        {
          "indexed": false,
          "internalType": "string",
          "name": "prefix",
          "type": "string"
        },
        {
          "indexed": false,
          "internalType": "string",
          "name": "postfix",
          "type": "string"
        }
      ],
      "name": "LegendNamed",
      "type": "event"
    },
    {
      "anonymous": false,
      "inputs": [
        {
          "indexed": true,
          "internalType": "uint256",
          "name": "parent1",
          "type": "uint256"
        },
        {
          "indexed": true,
          "internalType": "uint256",
          "name": "parent2",
          "type": "uint256"
        },
        {
          "indexed": false,
          "internalType": "uint256",
          "name": "childId",
          "type": "uint256"
        }
      ],
      "name": "LegendsBlended",
      "type": "event"
    },
    {
      "anonymous": false,
      "inputs": [
        {
          "indexed": true,
          "internalType": "address",
          "name": "from",
          "type": "address"
        },
        {
          "indexed": true,
          "internalType": "address",
          "name": "to",
          "type": "address"
        },
        {
          "indexed": true,
          "internalType": "uint256",
          "name": "tokenId",
          "type": "uint256"
        }
      ],
      "name": "Transfer",
      "type": "event"
    },
    {
      "inputs": [
        {
          "internalType": "address",
          "name": "to",
          "type": "address"
        },
        {
          "internalType": "uint256",
          "name": "tokenId",
          "type": "uint256"
        }
      ],
      "name": "approve",
      "outputs": [],
      "stateMutability": "nonpayable",
      "type": "function"
    },
    {
      "inputs": [
        {
          "internalType": "address",
          "name": "owner",
          "type": "address"
        }
      ],
      "name": "balanceOf",
      "outputs": [
        {
          "internalType": "uint256",
          "name": "",
          "type": "uint256"
        }
      ],
      "stateMutability": "view",
      "type": "function"
    },
    {
      "inputs": [
        {
          "internalType": "address",
          "name": "recipient",
          "type": "address"
        },
        {
          "internalType": "uint256",
          "name": "parent1",
          "type": "uint256"
        },
        {
          "internalType": "uint256",
          "name": "parent2",
          "type": "uint256"
        }
      ],
      "name": "blendLegends",
      "outputs": [
        {
          "internalType": "uint256",
          "name": "",
          "type": "uint256"
        }
      ],
      "stateMutability": "nonpayable",
      "type": "function"
    },
    {
      "inputs": [
        {
          "internalType": "address",
          "name": "recipient",
          "type": "address"
        },
        {
          "internalType": "uint256",
          "name": "promoId",
          "type": "uint256"
        },
        {
          "internalType": "bool",
          "name": "isLegendary",
          "type": "bool"
        }
      ],
      "name": "createLegend",
      "outputs": [],
      "stateMutability": "nonpayable",
      "type": "function"
    },
    {
      "inputs": [
        {
          "internalType": "uint256",
          "name": "legendId",
          "type": "uint256"
        }
      ],
      "name": "destroyLegend",
      "outputs": [],
      "stateMutability": "nonpayable",
      "type": "function"
    },
    {
      "inputs": [
        {
          "internalType": "uint256",
          "name": "legendId",
          "type": "uint256"
        }
      ],
      "name": "fetchBlendingCost",
      "outputs": [
        {
          "internalType": "uint256",
          "name": "",
          "type": "uint256"
        }
      ],
      "stateMutability": "view",
      "type": "function"
    },
    {
      "inputs": [],
      "name": "fetchBlendingRules",
      "outputs": [
        {
          "internalType": "enum LegendsNFT.KinBlendingLevel",
          "name": "",
          "type": "uint8"
        },
        {
          "internalType": "uint256",
          "name": "",
          "type": "uint256"
        },
        {
          "internalType": "uint256",
          "name": "",
          "type": "uint256"
        },
        {
          "internalType": "uint256",
          "name": "",
          "type": "uint256"
        }
      ],
      "stateMutability": "view",
      "type": "function"
    },
    {
      "inputs": [],
      "name": "fetchIncubationViews",
      "outputs": [
        {
          "internalType": "string[5]",
          "name": "",
          "type": "string[5]"
        }
      ],
      "stateMutability": "view",
      "type": "function"
    },
    {
      "inputs": [
        {
          "internalType": "uint256",
          "name": "legendId",
          "type": "uint256"
        }
      ],
      "name": "fetchLegendMetadata",
      "outputs": [
        {
          "components": [
            {
              "internalType": "uint256",
              "name": "id",
              "type": "uint256"
            },
            {
              "internalType": "string",
              "name": "season",
              "type": "string"
            },
            {
              "internalType": "string",
              "name": "prefix",
              "type": "string"
            },
            {
              "internalType": "string",
              "name": "postfix",
              "type": "string"
            },
            {
              "internalType": "uint256[2]",
              "name": "parents",
              "type": "uint256[2]"
            },
            {
              "internalType": "uint256",
              "name": "birthday",
              "type": "uint256"
            },
            {
              "internalType": "uint256",
              "name": "blendingInstancesUsed",
              "type": "uint256"
            },
            {
              "internalType": "uint256",
              "name": "totalOffspring",
              "type": "uint256"
            },
            {
              "internalType": "address payable",
              "name": "legendCreator",
              "type": "address"
            },
            {
              "internalType": "bool",
              "name": "isLegendary",
              "type": "bool"
            },
            {
              "internalType": "bool",
              "name": "isHatched",
              "type": "bool"
            },
            {
              "internalType": "bool",
              "name": "isDestroyed",
              "type": "bool"
            }
          ],
          "internalType": "struct ILegendMetadata.LegendMetadata",
          "name": "",
          "type": "tuple"
        }
      ],
      "stateMutability": "view",
      "type": "function"
    },
    {
      "inputs": [
        {
          "internalType": "uint256",
          "name": "legendId",
          "type": "uint256"
        }
      ],
      "name": "fetchLegendURI",
      "outputs": [
        {
          "internalType": "string",
          "name": "",
          "type": "string"
        }
      ],
      "stateMutability": "view",
      "type": "function"
    },
    {
      "inputs": [
        {
          "internalType": "uint256",
          "name": "tokenId",
          "type": "uint256"
        }
      ],
      "name": "getApproved",
      "outputs": [
        {
          "internalType": "address",
          "name": "",
          "type": "address"
        }
      ],
      "stateMutability": "view",
      "type": "function"
    },
    {
      "inputs": [
        {
          "internalType": "uint256",
          "name": "legendId",
          "type": "uint256"
        },
        {
          "internalType": "string",
          "name": "ipfsHash",
          "type": "string"
        }
      ],
      "name": "hatchLegend",
      "outputs": [],
      "stateMutability": "nonpayable",
      "type": "function"
    },
    {
      "inputs": [
        {
          "internalType": "address",
          "name": "owner",
          "type": "address"
        },
        {
          "internalType": "address",
          "name": "operator",
          "type": "address"
        }
      ],
      "name": "isApprovedForAll",
      "outputs": [
        {
          "internalType": "bool",
          "name": "",
          "type": "bool"
        }
      ],
      "stateMutability": "view",
      "type": "function"
    },
    {
      "inputs": [
        {
          "internalType": "uint256",
          "name": "legendId",
          "type": "uint256"
        }
      ],
      "name": "isBlendable",
      "outputs": [
        {
          "internalType": "bool",
          "name": "",
          "type": "bool"
        }
      ],
      "stateMutability": "view",
      "type": "function"
    },
    {
      "inputs": [
        {
          "internalType": "uint256",
          "name": "legendId",
          "type": "uint256"
        }
      ],
      "name": "isHatchable",
      "outputs": [
        {
          "internalType": "bool",
          "name": "",
          "type": "bool"
        }
      ],
      "stateMutability": "view",
      "type": "function"
    },
    {
      "inputs": [
        {
          "internalType": "uint256",
          "name": "legendId",
          "type": "uint256"
        }
      ],
      "name": "isHatched",
      "outputs": [
        {
          "internalType": "bool",
          "name": "",
          "type": "bool"
        }
      ],
      "stateMutability": "view",
      "type": "function"
    },
    {
      "inputs": [
        {
          "internalType": "uint256",
          "name": "legendId",
          "type": "uint256"
        }
      ],
      "name": "isListable",
      "outputs": [
        {
          "internalType": "address[2]",
          "name": "",
          "type": "address[2]"
        }
      ],
      "stateMutability": "view",
      "type": "function"
    },
    {
      "inputs": [
        {
          "internalType": "uint256",
          "name": "legendId",
          "type": "uint256"
        }
      ],
      "name": "isNoIncubation",
      "outputs": [
        {
          "internalType": "bool",
          "name": "",
          "type": "bool"
        }
      ],
      "stateMutability": "view",
      "type": "function"
    },
    {
      "inputs": [
        {
          "internalType": "uint256",
          "name": "parentLegendId",
          "type": "uint256"
        },
        {
          "internalType": "uint256",
          "name": "childLegendId",
          "type": "uint256"
        }
      ],
      "name": "isParentOf",
      "outputs": [
        {
          "internalType": "bool",
          "name": "",
          "type": "bool"
        }
      ],
      "stateMutability": "view",
      "type": "function"
    },
    {
      "inputs": [],
      "name": "name",
      "outputs": [
        {
          "internalType": "string",
          "name": "",
          "type": "string"
        }
      ],
      "stateMutability": "view",
      "type": "function"
    },
    {
      "inputs": [
        {
          "internalType": "uint256",
          "name": "legendId",
          "type": "uint256"
        },
        {
          "internalType": "string",
          "name": "prefix",
          "type": "string"
        },
        {
          "internalType": "string",
          "name": "postfix",
          "type": "string"
        }
      ],
      "name": "nameLegend",
      "outputs": [],
      "stateMutability": "nonpayable",
      "type": "function"
    },
    {
      "inputs": [
        {
          "internalType": "uint256",
          "name": "tokenId",
          "type": "uint256"
        }
      ],
      "name": "ownerOf",
      "outputs": [
        {
          "internalType": "address",
          "name": "",
          "type": "address"
        }
      ],
      "stateMutability": "view",
      "type": "function"
    },
    {
      "inputs": [
        {
          "internalType": "uint256",
          "name": "legendId",
          "type": "uint256"
        }
      ],
      "name": "resetLegendName",
      "outputs": [],
      "stateMutability": "nonpayable",
      "type": "function"
    },
    {
      "inputs": [
        {
          "internalType": "uint256",
          "name": "legendId",
          "type": "uint256"
        },
        {
          "internalType": "uint256",
          "name": "regainedSlots",
          "type": "uint256"
        }
      ],
      "name": "restoreBlendingSlots",
      "outputs": [],
      "stateMutability": "nonpayable",
      "type": "function"
    },
    {
      "inputs": [
        {
          "internalType": "address",
          "name": "from",
          "type": "address"
        },
        {
          "internalType": "address",
          "name": "to",
          "type": "address"
        },
        {
          "internalType": "uint256",
          "name": "tokenId",
          "type": "uint256"
        }
      ],
      "name": "safeTransferFrom",
      "outputs": [],
      "stateMutability": "nonpayable",
      "type": "function"
    },
    {
      "inputs": [
        {
          "internalType": "address",
          "name": "from",
          "type": "address"
        },
        {
          "internalType": "address",
          "name": "to",
          "type": "address"
        },
        {
          "internalType": "uint256",
          "name": "tokenId",
          "type": "uint256"
        },
        {
          "internalType": "bytes",
          "name": "_data",
          "type": "bytes"
        }
      ],
      "name": "safeTransferFrom",
      "outputs": [],
      "stateMutability": "nonpayable",
      "type": "function"
    },
    {
      "inputs": [
        {
          "internalType": "address",
          "name": "operator",
          "type": "address"
        },
        {
          "internalType": "bool",
          "name": "approved",
          "type": "bool"
        }
      ],
      "name": "setApprovalForAll",
      "outputs": [],
      "stateMutability": "nonpayable",
      "type": "function"
    },
    {
      "inputs": [
        {
          "internalType": "uint256",
          "name": "blendingRule",
          "type": "uint256"
        },
        {
          "internalType": "uint256",
          "name": "newRuleData",
          "type": "uint256"
        }
      ],
      "name": "setBlendingRule",
      "outputs": [],
      "stateMutability": "nonpayable",
      "type": "function"
    },
    {
      "inputs": [
        {
          "internalType": "string[5]",
          "name": "newIncubationViews",
          "type": "string[5]"
        }
      ],
      "name": "setIncubationViews",
      "outputs": [],
      "stateMutability": "nonpayable",
      "type": "function"
    },
    {
      "inputs": [
        {
          "internalType": "bytes4",
          "name": "interfaceId",
          "type": "bytes4"
        }
      ],
      "name": "supportsInterface",
      "outputs": [
        {
          "internalType": "bool",
          "name": "",
          "type": "bool"
        }
      ],
      "stateMutability": "view",
      "type": "function"
    },
    {
      "inputs": [],
      "name": "symbol",
      "outputs": [
        {
          "internalType": "string",
          "name": "",
          "type": "string"
        }
      ],
      "stateMutability": "view",
      "type": "function"
    },
    {
      "inputs": [
        {
          "internalType": "uint256",
          "name": "index",
          "type": "uint256"
        }
      ],
      "name": "tokenByIndex",
      "outputs": [
        {
          "internalType": "uint256",
          "name": "",
          "type": "uint256"
        }
      ],
      "stateMutability": "view",
      "type": "function"
    },
    {
      "inputs": [
        {
          "internalType": "address",
          "name": "owner",
          "type": "address"
        },
        {
          "internalType": "uint256",
          "name": "index",
          "type": "uint256"
        }
      ],
      "name": "tokenOfOwnerByIndex",
      "outputs": [
        {
          "internalType": "uint256",
          "name": "",
          "type": "uint256"
        }
      ],
      "stateMutability": "view",
      "type": "function"
    },
    {
      "inputs": [
        {
          "internalType": "uint256",
          "name": "tokenId",
          "type": "uint256"
        }
      ],
      "name": "tokenURI",
      "outputs": [
        {
          "internalType": "string",
          "name": "",
          "type": "string"
        }
      ],
      "stateMutability": "view",
      "type": "function"
    },
    {
      "inputs": [],
      "name": "totalSupply",
      "outputs": [
        {
          "internalType": "uint256",
          "name": "",
          "type": "uint256"
        }
      ],
      "stateMutability": "view",
      "type": "function"
    },
    {
      "inputs": [
        {
          "internalType": "address",
          "name": "from",
          "type": "address"
        },
        {
          "internalType": "address",
          "name": "to",
          "type": "address"
        },
        {
          "internalType": "uint256",
          "name": "tokenId",
          "type": "uint256"
        }
      ],
      "name": "transferFrom",
      "outputs": [],
      "stateMutability": "nonpayable",
      "type": "function"
    }
  ],
  "bytecode": "0x610180604052603561012081815260809182919062003f2861014039815260200160405180606001604052806035815260200162003ef360359139815260200160405180606001604052806035815260200162003f9260359139815260200160405180606001604052806035815260200162003ebe60359139815260200160405180606001604052806035815260200162003f5d603591399052620000a990600d9060056200014e565b50600560125560646013556064601455348015620000c657600080fd5b5060405180604001604052806006815260200165131959d95b9960d21b81525060405180604001604052806006815260200165131151d1539160d21b81525081600090805190602001906200011d929190620001a5565b50805162000133906001906020840190620001a5565b5050600a80546001600160a01b0319163317905550620002e7565b826005810192821562000193579160200282015b8281111562000193578251805162000182918491602090910190620001a5565b509160200191906001019062000162565b50620001a192915062000230565b5090565b828054620001b390620002aa565b90600052602060002090601f016020900481019282620001d7576000855562000222565b82601f10620001f257805160ff191683800117855562000222565b8280016001018555821562000222579182015b828111156200022257825182559160200191906001019062000205565b50620001a192915062000251565b80821115620001a157600062000247828262000268565b5060010162000230565b5b80821115620001a1576000815560010162000252565b5080546200027690620002aa565b6000825580601f1062000287575050565b601f016020900490600052602060002090810190620002a7919062000251565b50565b600181811c90821680620002bf57607f821691505b60208210811415620002e157634e487b7160e01b600052602260045260246000fd5b50919050565b613bc780620002f76000396000f3fe608060405234801561001057600080fd5b506004361061025b5760003560e01c80638ca46dcc11610145578063b88d4fde116100bd578063ceadb5021161008c578063d4d94eca11610071578063d4d94eca14610560578063e985e9c514610573578063f88378bb146105af57600080fd5b8063ceadb50214610520578063ced3e3f11461053357600080fd5b8063b88d4fde146104b9578063c2b64f2d146104cc578063c87b56dd146104fa578063ce5306741461050d57600080fd5b80639d147ce911610114578063a22cb465116100f9578063a22cb46514610470578063ac386f4b14610483578063af5cf6c7146104a657600080fd5b80639d147ce91461044a578063a18e7b2b1461045d57600080fd5b80638ca46dcc146103f05780638f660ea61461040357806395d89b411461042257806399ea58441461042a57600080fd5b80632f745c59116101d85780636352211e116101a757806371de4ed71161018c57806371de4ed7146103b75780637c20234d146103ca57806387aef166146103dd57600080fd5b80636352211e1461039157806370a08231146103a457600080fd5b80632f745c591461034557806342842e0e14610358578063478c5ef01461036b5780634f6ccce71461037e57600080fd5b8063095ea7b31161022f57806318160ddd1161021457806318160ddd146103175780631b4c46fb1461031f57806323b872dd1461033257600080fd5b8063095ea7b3146102e157806309932bbc146102f657600080fd5b8062ce93811461026057806301ffc9a71461027e57806306fdde03146102a1578063081812fc146102b6575b600080fd5b6102686105cf565b60405161027591906137d8565b60405180910390f35b61029161028c366004613357565b610696565b6040519015158152602001610275565b6102a96106da565b6040516102759190613895565b6102c96102c436600461341e565b61076c565b6040516001600160a01b039091168152602001610275565b6102f46102ef3660046131ed565b610806565b005b61030961030436600461341e565b610938565b604051908152602001610275565b600854610309565b61030961032d366004613259565b61096b565b6102f4610340366004613103565b610e7b565b6103096103533660046131ed565b610f02565b6102f4610366366004613103565b610faa565b61029161037936600461341e565b610fc5565b61030961038c36600461341e565b611058565b6102c961039f36600461341e565b61110a565b6103096103b23660046130af565b611195565b6102f46103c5366004613436565b61122f565b6102f46103d8366004613480565b61135c565b6102f46103eb36600461328d565b6113db565b6102916103fe36600461341e565b611403565b600c546012546013546014546040516102759460ff1693929190613825565b6102a9611484565b61043d61043836600461341e565b611493565b604051610275919061379e565b6102f46104583660046134f7565b61154c565b6102f461046b36600461341e565b61158d565b6102f461047e3660046131c0565b6115e9565b61029161049136600461341e565b60009081526017602052604090205460ff1690565b6102f46104b43660046134f7565b6116ae565b6102f46104c7366004613143565b61174c565b6102916104da3660046134f7565b600091825260186020908152604080842092845291905290205460ff1690565b6102a961050836600461341e565b6117da565b6102f461051b36600461341e565b6118cf565b6102a961052e36600461341e565b611943565b61029161054136600461341e565b600090815260156020526040902060090154600160a81b900460ff1690565b6102f461056e366004613218565b611a05565b6102916105813660046130cb565b6001600160a01b03918216600090815260056020908152604080832093909416825291909152205460ff1690565b6105c26105bd36600461341e565b611b1a565b60405161027591906138a8565b6105d7612d9e565b6040805160a08101909152600d60056000835b8282101561068d57838201805461060090613aac565b80601f016020809104026020016040519081016040528092919081815260200182805461062c90613aac565b80156106795780601f1061064e57610100808354040283529160200191610679565b820191906000526020600020905b81548152906001019060200180831161065c57829003601f168201915b5050505050815260200190600101906105ea565b50505050905090565b60006001600160e01b031982167f780e9d630000000000000000000000000000000000000000000000000000000014806106d457506106d482611dd8565b92915050565b6060600080546106e990613aac565b80601f016020809104026020016040519081016040528092919081815260200182805461071590613aac565b80156107625780601f1061073757610100808354040283529160200191610762565b820191906000526020600020905b81548152906001019060200180831161074557829003601f168201915b5050505050905090565b6000818152600260205260408120546001600160a01b03166107ea5760405162461bcd60e51b815260206004820152602c60248201527f4552433732313a20617070726f76656420717565727920666f72206e6f6e657860448201526b34b9ba32b73a103a37b5b2b760a11b60648201526084015b60405180910390fd5b506000908152600460205260409020546001600160a01b031690565b60006108118261110a565b9050806001600160a01b0316836001600160a01b0316141561089b5760405162461bcd60e51b815260206004820152602160248201527f4552433732313a20617070726f76616c20746f2063757272656e74206f776e6560448201527f720000000000000000000000000000000000000000000000000000000000000060648201526084016107e1565b336001600160a01b03821614806108b757506108b78133610581565b6109295760405162461bcd60e51b815260206004820152603860248201527f4552433732313a20617070726f76652063616c6c6572206973206e6f74206f7760448201527f6e6572206e6f7220617070726f76656420666f7220616c6c000000000000000060648201526084016107e1565b6109338383611e73565b505050565b6000818152601560205260408120600801548190610957906001613a1e565b6013546109649190613a4a565b9392505050565b6000336109778461110a565b6001600160a01b031614801561099d5750336109928361110a565b6001600160a01b0316145b6109a657600080fd5b60008381526015602052604080822084835291206109c385610fc5565b6109cc57600080fd5b6109d584610fc5565b6109de57600080fd5b6002600c5460ff166002811115610a0557634e487b7160e01b600052602160045260246000fd5b14610b8a576040805180820191829052610a7091600485019060029082845b815481526020019060010190808311610a24575050604080518082019182905293506004870192506002915082845b815481526020019060010190808311610a53575050505050611eee565b610ae25760405162461bcd60e51b815260206004820152602860248201527f426c656e64696e67204e6f7420416c6c6f7765642057697468205369626c696e60448201527f67204c6567656e6400000000000000000000000000000000000000000000000060648201526084016107e1565b6001600c5460ff166002811115610b0957634e487b7160e01b600052602160045260246000fd5b14610b8a57610b188585611fb9565b610b8a5760405162461bcd60e51b815260206004820152602760248201527f426c656e64696e67204e6f7420416c6c6f776564205769746820506172656e7460448201527f204c6567656e640000000000000000000000000000000000000000000000000060648201526084016107e1565b60006002610b9786610938565b610ba088610938565b610baa9190613a1e565b610bb49190613a36565b9050600a60009054906101000a90046001600160a01b03166001600160a01b031663030032056040518163ffffffff1660e01b815260040160206040518083038186803b158015610c0457600080fd5b505afa158015610c18573d6000803e3d6000fd5b505050506040513d601f19601f82011682018060405250810190610c3c919061338f565b6040517f9f87833f000000000000000000000000000000000000000000000000000000008152336004820152602481018390526001600160a01b039190911690639f87833f90604401600060405180830381600087803b158015610c9f57600080fd5b505af1158015610cb3573d6000803e3d6000fd5b50505050610cc5600b80546001019055565b6000610cd0600b5490565b604080518082019091528881526020810188905290915060005b6002811015610dda57600060156000848460028110610d1957634e487b7160e01b600052603260045260246000fd5b6020020151815260200190815260200160002090506001816008016000828254610d439190613a1e565b925050819055506001816007016000828254610d5f9190613a1e565b909155506001905060186000858560028110610d8b57634e487b7160e01b600052603260045260246000fd5b60200201518152602001908152602001600020600086815260200190815260200160002060006101000a81548160ff021916908315150217905550508080610dd290613ae7565b915050610cea565b506000610e2183610df184845b602002015161200d565b610dfc856001610de7565b604051602001610e0d9291906136e8565b604051602081830303815290604052612163565b9050610e328a8484846000806121c7565b87897f8f02af4ec019b401c0e9f3fd6c02b233d6d5d34ef5d13eed42d576aecc06766c85604051610e6591815260200190565b60405180910390a3509098975050505050505050565b610e85338261235e565b610ef75760405162461bcd60e51b815260206004820152603160248201527f4552433732313a207472616e736665722063616c6c6572206973206e6f74206f60448201527f776e6572206e6f7220617070726f76656400000000000000000000000000000060648201526084016107e1565b610933838383612451565b6000610f0d83611195565b8210610f815760405162461bcd60e51b815260206004820152602b60248201527f455243373231456e756d657261626c653a206f776e657220696e646578206f7560448201527f74206f6620626f756e647300000000000000000000000000000000000000000060648201526084016107e1565b506001600160a01b03919091166000908152600660209081526040808320938352929052205490565b6109338383836040518060200160405280600081525061174c565b601254600082815260156020526040812060070154909110156110505760405162461bcd60e51b815260206004820152602560248201527f4c6567656e64204861732052656163686564204d617820426c656e64696e672060448201527f536c6f747300000000000000000000000000000000000000000000000000000060648201526084016107e1565b506001919050565b600061106360085490565b82106110d75760405162461bcd60e51b815260206004820152602c60248201527f455243373231456e756d657261626c653a20676c6f62616c20696e646578206f60448201527f7574206f6620626f756e6473000000000000000000000000000000000000000060648201526084016107e1565b600882815481106110f857634e487b7160e01b600052603260045260246000fd5b90600052602060002001549050919050565b6000818152600260205260408120546001600160a01b0316806106d45760405162461bcd60e51b815260206004820152602960248201527f4552433732313a206f776e657220717565727920666f72206e6f6e657869737460448201527f656e7420746f6b656e000000000000000000000000000000000000000000000060648201526084016107e1565b60006001600160a01b0382166112135760405162461bcd60e51b815260206004820152602a60248201527f4552433732313a2062616c616e636520717565727920666f7220746865207a6560448201527f726f20616464726573730000000000000000000000000000000000000000000060648201526084016107e1565b506001600160a01b031660009081526003602052604090205490565b336112398461110a565b6001600160a01b03161461124c57600080fd5b61125583611403565b6112a15760405162461bcd60e51b815260206004820152601f60248201527f4c6567656e64204e65656473204c6f6e67657220546f20496e6375626174650060448201526064016107e1565b60008381526015602090815260409182902060090180547fffffffffffffffffffff00ffffffffffffffffffffffffffffffffffffffffff16600160a81b1790558151601f840182900482028101820190925282825261131d918591859085908190840183828082843760009201919091525061263692505050565b827f7212dd6ad91628f15bd648b9d774dd7ece843f5530043c4ccdf0784607ebbbb24260405161134f91815260200190565b60405180910390a2505050565b6000858152601560205260409020611378906002018585612dc5565b506000858152601560205260409020611395906003018383612dc5565b50847f06d4a29ec1d356093e05fa671c13569f2d68546579b6a8ec36b660db70ca390f858585856040516113cc9493929190613863565b60405180910390a25050505050565b600a546001600160a01b031633146113f257600080fd5b6113ff600d826005612e49565b5050565b600081815260156020526040812060090154600160a81b900460ff161561142957600080fd5b60008281526017602052604090205460ff161561144857506001919050565b601454600083815260156020526040812060060154909161146891613a1e565b90508042101561147b5750600092915050565b50600192915050565b6060600180546106e990613aac565b61149b612e95565b6114da336040518060400160405280600681526020017f73656e6465720000000000000000000000000000000000000000000000000000815250612655565b6115216114e68361110a565b6040518060400160405280600581526020017f6f776e6572000000000000000000000000000000000000000000000000000000815250612655565b604080518082019091523381526020810161153b8461110a565b6001600160a01b0316905292915050565b600a546001600160a01b0316331461156357600080fd5b60008281526015602052604081206007018054839290611584908490613a69565b90915550505050565b336115978261110a565b6001600160a01b0316146115aa57600080fd5b6115b3816126c8565b6040518181527f82c02749330cd846562e337f0a18fb1266e17bac7290c5ccd1a7181d94bd65589060200160405180910390a150565b6001600160a01b0382163314156116425760405162461bcd60e51b815260206004820152601960248201527f4552433732313a20617070726f766520746f2063616c6c65720000000000000060448201526064016107e1565b3360008181526005602090815260408083206001600160a01b03871680855290835292819020805460ff191686151590811790915590519081529192917f17307eab39ab6107e8899845ad3d59bd9653f200f220920489ca2b5937696c31910160405180910390a35050565b600a546001600160a01b031633146116c557600080fd5b8161171f57806116e857600c80546000919060ff19166001835b02179055505050565b8060011415611702575050600c805460ff19166001179055565b80600214156113ff57600c80546002919060ff19166001836116df565b816001141561172e5760125550565b816002141561173d5760135550565b81600314156113ff5760145550565b611756338361235e565b6117c85760405162461bcd60e51b815260206004820152603160248201527f4552433732313a207472616e736665722063616c6c6572206973206e6f74206f60448201527f776e6572206e6f7220617070726f76656400000000000000000000000000000060648201526084016107e1565b6117d48484848461277c565b50505050565b6000818152600260205260409020546060906001600160a01b03166118675760405162461bcd60e51b815260206004820152602f60248201527f4552433732314d657461646174613a2055524920717565727920666f72206e6f60448201527f6e6578697374656e7420746f6b656e000000000000000000000000000000000060648201526084016107e1565b600061187e60408051602081019091526000815290565b9050600081511161189e5760405180602001604052806000815250610964565b806118a88461200d565b6040516020016118b99291906135e0565b6040516020818303038152906040529392505050565b600a546001600160a01b031633146118e657600080fd5b6040805160208082018084526000808452858152601590925292902090516119149260029092019190612eb3565b506040805160208082018084526000808452858152601590925292902090516113ff9260039092019190612eb3565b6000818152600260205260409020546060906001600160a01b031661196757600080fd5b6000828152601660205260409020805461198090613aac565b80601f01602080910402602001604051908101604052809291908181526020018280546119ac90613aac565b80156119f95780601f106119ce576101008083540402835291602001916119f9565b820191906000526020600020905b8154815290600101906020018083116119dc57829003601f168201915b50505050509050919050565b600a546001600160a01b03163314611a1c57600080fd5b611a2a600b80546001019055565b6000611a35600b5490565b90506000604051806040016040528060008152602001600081525090506000611a6683611a618761200d565b612163565b600a546040517f1b65cd30000000000000000000000000000000000000000000000000000000008152600481018890529192506000916001600160a01b0390911690631b65cd309060240160206040518083038186803b158015611ac957600080fd5b505afa158015611add573d6000803e3d6000fd5b505050506040513d601f19601f82011682018060405250810190611b01919061333b565b9050611b118785858589866121c7565b50505050505050565b611b22612f27565b6000828152600260205260409020546001600160a01b0316611b4357600080fd5b601560008381526020019081526020016000206040518061018001604052908160008201548152602001600182018054611b7c90613aac565b80601f0160208091040260200160405190810160405280929190818152602001828054611ba890613aac565b8015611bf55780601f10611bca57610100808354040283529160200191611bf5565b820191906000526020600020905b815481529060010190602001808311611bd857829003601f168201915b50505050508152602001600282018054611c0e90613aac565b80601f0160208091040260200160405190810160405280929190818152602001828054611c3a90613aac565b8015611c875780601f10611c5c57610100808354040283529160200191611c87565b820191906000526020600020905b815481529060010190602001808311611c6a57829003601f168201915b50505050508152602001600382018054611ca090613aac565b80601f0160208091040260200160405190810160405280929190818152602001828054611ccc90613aac565b8015611d195780601f10611cee57610100808354040283529160200191611d19565b820191906000526020600020905b815481529060010190602001808311611cfc57829003601f168201915b5050509183525050604080518082019182905260209092019190600484019060029082845b815481526020019060010190808311611d3e5750505091835250506006820154602082015260078201546040820152600882015460608201526009909101546001600160a01b038116608083015260ff600160a01b82048116151560a0840152600160a81b82048116151560c084015276010000000000000000000000000000000000000000000090910416151560e09091015292915050565b60006001600160e01b031982167f80ac58cd000000000000000000000000000000000000000000000000000000001480611e3b57506001600160e01b031982167f5b5e139f00000000000000000000000000000000000000000000000000000000145b806106d457507f01ffc9a7000000000000000000000000000000000000000000000000000000006001600160e01b03198316146106d4565b6000818152600460205260409020805473ffffffffffffffffffffffffffffffffffffffff19166001600160a01b0384169081179091558190611eb58261110a565b6001600160a01b03167f8c5be1e5ebec7d5bd14f71427d1e84f3dd0314c0f7b2291e5b200ac8c7c3b92560405160405180910390a45050565b81516000901580611efe57508151155b15611f0b575060016106d4565b81604051602001611f1c91906135ac565b6040516020818303038152906040528051906020012083604051602001611f4391906135ac565b6040516020818303038152906040528051906020012014158015610964575082604051602001611f7391906135ac565b6040516020818303038152906040528051906020012082604051602001611f9a91906135ac565b6040516020818303038152906040528051906020012014159392505050565b600082815260186020908152604080832084845290915281205460ff1615611fe3575060006106d4565b600082815260186020908152604080832086845290915290205460ff161561147b575060006106d4565b60608161204d57505060408051808201909152600181527f3000000000000000000000000000000000000000000000000000000000000000602082015290565b8160005b8115612077578061206181613ae7565b91506120709050600a83613a36565b9150612051565b60008167ffffffffffffffff8111156120a057634e487b7160e01b600052604160045260246000fd5b6040519080825280601f01601f1916602001820160405280156120ca576020820181803683370190505b5090505b841561215b576120df600183613a69565b91506120ec600a86613b02565b6120f7906030613a1e565b60f81b81838151811061211a57634e487b7160e01b600052603260045260246000fd5b60200101907effffffffffffffffffffffffffffffffffffffffffffffffffffffffffffff1916908160001a905350612154600a86613a36565b94506120ce565b949350505050565b6060600061216f612805565b905061217a8461200d565b600d826005811061219b57634e487b7160e01b600052603260045260246000fd5b01846040516020016121af9392919061360f565b60405160208183030381529060405291505092915050565b6121d1868661284d565b83516000906121e2575060006121e5565b50855b600086815260156020526040808220888155600a5482517fe4eb23ae000000000000000000000000000000000000000000000000000000008152925191936001600160a01b039091169263e4eb23ae9260048083019392829003018186803b15801561225057600080fd5b505afa158015612264573d6000803e3d6000fd5b505050506040513d6000823e601f3d908101601f1916820160405261228c91908101906133ab565b80516122a2916001840191602090910190612eb3565b506122b260048201876002612f8e565b504260068201556009810180546001600160a01b0384167fffffffffffffffffffffff00000000000000000000000000000000000000000090911617600160a01b861515021790556000878152601760205260409020805460ff191684151517905561231e8786612636565b6040516001600160a01b0383169088907f79e5f511bb9bfc9228c8dcb92afe3487a0a2fb935727d236b1c9d0a4fb0ac5ef90600090a35050505050505050565b6000818152600260205260408120546001600160a01b03166123d75760405162461bcd60e51b815260206004820152602c60248201527f4552433732313a206f70657261746f7220717565727920666f72206e6f6e657860448201526b34b9ba32b73a103a37b5b2b760a11b60648201526084016107e1565b60006123e28361110a565b9050806001600160a01b0316846001600160a01b0316148061241d5750836001600160a01b03166124128461076c565b6001600160a01b0316145b8061215b57506001600160a01b0380821660009081526005602090815260408083209388168352929052205460ff1661215b565b826001600160a01b03166124648261110a565b6001600160a01b0316146124e05760405162461bcd60e51b815260206004820152602960248201527f4552433732313a207472616e73666572206f6620746f6b656e2074686174206960448201527f73206e6f74206f776e000000000000000000000000000000000000000000000060648201526084016107e1565b6001600160a01b03821661255b5760405162461bcd60e51b8152602060048201526024808201527f4552433732313a207472616e7366657220746f20746865207a65726f2061646460448201527f726573730000000000000000000000000000000000000000000000000000000060648201526084016107e1565b6125668383836129a8565b612571600082611e73565b6001600160a01b038316600090815260036020526040812080546001929061259a908490613a69565b90915550506001600160a01b03821660009081526003602052604081208054600192906125c8908490613a1e565b9091555050600081815260026020526040808220805473ffffffffffffffffffffffffffffffffffffffff19166001600160a01b0386811691821790925591518493918716917fddf252ad1be2c89b69c2b068fc378daa952ba7f163c4a11628f55a4df523b3ef91a4505050565b6000828152601660209081526040909120825161093392840190612eb3565b6113ff828260405160240161266b92919061377c565b60408051601f198184030181529190526020810180517bffffffffffffffffffffffffffffffffffffffffffffffffffffffff167f759f86bb00000000000000000000000000000000000000000000000000000000179052612a60565b60006126d38261110a565b90506126e1816000846129a8565b6126ec600083611e73565b6001600160a01b0381166000908152600360205260408120805460019290612715908490613a69565b9091555050600082815260026020526040808220805473ffffffffffffffffffffffffffffffffffffffff19169055518391906001600160a01b038416907fddf252ad1be2c89b69c2b068fc378daa952ba7f163c4a11628f55a4df523b3ef908390a45050565b612787848484612451565b61279384848484612a81565b6117d45760405162461bcd60e51b815260206004820152603260248201527f4552433732313a207472616e7366657220746f206e6f6e20455243373231526560448201527f63656976657220696d706c656d656e746572000000000000000000000000000060648201526084016107e1565b600060054442604051602001612825929190918252602082015260400190565b6040516020818303038152906040528051906020012060001c6128489190613b02565b905090565b6001600160a01b0382166128a35760405162461bcd60e51b815260206004820181905260248201527f4552433732313a206d696e7420746f20746865207a65726f206164647265737360448201526064016107e1565b6000818152600260205260409020546001600160a01b0316156129085760405162461bcd60e51b815260206004820152601c60248201527f4552433732313a20746f6b656e20616c7265616479206d696e7465640000000060448201526064016107e1565b612914600083836129a8565b6001600160a01b038216600090815260036020526040812080546001929061293d908490613a1e565b9091555050600081815260026020526040808220805473ffffffffffffffffffffffffffffffffffffffff19166001600160a01b03861690811790915590518392907fddf252ad1be2c89b69c2b068fc378daa952ba7f163c4a11628f55a4df523b3ef908290a45050565b6001600160a01b038316612a03576129fe81600880546000838152600960205260408120829055600182018355919091527ff3f7a9fe364faab93b216da50a3214154f22a0a2b415b23a84c8169e8b636ee30155565b612a26565b816001600160a01b0316836001600160a01b031614612a2657612a268382612be4565b6001600160a01b038216612a3d5761093381612c81565b826001600160a01b0316826001600160a01b031614610933576109338282612d5a565b80516a636f6e736f6c652e6c6f67602083016000808483855afa5050505050565b60006001600160a01b0384163b15612bd957604051630a85bd0160e11b81526001600160a01b0385169063150b7a0290612ac5903390899088908890600401613740565b602060405180830381600087803b158015612adf57600080fd5b505af1925050508015612b0f575060408051601f3d908101601f19168201909252612b0c91810190613373565b60015b612bbf573d808015612b3d576040519150601f19603f3d011682016040523d82523d6000602084013e612b42565b606091505b508051612bb75760405162461bcd60e51b815260206004820152603260248201527f4552433732313a207472616e7366657220746f206e6f6e20455243373231526560448201527f63656976657220696d706c656d656e746572000000000000000000000000000060648201526084016107e1565b805181602001fd5b6001600160e01b031916630a85bd0160e11b14905061215b565b506001949350505050565b60006001612bf184611195565b612bfb9190613a69565b600083815260076020526040902054909150808214612c4e576001600160a01b03841660009081526006602090815260408083208584528252808320548484528184208190558352600790915290208190555b5060009182526007602090815260408084208490556001600160a01b039094168352600681528383209183525290812055565b600854600090612c9390600190613a69565b60008381526009602052604081205460088054939450909284908110612cc957634e487b7160e01b600052603260045260246000fd5b906000526020600020015490508060088381548110612cf857634e487b7160e01b600052603260045260246000fd5b6000918252602080832090910192909255828152600990915260408082208490558582528120556008805480612d3e57634e487b7160e01b600052603160045260246000fd5b6001900381819060005260206000200160009055905550505050565b6000612d6583611195565b6001600160a01b039093166000908152600660209081526040808320868452825280832085905593825260079052919091209190915550565b6040518060a001604052806005905b6060815260200190600190039081612dad5790505090565b828054612dd190613aac565b90600052602060002090601f016020900481019282612df35760008555612e39565b82601f10612e0c5782800160ff19823516178555612e39565b82800160010185558215612e39579182015b82811115612e39578235825591602001919060010190612e1e565b50612e45929150612fbb565b5090565b8260058101928215612e89579160200282015b82811115612e895782518051612e79918491602090910190612eb3565b5091602001919060010190612e5c565b50612e45929150612fd0565b60405180604001604052806002906020820280368337509192915050565b828054612ebf90613aac565b90600052602060002090601f016020900481019282612ee15760008555612e39565b82601f10612efa57805160ff1916838001178555612e39565b82800160010185558215612e39579182015b82811115612e39578251825591602001919060010190612f0c565b60405180610180016040528060008152602001606081526020016060815260200160608152602001612f57612e95565b815260006020820181905260408201819052606082018190526080820181905260a0820181905260c0820181905260e09091015290565b8260028101928215612e395791602002820182811115612e39578251825591602001919060010190612f0c565b5b80821115612e455760008155600101612fbc565b80821115612e45576000612fe48282612fed565b50600101612fd0565b508054612ff990613aac565b6000825580601f10613009575050565b601f0160209004906000526020600020908101906130279190612fbb565b50565b600061303d613038846139f6565b6139c5565b905082815283838301111561305157600080fd5b828260208301376000602084830101529392505050565b60008083601f840112613079578182fd5b50813567ffffffffffffffff811115613090578182fd5b6020830191508360208285010111156130a857600080fd5b9250929050565b6000602082840312156130c0578081fd5b813561096481613b58565b600080604083850312156130dd578081fd5b82356130e881613b58565b915060208301356130f881613b58565b809150509250929050565b600080600060608486031215613117578081fd5b833561312281613b58565b9250602084013561313281613b58565b929592945050506040919091013590565b60008060008060808587031215613158578081fd5b843561316381613b58565b9350602085013561317381613b58565b925060408501359150606085013567ffffffffffffffff811115613195578182fd5b8501601f810187136131a5578182fd5b6131b48782356020840161302a565b91505092959194509250565b600080604083850312156131d2578182fd5b82356131dd81613b58565b915060208301356130f881613b6d565b600080604083850312156131ff578182fd5b823561320a81613b58565b946020939093013593505050565b60008060006060848603121561322c578283fd5b833561323781613b58565b925060208401359150604084013561324e81613b6d565b809150509250925092565b60008060006060848603121561326d578081fd5b833561327881613b58565b95602085013595506040909401359392505050565b6000602080838503121561329f578182fd5b823567ffffffffffffffff808211156132b6578384fd5b8185019150601f86818401126132ca578485fd5b6132d261399c565b80848960a0870111156132e3578788fd5b875b600581101561332c578135868111156132fc57898afd5b87018581018c1361330b57898afd5b6133198c82358b840161302a565b85525092870192908701906001016132e5565b50909998505050505050505050565b60006020828403121561334c578081fd5b815161096481613b6d565b600060208284031215613368578081fd5b813561096481613b7b565b600060208284031215613384578081fd5b815161096481613b7b565b6000602082840312156133a0578081fd5b815161096481613b58565b6000602082840312156133bc578081fd5b815167ffffffffffffffff8111156133d2578182fd5b8201601f810184136133e2578182fd5b80516133f0613038826139f6565b818152856020838501011115613404578384fd5b613415826020830160208601613a80565b95945050505050565b60006020828403121561342f578081fd5b5035919050565b60008060006040848603121561344a578081fd5b83359250602084013567ffffffffffffffff811115613467578182fd5b61347386828701613068565b9497909650939450505050565b600080600080600060608688031215613497578283fd5b85359450602086013567ffffffffffffffff808211156134b5578485fd5b6134c189838a01613068565b909650945060408801359150808211156134d9578283fd5b506134e688828901613068565b969995985093965092949392505050565b60008060408385031215613509578182fd5b50508035926020909101359150565b8060005b60028110156117d457815184526020938401939091019060010161351c565b60008151808452613553816020860160208601613a80565b601f01601f19169290920160200192915050565b81835281816020850137506000828201602090810191909152601f909101601f19169091010190565b600081516135a2818560208601613a80565b9290920192915050565b60008183825b60028110156135d15781518352602092830192909101906001016135b2565b50505060408201905092915050565b600083516135f2818460208801613a80565b835190830190613606818360208801613a80565b01949350505050565b6000845160206136228285838a01613a80565b600b60fa1b9184019182528554600190849080831c8184168061364657607f821691505b85821081141561366457634e487b7160e01b88526022600452602488fd5b808015613678576001811461368d576136bd565b60ff19841688870152828801860194506136bd565b60008c815260209020895b848110156136b35781548a8201890152908701908801613698565b5050858389010194505b505050506136db6136d582600b60fa1b815260010190565b88613590565b9998505050505050505050565b600083516136fa818460208801613a80565b7f2b000000000000000000000000000000000000000000000000000000000000009083019081528351613734816001840160208801613a80565b01600101949350505050565b60006001600160a01b03808716835280861660208401525083604083015260806060830152613772608083018461353b565b9695505050505050565b6001600160a01b038316815260406020820152600061215b604083018461353b565b60408101818360005b60028110156137cf5781516001600160a01b03168352602092830192909101906001016137a7565b50505092915050565b602080825260009060c0830183820185845b600581101561381957601f1987850301835261380784835161353b565b935091840191908401906001016137ea565b50919695505050505050565b608081016003861061384757634e487b7160e01b600052602160045260246000fd5b9481526020810193909352604083019190915260609091015290565b604081526000613877604083018688613567565b828103602084015261388a818587613567565b979650505050505050565b602081526000610964602083018461353b565b6020815281516020820152600060208301516101a08060408501526138d16101c085018361353b565b91506040850151601f19808685030160608701526138ef848361353b565b935060608701519150808685030160808701525061390d838261353b565b925050608085015161392260a0860182613518565b5060a085015160e085015260c0850151610100818187015260e0870151915061012082818801528188015192506101409150613968828801846001600160a01b03169052565b870151915061016061397d8782018415159052565b9087015115156101808701529590950151151593019290925250919050565b60405160a0810167ffffffffffffffff811182821017156139bf576139bf613b42565b60405290565b604051601f8201601f1916810167ffffffffffffffff811182821017156139ee576139ee613b42565b604052919050565b600067ffffffffffffffff821115613a1057613a10613b42565b50601f01601f191660200190565b60008219821115613a3157613a31613b16565b500190565b600082613a4557613a45613b2c565b500490565b6000816000190483118215151615613a6457613a64613b16565b500290565b600082821015613a7b57613a7b613b16565b500390565b60005b83811015613a9b578181015183820152602001613a83565b838111156117d45750506000910152565b600181811c90821680613ac057607f821691505b60208210811415613ae157634e487b7160e01b600052602260045260246000fd5b50919050565b6000600019821415613afb57613afb613b16565b5060010190565b600082613b1157613b11613b2c565b500690565b634e487b7160e01b600052601160045260246000fd5b634e487b7160e01b600052601260045260246000fd5b634e487b7160e01b600052604160045260246000fd5b6001600160a01b038116811461302757600080fd5b801515811461302757600080fd5b6001600160e01b03198116811461302757600080fdfea2646970667358221220c29e18b935352929d48e0f8c761c1aab9bb1ca66f1a453d8125a2e639935cd4664736f6c63430008040033697066733a2f2f516d534c5a364c514b626f46487863617a6b72614162564a514256393869316878367044704c77714d69656e4777697066733a2f2f516d526e414a34383174576667594b78485943645954517357543432574545645572374261614252663252583146697066733a2f2f516d58714751385361556d3763736174515641415465686e455162327a645a48634656784c6459447142334e584a697066733a2f2f516d656f5272756d4b34684e4c62794278517a587441383158554a744d326848636758423756375464614b744d36697066733a2f2f516d5a72375752335939527a784b4b627a4b766b41486b6e616f46584e6377464e5348373965586a4d374b6b6456",
  "linkReferences": {},
  "deployedLinkReferences": {}
}