{
  "_format": "hh-sol-artifact-1",
  "contractName": "LegendsMarketplace",
  "sourceName": "contracts/marketplace/LegendsMarketplace.sol",
  "abi": [
    {
      "inputs": [],
      "stateMutability": "nonpayable",
      "type": "constructor"
    },
    {
      "anonymous": false,
      "inputs": [
        {
          "indexed": true,
          "internalType": "uint256",
          "name": "listingId",
          "type": "uint256"
        },
        {
          "indexed": false,
          "internalType": "uint256",
          "name": "newDuration",
          "type": "uint256"
        }
      ],
      "name": "AuctionExtended",
      "type": "event"
    },
    {
      "anonymous": false,
      "inputs": [
        {
          "indexed": true,
          "internalType": "uint256",
          "name": "listingId",
          "type": "uint256"
        },
        {
          "indexed": false,
          "internalType": "enum ILegendListing.ListingStatus",
          "name": "status",
          "type": "uint8"
        }
      ],
      "name": "ListingStatusChanged",
      "type": "event"
    },
    {
      "anonymous": false,
      "inputs": [
        {
          "indexed": true,
          "internalType": "uint256",
          "name": "listingId",
          "type": "uint256"
        },
        {
          "indexed": true,
          "internalType": "bool",
          "name": "isAccepted",
          "type": "bool"
        }
      ],
      "name": "OfferDecided",
      "type": "event"
    },
    {
      "anonymous": false,
      "inputs": [
        {
          "indexed": true,
          "internalType": "uint256",
          "name": "listingId",
          "type": "uint256"
        },
        {
          "indexed": false,
          "internalType": "uint256",
          "name": "price",
          "type": "uint256"
        }
      ],
      "name": "OfferMade",
      "type": "event"
    },
    {
      "anonymous": false,
      "inputs": [
        {
          "indexed": true,
          "internalType": "uint256",
          "name": "listingId",
          "type": "uint256"
        },
        {
          "indexed": true,
          "internalType": "address",
          "name": "payee",
          "type": "address"
        }
      ],
      "name": "TradeClaimed",
      "type": "event"
    },
    {
      "inputs": [
        {
          "internalType": "uint256",
          "name": "listingId",
          "type": "uint256"
        }
      ],
      "name": "_calculateFees",
      "outputs": [
        {
          "internalType": "uint256",
          "name": "",
          "type": "uint256"
        },
        {
          "internalType": "address payable",
          "name": "",
          "type": "address"
        },
        {
          "internalType": "uint256",
          "name": "",
          "type": "uint256"
        }
      ],
      "stateMutability": "view",
      "type": "function"
    },
    {
      "inputs": [
        {
          "internalType": "uint256",
          "name": "listingId",
          "type": "uint256"
        }
      ],
      "name": "buyLegend",
      "outputs": [],
      "stateMutability": "payable",
      "type": "function"
    },
    {
      "inputs": [
        {
          "internalType": "uint256",
          "name": "listingId",
          "type": "uint256"
        }
      ],
      "name": "cancelLegendListing",
      "outputs": [],
      "stateMutability": "nonpayable",
      "type": "function"
    },
    {
      "inputs": [
        {
          "internalType": "uint256",
          "name": "listingId",
          "type": "uint256"
        }
      ],
      "name": "closeListing",
      "outputs": [],
      "stateMutability": "payable",
      "type": "function"
    },
    {
      "inputs": [],
      "name": "collectRoyalties",
      "outputs": [],
      "stateMutability": "payable",
      "type": "function"
    },
    {
      "inputs": [
        {
          "internalType": "address",
          "name": "nftContract",
          "type": "address"
        },
        {
          "internalType": "uint256",
          "name": "legendId",
          "type": "uint256"
        },
        {
          "internalType": "uint256",
          "name": "durationIndex",
          "type": "uint256"
        },
        {
          "internalType": "uint256",
          "name": "startingPrice",
          "type": "uint256"
        },
        {
          "internalType": "uint256",
          "name": "instantPrice",
          "type": "uint256"
        }
      ],
      "name": "createLegendAuction",
      "outputs": [],
      "stateMutability": "nonpayable",
      "type": "function"
    },
    {
      "inputs": [
        {
          "internalType": "address",
          "name": "nftContract",
          "type": "address"
        },
        {
          "internalType": "uint256",
          "name": "legendId",
          "type": "uint256"
        },
        {
          "internalType": "uint256",
          "name": "price",
          "type": "uint256"
        }
      ],
      "name": "createLegendSale",
      "outputs": [],
      "stateMutability": "nonpayable",
      "type": "function"
    },
    {
      "inputs": [
        {
          "internalType": "uint256",
          "name": "listingId",
          "type": "uint256"
        },
        {
          "internalType": "bool",
          "name": "isAccepted",
          "type": "bool"
        }
      ],
      "name": "decideLegendOffer",
      "outputs": [],
      "stateMutability": "nonpayable",
      "type": "function"
    },
    {
      "inputs": [
        {
          "internalType": "uint256",
          "name": "listingId",
          "type": "uint256"
        }
      ],
      "name": "fetchAuctionDetails",
      "outputs": [
        {
          "components": [
            {
              "internalType": "uint256",
              "name": "duration",
              "type": "uint256"
            },
            {
              "internalType": "uint256",
              "name": "startingPrice",
              "type": "uint256"
            },
            {
              "internalType": "uint256",
              "name": "highestBid",
              "type": "uint256"
            },
            {
              "internalType": "address payable",
              "name": "highestBidder",
              "type": "address"
            },
            {
              "internalType": "bool",
              "name": "isInstantBuy",
              "type": "bool"
            }
          ],
          "internalType": "struct LegendAuction.AuctionDetails",
          "name": "",
          "type": "tuple"
        }
      ],
      "stateMutability": "view",
      "type": "function"
    },
    {
      "inputs": [
        {
          "internalType": "uint256",
          "name": "listingId",
          "type": "uint256"
        },
        {
          "internalType": "address",
          "name": "bidder",
          "type": "address"
        }
      ],
      "name": "fetchBidPlaced",
      "outputs": [
        {
          "internalType": "uint256",
          "name": "",
          "type": "uint256"
        }
      ],
      "stateMutability": "view",
      "type": "function"
    },
    {
      "inputs": [
        {
          "internalType": "uint256",
          "name": "listingId",
          "type": "uint256"
        }
      ],
      "name": "fetchBidders",
      "outputs": [
        {
          "internalType": "address[]",
          "name": "",
          "type": "address[]"
        }
      ],
      "stateMutability": "view",
      "type": "function"
    },
    {
      "inputs": [
        {
          "internalType": "uint256",
          "name": "listingId",
          "type": "uint256"
        }
      ],
      "name": "fetchInstantBuyPrice",
      "outputs": [
        {
          "internalType": "uint256",
          "name": "",
          "type": "uint256"
        }
      ],
      "stateMutability": "view",
      "type": "function"
    },
    {
      "inputs": [
        {
          "internalType": "uint256",
          "name": "listingId",
          "type": "uint256"
        }
      ],
      "name": "fetchLegendListing",
      "outputs": [
        {
          "components": [
            {
              "internalType": "uint256",
              "name": "listingId",
              "type": "uint256"
            },
            {
              "internalType": "uint256",
              "name": "createdAt",
              "type": "uint256"
            },
            {
              "internalType": "address",
              "name": "nftContract",
              "type": "address"
            },
            {
              "internalType": "uint256",
              "name": "legendId",
              "type": "uint256"
            },
            {
              "internalType": "address payable",
              "name": "seller",
              "type": "address"
            },
            {
              "internalType": "address payable",
              "name": "buyer",
              "type": "address"
            },
            {
              "internalType": "uint256",
              "name": "price",
              "type": "uint256"
            },
            {
              "internalType": "bool",
              "name": "isAuction",
              "type": "bool"
            },
            {
              "internalType": "bool",
              "name": "isOffer",
              "type": "bool"
            },
            {
              "internalType": "enum ILegendListing.ListingStatus",
              "name": "status",
              "type": "uint8"
            }
          ],
          "internalType": "struct ILegendListing.LegendListing",
          "name": "",
          "type": "tuple"
        }
      ],
      "stateMutability": "view",
      "type": "function"
    },
    {
      "inputs": [],
      "name": "fetchListingCounts",
      "outputs": [
        {
          "components": [
            {
              "internalType": "uint256",
              "name": "_value",
              "type": "uint256"
            }
          ],
          "internalType": "struct Counters.Counter",
          "name": "",
          "type": "tuple"
        },
        {
          "components": [
            {
              "internalType": "uint256",
              "name": "_value",
              "type": "uint256"
            }
          ],
          "internalType": "struct Counters.Counter",
          "name": "",
          "type": "tuple"
        },
        {
          "components": [
            {
              "internalType": "uint256",
              "name": "_value",
              "type": "uint256"
            }
          ],
          "internalType": "struct Counters.Counter",
          "name": "",
          "type": "tuple"
        }
      ],
      "stateMutability": "view",
      "type": "function"
    },
    {
      "inputs": [],
      "name": "fetchMarketplaceRules",
      "outputs": [
        {
          "internalType": "uint256",
          "name": "",
          "type": "uint256"
        },
        {
          "internalType": "uint256",
          "name": "",
          "type": "uint256"
        },
        {
          "internalType": "uint256",
          "name": "",
          "type": "uint256"
        },
        {
          "internalType": "uint256",
          "name": "",
          "type": "uint256"
        },
        {
          "internalType": "uint256[3]",
          "name": "",
          "type": "uint256[3]"
        }
      ],
      "stateMutability": "view",
      "type": "function"
    },
    {
      "inputs": [
        {
          "internalType": "uint256",
          "name": "listingId",
          "type": "uint256"
        }
      ],
      "name": "fetchOfferDetails",
      "outputs": [
        {
          "components": [
            {
              "internalType": "uint256",
              "name": "expirationTime",
              "type": "uint256"
            },
            {
              "internalType": "address payable",
              "name": "legendOwner",
              "type": "address"
            },
            {
              "internalType": "bool",
              "name": "isAccepted",
              "type": "bool"
            }
          ],
          "internalType": "struct LegendSale.OfferDetails",
          "name": "",
          "type": "tuple"
        }
      ],
      "stateMutability": "view",
      "type": "function"
    },
    {
      "inputs": [
        {
          "internalType": "address",
          "name": "payee",
          "type": "address"
        }
      ],
      "name": "fetchPaymentsPending",
      "outputs": [
        {
          "internalType": "uint256",
          "name": "",
          "type": "uint256"
        }
      ],
      "stateMutability": "view",
      "type": "function"
    },
    {
      "inputs": [
        {
          "internalType": "address",
          "name": "payee",
          "type": "address"
        }
      ],
      "name": "fetchRoyaltiesAccrued",
      "outputs": [
        {
          "internalType": "uint256",
          "name": "",
          "type": "uint256"
        }
      ],
      "stateMutability": "view",
      "type": "function"
    },
    {
      "inputs": [
        {
          "internalType": "uint256",
          "name": "listingId",
          "type": "uint256"
        },
        {
          "internalType": "address",
          "name": "bidder",
          "type": "address"
        }
      ],
      "name": "isBidWithdrawable",
      "outputs": [
        {
          "internalType": "bool",
          "name": "",
          "type": "bool"
        }
      ],
      "stateMutability": "view",
      "type": "function"
    },
    {
      "inputs": [
        {
          "internalType": "uint256",
          "name": "listingId",
          "type": "uint256"
        }
      ],
      "name": "isExpired",
      "outputs": [
        {
          "internalType": "bool",
          "name": "",
          "type": "bool"
        }
      ],
      "stateMutability": "view",
      "type": "function"
    },
    {
      "inputs": [
        {
          "internalType": "address",
          "name": "nftContract",
          "type": "address"
        },
        {
          "internalType": "uint256",
          "name": "legendId",
          "type": "uint256"
        }
      ],
      "name": "makeLegendOffer",
      "outputs": [],
      "stateMutability": "payable",
      "type": "function"
    },
    {
      "inputs": [
        {
          "internalType": "uint256",
          "name": "listingId",
          "type": "uint256"
        }
      ],
      "name": "placeBid",
      "outputs": [],
      "stateMutability": "payable",
      "type": "function"
    },
    {
      "inputs": [
        {
          "internalType": "uint256",
          "name": "listingId",
          "type": "uint256"
        }
      ],
      "name": "refundBid",
      "outputs": [],
      "stateMutability": "payable",
      "type": "function"
    },
    {
      "inputs": [
        {
          "internalType": "uint256[3]",
          "name": "newAuctionDurations",
          "type": "uint256[3]"
        }
      ],
      "name": "setAuctionDurations",
      "outputs": [],
      "stateMutability": "nonpayable",
      "type": "function"
    },
    {
      "inputs": [
        {
          "internalType": "uint256",
          "name": "marketplaceRule",
          "type": "uint256"
        },
        {
          "internalType": "uint256",
          "name": "newRuleData",
          "type": "uint256"
        }
      ],
      "name": "setMarketplaceRule",
      "outputs": [],
      "stateMutability": "nonpayable",
      "type": "function"
    },
    {
      "inputs": [],
      "name": "withdrawMarketplaceFees",
      "outputs": [],
      "stateMutability": "nonpayable",
      "type": "function"
    }
  ],
  "bytecode": "0x6206978060038181556101006040526203f48060a090815260c09290925262093a8060e0526200003291600791620000ac565b50610258600a55600260125560026013553480156200005057600080fd5b506040516200005f90620000f6565b604051809103906000f0801580156200007c573d6000803e3d6000fd5b5060601b6001600160601b031916608052600160105560118054336001600160a01b03199091161790556200011b565b8260038101928215620000e4579160200282015b82811115620000e4578251829062ffffff16905591602001919060010190620000c0565b50620000f292915062000104565b5090565b610d19806200376d83390190565b5b80821115620000f2576000815560010162000105565b60805160601c6135fb620001726000396000818161082f01528181610db9015281816121e201528181612675015281816127250152818161285c01528181612b2e0152818161301701526130c901526135fb6000f3fe6080604052600436106101a15760003560e01c806370d59e91116100e1578063b54babda1161008a578063d3e88c5f11610064578063d3e88c5f1461053a578063d9548e531461055a578063e5a255cb1461058a578063fbc8e19d1461059d57600080fd5b8063b54babda146104a0578063c11f1f8e146104c0578063c63e927a1461050d57600080fd5b80639979ef45116100bb5780639979ef451461040d5780639c1ecb5114610420578063b1e95dbe1461048d57600080fd5b806370d59e91146103ba5780638ada7716146103cd5780638ba9458f146103ed57600080fd5b8063340d3b501161014e5780634a3f133e116101285780634a3f133e146102c95780635ac10dc8146102d157806363d3a813146103145780636df49b911461038d57600080fd5b8063340d3b5014610263578063443af2ba1461028357806345480859146102a357600080fd5b80632a25194f1161017f5780632a25194f1461020e5780633244cce81461022357806333ca8a461461024357600080fd5b80631837e533146101a65780631f282bac146101c857806326d29ce0146101fb575b600080fd5b3480156101b257600080fd5b506101c66101c136600461326c565b6105e3565b005b3480156101d457600080fd5b506101e86101e33660046131d5565b6107f4565b6040519081526020015b60405180910390f35b6101c66102093660046132f1565b6108b2565b34801561021a57600080fd5b506101c6610942565b34801561022f57600080fd5b506101c661023e366004613350565b610964565b34801561024f57600080fd5b506101c661025e366004613374565b610d24565b34801561026f57600080fd5b506101e861027e366004613321565b610d77565b34801561028f57600080fd5b506101c661029e3660046132af565b610e3c565b3480156102af57600080fd5b506102b8610e60565b6040516101f29594939291906134ca565b6101c6610ec1565b3480156102dd57600080fd5b506102f16102ec3660046132f1565b610f39565b604080519384526001600160a01b039092166020840152908201526060016101f2565b34801561032057600080fd5b50610371604080516020808201835260009182905282518082018452829052825180820184528290528251808201845291548252825180820184526001548152835191820190935260025481529092565b60408051935184529151602084015251908201526060016101f2565b34801561039957600080fd5b506103ad6103a83660046132f1565b611163565b6040516101f291906133b7565b6101c66103c83660046132f1565b6111ee565b3480156103d957600080fd5b506101c66103e8366004613238565b611414565b3480156103f957600080fd5b506101c66104083660046132f1565b6116cf565b6101c661041b3660046132f1565b611970565b34801561042c57600080fd5b5061044061043b3660046132f1565b611c90565b6040516101f29190600060a0820190508251825260208301516020830152604083015160408301526001600160a01b03606084015116606083015260808301511515608083015292915050565b6101c661049b36600461320d565b611d4b565b3480156104ac57600080fd5b506101e86104bb3660046132f1565b611f4c565b3480156104cc57600080fd5b506104e06104db3660046132f1565b611f84565b60408051825181526020808401516001600160a01b031690820152918101511515908201526060016101f2565b34801561051957600080fd5b5061052d6105283660046132f1565b612011565b6040516101f29190613412565b34801561054657600080fd5b506101e86105553660046131d5565b6121a7565b34801561056657600080fd5b5061057a6105753660046132f1565b612213565b60405190151581526020016101f2565b6101c66105983660046132f1565b612254565b3480156105a957600080fd5b5061057a6105b8366004613321565b6000918252600f602090815260408084206001600160a01b0393909316845291905290205460ff1690565b6002601054141561063b5760405162461bcd60e51b815260206004820152601f60248201527f5265656e7472616e637947756172643a207265656e7472616e742063616c6c0060448201526064015b60405180910390fd5b60026010556011546040517f99ea58440000000000000000000000000000000000000000000000000000000081526004810186905286916001600160a01b0316906399ea58449060240160206040518083038186803b15801561069d57600080fd5b505afa1580156106b1573d6000803e3d6000fd5b505050506040513d601f19601f820116820180604052508101906106d591906132d5565b6106de57600080fd5b826106e857600080fd5b81156106fa578282116106fa57600080fd5b600384111561074b5760405162461bcd60e51b815260206004820152601960248201527f4475726174696f6e20496e64657820497320496e76616c6964000000000000006044820152606401610632565b60006007856003811061076e57634e487b7160e01b600052603260045260246000fd5b01546040516323b872dd60e01b8152336004820152306024820152604481018890529091506001600160a01b038316906323b872dd90606401600060405180830381600087803b1580156107c157600080fd5b505af11580156107d5573d6000803e3d6000fd5b505050506107e68787838787612510565b505060016010555050505050565b6040517f1f282bac0000000000000000000000000000000000000000000000000000000081526001600160a01b0382811660048301526000917f000000000000000000000000000000000000000000000000000000000000000090911690631f282bac906024015b60206040518083038186803b15801561087457600080fd5b505afa158015610888573d6000803e3d6000fd5b505050506040513d601f19601f820116820180604052508101906108ac9190613309565b92915050565b600260105414156109055760405162461bcd60e51b815260206004820152601f60248201527f5265656e7472616e637947756172643a207265656e7472616e742063616c6c006044820152606401610632565b60026010556000818152600f6020908152604080832033845290915290205460ff1661093057600080fd5b61093a8133612636565b506001601055565b6011546001600160a01b0316331461095957600080fd5b610962306126d6565b565b600260105414156109b75760405162461bcd60e51b815260206004820152601f60248201527f5265656e7472616e637947756172643a207265656e7472616e742063616c6c006044820152606401610632565b60026010819055600083815260046020818152604080842081516101408101835281548152600182015493810193909352948501546001600160a01b03908116918301919091526003808601546060840152928501548116608083015260058501541660a0820152600684015460c0820152600784015460ff808216151560e084015261010080830482161515908401529394919391926101208501926201000090920490911690811115610a7c57634e487b7160e01b600052602160045260246000fd5b6003811115610a9b57634e487b7160e01b600052602160045260246000fd5b905250604081015190915060018261012001516003811115610acd57634e487b7160e01b600052602160045260246000fd5b14610ad757600080fd5b6000848152600560205260409020544210610b345760405162461bcd60e51b815260206004820152601960248201527f4f666665722048617320416c72656164792045787069726564000000000000006044820152606401610632565b60608201516040516331a9108f60e11b815260048101919091526001600160a01b03821690636352211e9060240160206040518083038186803b158015610b7a57600080fd5b505afa158015610b8e573d6000803e3d6000fd5b505050506040513d601f19601f82011682018060405250810190610bb291906131f1565b6001600160a01b0316336001600160a01b0316148015610beb57506000848152600560205260409020600101546001600160a01b031633145b610c375760405162461bcd60e51b815260206004820152601860248201527f4c6567656e64204f776e657220486173204368616e67656400000000000000006044820152606401610632565b610c418484612754565b8215610cb85760608201516040516323b872dd60e01b815233600482015230602482015260448101919091526001600160a01b038216906323b872dd90606401600060405180830381600087803b158015610c9b57600080fd5b505af1158015610caf573d6000803e3d6000fd5b50505050610cea565b6000848152600f6020908152604080832060a08601516001600160a01b031684529091529020805460ff191660011790555b6040518315159085907fbe84c08cacf7be329858d01a82d1e99b4e5a8f9a9df7a04b16c1f070e449b49990600090a3505060016010555050565b6011546001600160a01b03163314610d3b57600080fd5b81610d465760125550565b8160011415610d555760135550565b8160021415610d645760035550565b8160031415610d7357600a8190555b5050565b6040517f340d3b50000000000000000000000000000000000000000000000000000000008152600481018390526001600160a01b0382811660248301526000917f00000000000000000000000000000000000000000000000000000000000000009091169063340d3b509060440160206040518083038186803b158015610dfd57600080fd5b505afa158015610e11573d6000803e3d6000fd5b505050506040513d601f19601f82011682018060405250810190610e359190613309565b9392505050565b6011546001600160a01b03163314610e5357600080fd5b610d736007826003613164565b600080600080610e6e6131a2565b60125460135460038054600a5460408051606081019182905292939192600792909183919082845b815481526020019060010190808311610e965750505050509050945094509450945094509091929394565b60026010541415610f145760405162461bcd60e51b815260206004820152601f60248201527f5265656e7472616e637947756172643a207265656e7472616e742063616c6c006044820152606401610632565b60026010556000610f24336121a7565b905080610f3057600080fd5b61093a33612824565b60008181526004602081815260408084208151610140810183528154815260018201549381019390935260028101546001600160a01b039081169284019290925260038082015460608501529381015482166080840152600581015490911660a0830152600681015460c0830152600781015460ff808216151560e0850152610100808304821615159085015285948594859490939092610120850192620100009092041690811115610ffc57634e487b7160e01b600052602160045260246000fd5b600381111561101b57634e487b7160e01b600052602160045260246000fd5b815250509050600060646013548360c001516110379190613553565b6110419190613533565b60115460608401516040517fea832ddd0000000000000000000000000000000000000000000000000000000081529293506000926001600160a01b039092169163ea832ddd916110979160040190815260200190565b60206040518083038186803b1580156110af57600080fd5b505afa1580156110c3573d6000803e3d6000fd5b505050506040513d601f19601f820116820180604052508101906110e791906131f1565b905060006001600160a01b038216156111555783608001516001600160a01b0316826001600160a01b031614611155578360a001516001600160a01b0316826001600160a01b0316146111555760646012548560c001516111489190613553565b6111529190613533565b90505b919790965090945092505050565b60008181526004602052604090206007015460609060ff1661118457600080fd5b6000828152600d6020908152604091829020805483518184028101840190945280845290918301828280156111e257602002820191906000526020600020905b81546001600160a01b031681526001909101906020018083116111c4575b50505050509050919050565b600260105414156112415760405162461bcd60e51b815260206004820152601f60248201527f5265656e7472616e637947756172643a207265656e7472616e742063616c6c006044820152606401610632565b60026010819055600082815260046020818152604080842081516101408101835281548152600182015493810193909352948501546001600160a01b03908116918301919091526003808601546060840152928501548116608083015260058501541660a0820152600684015460c0820152600784015460ff808216151560e08401526101008083048216151590840152939491939192610120850192620100009092049091169081111561130657634e487b7160e01b600052602160045260246000fd5b600381111561132557634e487b7160e01b600052602160045260246000fd5b90525090506001816101200151600381111561135157634e487b7160e01b600052602160045260246000fd5b1461135b57600080fd5b80608001516001600160a01b0316336001600160a01b0316141561137e57600080fd5b8060c0015134146113f75760405162461bcd60e51b815260206004820152602560248201527f496e636f7272656374205072696365205375626d697474656420466f72204c6960448201527f7374696e670000000000000000000000000000000000000000000000000000006064820152608401610632565b6114028260006128bb565b61140b8261292d565b50506001601055565b600260105414156114675760405162461bcd60e51b815260206004820152601f60248201527f5265656e7472616e637947756172643a207265656e7472616e742063616c6c006044820152606401610632565b60026010556040516331a9108f60e11b815260048101839052839033906001600160a01b03831690636352211e9060240160206040518083038186803b1580156114b057600080fd5b505afa1580156114c4573d6000803e3d6000fd5b505050506040513d601f19601f820116820180604052508101906114e891906131f1565b6001600160a01b03161461153e5760405162461bcd60e51b815260206004820152600660248201527f6f776e74727300000000000000000000000000000000000000000000000000006044820152606401610632565b60115460405163ced3e3f160e01b8152600481018590526001600160a01b039091169063ced3e3f19060240160206040518083038186803b15801561158257600080fd5b505afa158015611596573d6000803e3d6000fd5b505050506040513d601f19601f820116820180604052508101906115ba91906132d5565b6116065760405162461bcd60e51b815260206004820152600b60248201527f4e6f7420486174636865640000000000000000000000000000000000000000006044820152606401610632565b816116535760405162461bcd60e51b815260206004820152601260248201527f50726963652063616e206e6f74206265203000000000000000000000000000006044820152606401610632565b6040516323b872dd60e01b8152336004820152306024820152604481018490526001600160a01b038216906323b872dd90606401600060405180830381600087803b1580156116a157600080fd5b505af11580156116b5573d6000803e3d6000fd5b505050506116c48484846129c1565b505060016010555050565b600260105414156117225760405162461bcd60e51b815260206004820152601f60248201527f5265656e7472616e637947756172643a207265656e7472616e742063616c6c006044820152606401610632565b60026010819055600082815260046020818152604080842081516101408101835281548152600182015493810193909352948501546001600160a01b03908116918301919091526003808601546060840152928501548116608083015260058501541660a0820152600684015460c0820152600784015460ff808216151560e0840152610100808304821615159084015293949193919261012085019262010000909204909116908111156117e757634e487b7160e01b600052602160045260246000fd5b600381111561180657634e487b7160e01b600052602160045260246000fd5b90525090506001816101200151600381111561183257634e487b7160e01b600052602160045260246000fd5b1461183c57600080fd5b8061010001511561186e578060a001516001600160a01b0316336001600160a01b03161461186957600080fd5b611890565b80608001516001600160a01b0316336001600160a01b03161461189057600080fd5b8060e00151156118b3576000828152600d6020526040902054156118b357600080fd5b6118bc82612a8a565b806101000151156118f0576000828152600f602090815260408083203384529091529020805460ff1916600117905561140b565b6040808201516080830151606084015192516323b872dd60e01b81523060048201526001600160a01b039182166024820152604481019390935216906323b872dd90606401600060405180830381600087803b15801561194f57600080fd5b505af1158015611963573d6000803e3d6000fd5b5050505050506001601055565b600260105414156119c35760405162461bcd60e51b815260206004820152601f60248201527f5265656e7472616e637947756172643a207265656e7472616e742063616c6c006044820152606401610632565b60026010556000818152600460209081526040808320600b9092529091206001600783015462010000900460ff166003811115611a1057634e487b7160e01b600052602160045260246000fd5b14611a1a57600080fd5b611a2383612213565b15611a705760405162461bcd60e51b815260206004820152601b60248201527f41756374696f6e2048617320416c7265616479204578706972656400000000006044820152606401610632565b60048201546001600160a01b0316331415611af35760405162461bcd60e51b815260206004820152602160248201527f53656c6c65722043616e204e6f7420426964204f6e204f776e204c697374696e60448201527f67000000000000000000000000000000000000000000000000000000000000006064820152608401610632565b6000611aff8433610d77565b6000858152600d6020526040902054909150611b6e578160010154341015611b695760405162461bcd60e51b815260206004820152601460248201527f5374617274696e6720426964204e6f74204d65740000000000000000000000006044820152606401610632565b611bf4565b6000848152600b60205260409020600201548111611bf45760405162461bcd60e51b815260206004820152602360248201527f426964206d75737420626520686967686572207468616e2063757272656e742060448201527f62696400000000000000000000000000000000000000000000000000000000006064820152608401610632565b6000848152600f60209081526040808320338085529252909120805460ff19169055611c239034908690612aef565b6000848152600f6020908152604080832060038601546001600160a01b031684529091529020805460ff19166001179055611c5e8482612b91565b6003820154600160a01b900460ff16156116c4576000848152600c602052604090205481106116c4576116c484612c99565b611ccd6040518060a0016040528060008152602001600081526020016000815260200160006001600160a01b031681526020016000151581525090565b60008281526004602052604090206007015460ff16611ceb57600080fd5b506000908152600b6020908152604091829020825160a081018452815481526001820154928101929092526002810154928201929092526003909101546001600160a01b0381166060830152600160a01b900460ff161515608082015290565b60026010541415611d9e5760405162461bcd60e51b815260206004820152601f60248201527f5265656e7472616e637947756172643a207265656e7472616e742063616c6c006044820152606401610632565b60026010556040516331a9108f60e11b81526004810182905282906000906001600160a01b03831690636352211e9060240160206040518083038186803b158015611de857600080fd5b505afa158015611dfc573d6000803e3d6000fd5b505050506040513d601f19601f82011682018060405250810190611e2091906131f1565b9050336001600160a01b0382161415611e3857600080fd5b60115460405163ced3e3f160e01b8152600481018590526001600160a01b039091169063ced3e3f19060240160206040518083038186803b158015611e7c57600080fd5b505afa158015611e90573d6000803e3d6000fd5b505050506040513d601f19601f82011682018060405250810190611eb491906132d5565b611ebd57600080fd5b34611ec757600080fd5b6000611ed4858386612d4a565b6000818152600f60209081526040808320338085529252909120805460ff19169055909150611f069034908390612aef565b807f6d13017ad90cf7d9f398b5753f263aa0ddf37bacd59019879304f9fa0213077434604051611f3891815260200190565b60405180910390a250506001601055505050565b6000818152600b6020526040812060030154600160a01b900460ff16611f7157600080fd5b506000908152600c602052604090205490565b6040805160608101825260008082526020820181905291810191909152600082815260046020526040902060070154610100900460ff16611fc457600080fd5b506000908152600560209081526040918290208251606081018452815481526001909101546001600160a01b03811692820192909252600160a01b90910460ff1615159181019190915290565b6120666040805161014081018252600080825260208201819052918101829052606081018290526080810182905260a0810182905260c0810182905260e0810182905261010081018290529061012082015290565b8161207060005490565b8111156120bf5760405162461bcd60e51b815260206004820152601660248201527f4c697374696e6720446f6573204e6f74204578697374000000000000000000006044820152606401610632565b6000838152600460208181526040928390208351610140810185528154815260018201549281019290925260028101546001600160a01b039081169483019490945260038082015460608401529281015484166080830152600581015490931660a0820152600683015460c0820152600783015460ff808216151560e08401526101008083048216151590840152919392610120850192620100009092049091169081111561217e57634e487b7160e01b600052602160045260246000fd5b600381111561219d57634e487b7160e01b600052602160045260246000fd5b9052509392505050565b6040517fd3e88c5f0000000000000000000000000000000000000000000000000000000081526001600160a01b0382811660048301526000917f00000000000000000000000000000000000000000000000000000000000000009091169063d3e88c5f9060240161085c565b6000818152600b602090815260408083205460049092528220600101548291829161223e919061351b565b90508042111561224d57600191505b5092915050565b600260105414156122a75760405162461bcd60e51b815260206004820152601f60248201527f5265656e7472616e637947756172643a207265656e7472616e742063616c6c006044820152606401610632565b60026010556000818152600460208181526040808420600b909252909220908201546001600160a01b03163314806122eb575060058201546001600160a01b031633145b80612302575060038101546001600160a01b031633145b61234e5760405162461bcd60e51b815260206004820152601c60248201527f43616c6c65722043616e204e6f7420436c6f7365204c697374696e67000000006044820152606401610632565b600782015460ff16156123f3576001600783015462010000900460ff16600381111561238a57634e487b7160e01b600052602160045260246000fd5b14156123ee5761239983612213565b6123e55760405162461bcd60e51b815260206004820152601b60248201527f41756374696f6e20486173204e6f7420596574204578706972656400000000006044820152606401610632565b6123ee83612c99565b61242c565b6002600783015462010000900460ff16600381111561242257634e487b7160e01b600052602160045260246000fd5b1461242c57600080fd5b600782015460ff168061244857506007820154610100900460ff165b1561248a5760008381526014602052604090205460ff1661248a576000838152601460205260409020805460ff1916600190811790915561248a9084906128bb565b60048201546001600160a01b03163314156124bb5760048201546124b6906001600160a01b03166126d6565b6124d9565b60058201546001600160a01b03163314156124d9576124d983612e0e565b604051339084907f4100f70c133e1c4066c72b21f815cec87ab6d5f89acabf924ca488d47c08bf7b90600090a35050600160105550565b61251e600080546001019055565b6000805490821561253e57506000818152600c6020526040902082905560015b6000828152600460208190526040909120838155426001808301919091556002820180546001600160a01b038c166001600160a01b031991821617909155600383018a9055928201805484163317905560058201805490931690925560078101805460ff1981168417825591929162ff00ff19168217620100008302179055506000838152600b602052604090819020878155600180820188905560038201805460ff60a01b1916600160a01b871515021790559151909185917fab8013f69383454f861c325aa79a70266ccaf52ad8683c842832a8df74c57a259161262391613404565b60405180910390a2505050505050505050565b6040517f03073828000000000000000000000000000000000000000000000000000000008152600481018390526001600160a01b0382811660248301527f000000000000000000000000000000000000000000000000000000000000000016906303073828906044015b600060405180830381600087803b1580156126ba57600080fd5b505af11580156126ce573d6000803e3d6000fd5b505050505050565b60006126e1826107f4565b9050806126ed57600080fd5b6040517f31b3eb940000000000000000000000000000000000000000000000000000000081526001600160a01b0383811660048301527f000000000000000000000000000000000000000000000000000000000000000016906331b3eb94906024016126a0565b600082815260046020526040902081156127e85760078101805462ff00001916620200001790556004810180546001600160a01b0319163317905560009283526005602081815260408086206001908101805460ff60a01b1916600160a01b17905560038501546006845282882094909501546001600160a01b03168752929091529093205550805481019055565b505050565b600701805462ff00001916620300001790555060009081526005602052604090206001908101805460ff60a01b19169055600280549091019055565b6040517f968db7830000000000000000000000000000000000000000000000000000000081526001600160a01b0382811660048301527f0000000000000000000000000000000000000000000000000000000000000000169063968db78390602401600060405180830381600087803b1580156128a057600080fd5b505af11580156128b4573d6000803e3d6000fd5b5050505050565b60008281526004602052604081209080806128d586610f39565b925092509250841561290e57600584015460048501546129099188916001600160a01b039182169187918691889116612fba565b6126ce565b60048401546126ce9034908590849086906001600160a01b031661307b565b600081815260046020908152604080832060078101805462ff00001916620200001790556005810180546001600160a01b0319163390811790915560038201546006855283862091865293529220556001805481019055817fab8013f69383454f861c325aa79a70266ccaf52ad8683c842832a8df74c57a2560026040516129b59190613404565b60405180910390a25050565b6129cf600080546001019055565b6000805480825260046020819052604092839020828155426001808301919091556002820180546001600160a01b038a166001600160a01b0319918216179091556003830188905592820180548416331790556005820180549093169092556006810185905560078101805462ff0000191662010000179055925191929183917fab8013f69383454f861c325aa79a70266ccaf52ad8683c842832a8df74c57a2591612a7b9190613404565b60405180910390a25050505050565b6000818152600460205260409020600701805462ff0000191662030000179055600280546001019055807fab8013f69383454f861c325aa79a70266ccaf52ad8683c842832a8df74c57a256003604051612ae49190613404565b60405180910390a250565b6040517f7c9fe43a000000000000000000000000000000000000000000000000000000008152600481018390526001600160a01b0382811660248301527f00000000000000000000000000000000000000000000000000000000000000001690637c9fe43a9085906044016000604051808303818588803b158015612b7357600080fd5b505af1158015612b87573d6000803e3d6000fd5b5050505050505050565b6000828152600b60209081526040808320600e83528184203385529092529091205460ff16612c0d576000838152600d602090815260408083208054600181810183559185528385200180546001600160a01b03191633908117909155878552600e8452828520908552909252909120805460ff191690911790555b600281018290556003810180546001600160a01b03191633179055612c318361310e565b156127e3576000838152600c60205260409020548210156127e357600a548154612c5b919061351b565b80825560405190815283907f6e912a3a9105bdd2af817ba5adc14e6c127c1035b5b648faa29ca0d58ab8ff4e906020015b60405180910390a2505050565b6000818152600460209081526040808320600b8352818420600380820180546005850180546001600160a01b0319166001600160a01b03928316179055600284015460068087019190915560078601805462ff000019166202000017905592850154928752858820915416875290945291909320919091556001805481019055827fab8013f69383454f861c325aa79a70266ccaf52ad8683c842832a8df74c57a256002604051612c8c9190613404565b600080546001908101808355808352600460208181526040808620848155429581018690556002810180546001600160a01b038c166001600160a01b03199182161790915560038083018a9055948201805482169055600580830180549092163317909155346006830181905560078301805462ffff001916620101001790559352908620925493949193909291612de2919061351b565b815560010180546001600160a01b0388166001600160a01b031990911617905550909150509392505050565b60008181526004602081815260408084208151610140810183528154815260018201549381019390935260028101546001600160a01b039081169284019290925260038082015460608501529381015482166080840152600581015490911660a0830152600681015460c0830152600781015460ff808216151560e0850152610100808304821615159085015292939192610120850192620100009092041690811115612ecb57634e487b7160e01b600052602160045260246000fd5b6003811115612eea57634e487b7160e01b600052602160045260246000fd5b905250600083815260066020908152604080832060a08501516001600160a01b0316845290915290205490915080612f2157600080fd5b600083815260066020908152604080832060a0860180516001600160a01b039081168652919093528184209390935584810151915190516323b872dd60e01b81523060048201529083166024820152604481018490529116906323b872dd90606401600060405180830381600087803b158015612f9d57600080fd5b505af1158015612fb1573d6000803e3d6000fd5b50505050505050565b6040517f2408c803000000000000000000000000000000000000000000000000000000008152600481018790526001600160a01b0386811660248301526044820186905260648201859052838116608483015282811660a48301527f00000000000000000000000000000000000000000000000000000000000000001690632408c8039060c401600060405180830381600087803b15801561305b57600080fd5b505af115801561306f573d6000803e3d6000fd5b50505050505050505050565b6040517f1ca44e9500000000000000000000000000000000000000000000000000000000815260048101859052602481018490526001600160a01b03838116604483015282811660648301527f00000000000000000000000000000000000000000000000000000000000000001690631ca44e959087906084016000604051808303818588803b15801561305b57600080fd5b6000818152600b6020908152604080832054600490925282206001015482918291613139919061351b565b905080421080156131555750600a546131529082613572565b42115b1561224d575060019392505050565b8260038101928215613192579160200282015b82811115613192578235825591602001919060010190613177565b5061319e9291506131c0565b5090565b60405180606001604052806003906020820280368337509192915050565b5b8082111561319e57600081556001016131c1565b6000602082840312156131e6578081fd5b8135610e358161359f565b600060208284031215613202578081fd5b8151610e358161359f565b6000806040838503121561321f578081fd5b823561322a8161359f565b946020939093013593505050565b60008060006060848603121561324c578081fd5b83356132578161359f565b95602085013595506040909401359392505050565b600080600080600060a08688031215613283578081fd5b853561328e8161359f565b97602087013597506040870135966060810135965060800135945092505050565b6000606082840312156132c0578081fd5b826060830111156132cf578081fd5b50919050565b6000602082840312156132e6578081fd5b8151610e35816135b7565b600060208284031215613302578081fd5b5035919050565b60006020828403121561331a578081fd5b5051919050565b60008060408385031215613333578182fd5b8235915060208301356133458161359f565b809150509250929050565b60008060408385031215613362578182fd5b823591506020830135613345816135b7565b60008060408385031215613386578182fd5b50508035926020909101359150565b600481106133b357634e487b7160e01b600052602160045260246000fd5b9052565b6020808252825182820181905260009190848201906040850190845b818110156133f85783516001600160a01b0316835292840192918401916001016133d3565b50909695505050505050565b602081016108ac8284613395565b6000610140820190508251825260208301516020830152604083015161344360408401826001600160a01b03169052565b5060608301516060830152608083015161346860808401826001600160a01b03169052565b5060a083015161348360a08401826001600160a01b03169052565b5060c083015160c083015260e08301516134a160e084018215159052565b5061010083810151151590830152610120808401516134c282850182613395565b505092915050565b600060e08201905086825260208681840152856040840152846060840152608083018460005b600381101561350d578151835291830191908301906001016134f0565b505050509695505050505050565b6000821982111561352e5761352e613589565b500190565b60008261354e57634e487b7160e01b81526012600452602481fd5b500490565b600081600019048311821515161561356d5761356d613589565b500290565b60008282101561358457613584613589565b500390565b634e487b7160e01b600052601160045260246000fd5b6001600160a01b03811681146135b457600080fd5b50565b80151581146135b457600080fdfea2646970667358221220af05cc26bb9e6ee44b1bdada7cf055a5f52fabce09c507121832c4e2eacfda3064736f6c63430008040033608060405234801561001057600080fd5b5061001a33610031565b600180546001600160a01b03191633179055610081565b600080546001600160a01b038381166001600160a01b0319831681178455604051919092169283917f8be0079c531659141344cd1fd0a4f28419497f9722a3daafe3b4186f6b6457e09190a35050565b610c89806100906000396000f3fe6080604052600436106100c75760003560e01c8063715018a611610074578063968db7831161004e578063968db78314610210578063d3e88c5f14610230578063f2fde38b1461026657600080fd5b8063715018a6146101c05780637c9fe43a146101d55780638da5cb5b146101e857600080fd5b80632408c803116100a55780632408c8031461013d57806331b3eb941461015d578063340d3b501461017d57600080fd5b806303073828146100cc5780631ca44e95146100e15780631f282bac146100f4575b600080fd5b6100df6100da366004610b1f565b610286565b005b6100df6100ef366004610b97565b610353565b34801561010057600080fd5b5061012a61010f366004610acd565b6001600160a01b031660009081526002602052604090205490565b6040519081526020015b60405180910390f35b34801561014957600080fd5b506100df610158366004610b31565b61049d565b34801561016957600080fd5b506100df610178366004610acd565b6105a9565b34801561018957600080fd5b5061012a610198366004610af0565b60009182526003602090815260408084206001600160a01b0393909316845291905290205490565b3480156101cc57600080fd5b506100df610672565b6100df6101e3366004610af0565b6106d8565b3480156101f457600080fd5b506000546040516001600160a01b039091168152602001610134565b34801561021c57600080fd5b506100df61022b366004610acd565b6107a8565b34801561023c57600080fd5b5061012a61024b366004610acd565b6001600160a01b031660009081526004602052604090205490565b34801561027257600080fd5b506100df610281366004610acd565b610865565b6000546001600160a01b031633146102e55760405162461bcd60e51b815260206004820181905260248201527f4f776e61626c653a2063616c6c6572206973206e6f7420746865206f776e657260448201526064015b60405180910390fd5b60008281526003602090815260408083206001600160a01b0385168085529252822080549290556103169082610947565b604051818152339084907fa59312996dc68b7f0224b341fed75d5afeb3bb20624107d37942d14f59428156906020015b60405180910390a3505050565b6000546001600160a01b031633146103ad5760405162461bcd60e51b815260206004820181905260248201527f4f776e61626c653a2063616c6c6572206973206e6f7420746865206f776e657260448201526064016102dc565b6001546001600160a01b0316600090815260026020526040812080548692906103d7908490610be0565b90915550508215610410576001600160a01b0382166000908152600460205260408120805485929061040a908490610be0565b90915550505b600061041c8486610be0565b6104269034610bf8565b6001600160a01b038316600090815260026020526040812080549293508392909190610453908490610be0565b90915550506040518181526001600160a01b038316907fd348a8f42fae8db1d0030271b37ed6d94a5e292ff36db57b244ffe13f494dd459060200160405180910390a25050505050565b6000546001600160a01b031633146104f75760405162461bcd60e51b815260206004820181905260248201527f4f776e61626c653a2063616c6c6572206973206e6f7420746865206f776e657260448201526064016102dc565b60008681526003602090815260408083206001600160a01b03898116855292528083208054939055517f1ca44e950000000000000000000000000000000000000000000000000000000081526004810187905260248101869052848216604482015290831660648201523090631ca44e959083906084016000604051808303818588803b15801561058757600080fd5b505af115801561059b573d6000803e3d6000fd5b505050505050505050505050565b6000546001600160a01b031633146106035760405162461bcd60e51b815260206004820181905260248201527f4f776e61626c653a2063616c6c6572206973206e6f7420746865206f776e657260448201526064016102dc565b6001600160a01b038116600081815260026020526040812080549190559061062b9082610947565b816001600160a01b03167fd8102a2d73a808d6664a3116966c123291d07ec500edf12e27ee919d7b81bd3c8260405161066691815260200190565b60405180910390a25050565b6000546001600160a01b031633146106cc5760405162461bcd60e51b815260206004820181905260248201527f4f776e61626c653a2063616c6c6572206973206e6f7420746865206f776e657260448201526064016102dc565b6106d66000610a65565b565b6000546001600160a01b031633146107325760405162461bcd60e51b815260206004820181905260248201527f4f776e61626c653a2063616c6c6572206973206e6f7420746865206f776e657260448201526064016102dc565b60008281526003602090815260408083206001600160a01b0385168452909152812080543492839291610766908490610be0565b90915550506040518181526001600160a01b0383169084907f0e54eff26401bf69b81b26f60bd85ef47f5d85275c1d268d84f68d6897431c4790602001610346565b6000546001600160a01b031633146108025760405162461bcd60e51b815260206004820181905260248201527f4f776e61626c653a2063616c6c6572206973206e6f7420746865206f776e657260448201526064016102dc565b6001600160a01b038116600081815260046020526040812080549190559061082a9082610947565b816001600160a01b03167f312b70e5726648ad7ab64374bb491934c2732cfb4f8c285ea2c1bbe4fa07f3db8260405161066691815260200190565b6000546001600160a01b031633146108bf5760405162461bcd60e51b815260206004820181905260248201527f4f776e61626c653a2063616c6c6572206973206e6f7420746865206f776e657260448201526064016102dc565b6001600160a01b03811661093b5760405162461bcd60e51b815260206004820152602660248201527f4f776e61626c653a206e6577206f776e657220697320746865207a65726f206160448201527f646472657373000000000000000000000000000000000000000000000000000060648201526084016102dc565b61094481610a65565b50565b804710156109975760405162461bcd60e51b815260206004820152601d60248201527f416464726573733a20696e73756666696369656e742062616c616e636500000060448201526064016102dc565b6000826001600160a01b03168260405160006040518083038185875af1925050503d80600081146109e4576040519150601f19603f3d011682016040523d82523d6000602084013e6109e9565b606091505b5050905080610a605760405162461bcd60e51b815260206004820152603a60248201527f416464726573733a20756e61626c6520746f2073656e642076616c75652c207260448201527f6563697069656e74206d6179206861766520726576657274656400000000000060648201526084016102dc565b505050565b600080546001600160a01b038381167fffffffffffffffffffffffff0000000000000000000000000000000000000000831681178455604051919092169283917f8be0079c531659141344cd1fd0a4f28419497f9722a3daafe3b4186f6b6457e09190a35050565b600060208284031215610ade578081fd5b8135610ae981610c3e565b9392505050565b60008060408385031215610b02578081fd5b823591506020830135610b1481610c3e565b809150509250929050565b60008060408385031215610b02578182fd5b60008060008060008060c08789031215610b49578182fd5b863595506020870135610b5b81610c3e565b945060408701359350606087013592506080870135610b7981610c3e565b915060a0870135610b8981610c3e565b809150509295509295509295565b60008060008060808587031215610bac578384fd5b84359350602085013592506040850135610bc581610c3e565b91506060850135610bd581610c3e565b939692955090935050565b60008219821115610bf357610bf3610c0f565b500190565b600082821015610c0a57610c0a610c0f565b500390565b7f4e487b7100000000000000000000000000000000000000000000000000000000600052601160045260246000fd5b6001600160a01b038116811461094457600080fdfea264697066735822122030936803e212f625bdb1fb4cc8327a465f443ab4fc87db6df72ced3bf926b35764736f6c63430008040033",
  "linkReferences": {},
  "deployedLinkReferences": {}
}