{
  "_format": "hh-sol-artifact-1",
  "contractName": "LegendsLaboratory",
  "sourceName": "contracts/lab/LegendsLaboratory.sol",
  "abi": [
    {
      "inputs": [],
      "stateMutability": "nonpayable",
      "type": "constructor"
    },
    {
      "anonymous": false,
      "inputs": [
        {
          "indexed": true,
          "internalType": "uint256",
          "name": "legendId",
          "type": "uint256"
        },
        {
          "indexed": false,
          "internalType": "uint256",
          "name": "reportCount",
          "type": "uint256"
        }
      ],
      "name": "NameReported",
      "type": "event"
    },
    {
      "anonymous": false,
      "inputs": [
        {
          "indexed": true,
          "internalType": "uint256",
          "name": "promoId",
          "type": "uint256"
        },
        {
          "indexed": false,
          "internalType": "uint256",
          "name": "totalDispensed",
          "type": "uint256"
        },
        {
          "indexed": false,
          "internalType": "uint256",
          "name": "totalRedeemed",
          "type": "uint256"
        }
      ],
      "name": "PromoClosed",
      "type": "event"
    },
    {
      "anonymous": false,
      "inputs": [
        {
          "indexed": true,
          "internalType": "uint256",
          "name": "promoId",
          "type": "uint256"
        },
        {
          "indexed": true,
          "internalType": "string",
          "name": "promoName",
          "type": "string"
        },
        {
          "indexed": false,
          "internalType": "uint256",
          "name": "expireTime",
          "type": "uint256"
        }
      ],
      "name": "PromoCreated",
      "type": "event"
    },
    {
      "anonymous": false,
      "inputs": [
        {
          "indexed": true,
          "internalType": "bytes32",
          "name": "role",
          "type": "bytes32"
        },
        {
          "indexed": true,
          "internalType": "bytes32",
          "name": "previousAdminRole",
          "type": "bytes32"
        },
        {
          "indexed": true,
          "internalType": "bytes32",
          "name": "newAdminRole",
          "type": "bytes32"
        }
      ],
      "name": "RoleAdminChanged",
      "type": "event"
    },
    {
      "anonymous": false,
      "inputs": [
        {
          "indexed": true,
          "internalType": "bytes32",
          "name": "role",
          "type": "bytes32"
        },
        {
          "indexed": true,
          "internalType": "address",
          "name": "account",
          "type": "address"
        },
        {
          "indexed": true,
          "internalType": "address",
          "name": "sender",
          "type": "address"
        }
      ],
      "name": "RoleGranted",
      "type": "event"
    },
    {
      "anonymous": false,
      "inputs": [
        {
          "indexed": true,
          "internalType": "bytes32",
          "name": "role",
          "type": "bytes32"
        },
        {
          "indexed": true,
          "internalType": "address",
          "name": "account",
          "type": "address"
        },
        {
          "indexed": true,
          "internalType": "address",
          "name": "sender",
          "type": "address"
        }
      ],
      "name": "RoleRevoked",
      "type": "event"
    },
    {
      "anonymous": false,
      "inputs": [
        {
          "indexed": true,
          "internalType": "uint256",
          "name": "promoId",
          "type": "uint256"
        },
        {
          "indexed": false,
          "internalType": "uint256",
          "name": "currentDispensed",
          "type": "uint256"
        }
      ],
      "name": "TicketDispensed",
      "type": "event"
    },
    {
      "anonymous": false,
      "inputs": [
        {
          "indexed": true,
          "internalType": "uint256",
          "name": "promoId",
          "type": "uint256"
        },
        {
          "indexed": false,
          "internalType": "uint256",
          "name": "currentRedeemed",
          "type": "uint256"
        }
      ],
      "name": "TicketRedeemed",
      "type": "event"
    },
    {
      "inputs": [],
      "name": "DEFAULT_ADMIN_ROLE",
      "outputs": [
        {
          "internalType": "bytes32",
          "name": "",
          "type": "bytes32"
        }
      ],
      "stateMutability": "view",
      "type": "function"
    },
    {
      "inputs": [],
      "name": "LAB_ADMIN",
      "outputs": [
        {
          "internalType": "bytes32",
          "name": "",
          "type": "bytes32"
        }
      ],
      "stateMutability": "view",
      "type": "function"
    },
    {
      "inputs": [],
      "name": "LAB_TECH",
      "outputs": [
        {
          "internalType": "bytes32",
          "name": "",
          "type": "bytes32"
        }
      ],
      "stateMutability": "view",
      "type": "function"
    },
    {
      "inputs": [
        {
          "internalType": "uint256",
          "name": "promoId",
          "type": "uint256"
        }
      ],
      "name": "closePromoEvent",
      "outputs": [],
      "stateMutability": "nonpayable",
      "type": "function"
    },
    {
      "inputs": [
        {
          "internalType": "string",
          "name": "eventName",
          "type": "string"
        },
        {
          "internalType": "uint256",
          "name": "duration",
          "type": "uint256"
        },
        {
          "internalType": "bool",
          "name": "isUnrestricted",
          "type": "bool"
        },
        {
          "internalType": "uint256",
          "name": "maxTickets",
          "type": "uint256"
        },
        {
          "internalType": "bool",
          "name": "skipIncubation",
          "type": "bool"
        }
      ],
      "name": "createPromoEvent",
      "outputs": [],
      "stateMutability": "nonpayable",
      "type": "function"
    },
    {
      "inputs": [
        {
          "internalType": "uint256",
          "name": "promoId",
          "type": "uint256"
        },
        {
          "internalType": "address",
          "name": "recipient",
          "type": "address"
        },
        {
          "internalType": "uint256",
          "name": "ticketAmount",
          "type": "uint256"
        }
      ],
      "name": "dispensePromoTicket",
      "outputs": [],
      "stateMutability": "nonpayable",
      "type": "function"
    },
    {
      "inputs": [
        {
          "internalType": "uint256",
          "name": "legendId",
          "type": "uint256"
        }
      ],
      "name": "fetchBlendingCost",
      "outputs": [
        {
          "internalType": "uint256",
          "name": "",
          "type": "uint256"
        }
      ],
      "stateMutability": "view",
      "type": "function"
    },
    {
      "inputs": [
        {
          "internalType": "uint256",
          "name": "legendId",
          "type": "uint256"
        }
      ],
      "name": "fetchBlendingCount",
      "outputs": [
        {
          "internalType": "uint256",
          "name": "",
          "type": "uint256"
        }
      ],
      "stateMutability": "view",
      "type": "function"
    },
    {
      "inputs": [
        {
          "internalType": "uint256",
          "name": "promoId",
          "type": "uint256"
        }
      ],
      "name": "fetchMaxTicketsDispensable",
      "outputs": [
        {
          "internalType": "uint256",
          "name": "",
          "type": "uint256"
        }
      ],
      "stateMutability": "view",
      "type": "function"
    },
    {
      "inputs": [],
      "name": "fetchPromoCounts",
      "outputs": [
        {
          "components": [
            {
              "internalType": "uint256",
              "name": "_value",
              "type": "uint256"
            }
          ],
          "internalType": "struct Counters.Counter",
          "name": "",
          "type": "tuple"
        },
        {
          "components": [
            {
              "internalType": "uint256",
              "name": "_value",
              "type": "uint256"
            }
          ],
          "internalType": "struct Counters.Counter",
          "name": "",
          "type": "tuple"
        }
      ],
      "stateMutability": "view",
      "type": "function"
    },
    {
      "inputs": [
        {
          "internalType": "uint256",
          "name": "promoId",
          "type": "uint256"
        }
      ],
      "name": "fetchPromoEvent",
      "outputs": [
        {
          "components": [
            {
              "internalType": "string",
              "name": "promoName",
              "type": "string"
            },
            {
              "internalType": "uint256",
              "name": "promoId",
              "type": "uint256"
            },
            {
              "internalType": "uint256",
              "name": "startTime",
              "type": "uint256"
            },
            {
              "internalType": "uint256",
              "name": "expireTime",
              "type": "uint256"
            },
            {
              "internalType": "bool",
              "name": "isUnrestricted",
              "type": "bool"
            },
            {
              "internalType": "bool",
              "name": "isTicketLimit",
              "type": "bool"
            },
            {
              "internalType": "bool",
              "name": "isPromoClosed",
              "type": "bool"
            },
            {
              "components": [
                {
                  "internalType": "uint256",
                  "name": "_value",
                  "type": "uint256"
                }
              ],
              "internalType": "struct Counters.Counter",
              "name": "ticketsClaimed",
              "type": "tuple"
            },
            {
              "components": [
                {
                  "internalType": "uint256",
                  "name": "_value",
                  "type": "uint256"
                }
              ],
              "internalType": "struct Counters.Counter",
              "name": "ticketsRedeemed",
              "type": "tuple"
            }
          ],
          "internalType": "struct TicketMachine.PromoEvent",
          "name": "",
          "type": "tuple"
        }
      ],
      "stateMutability": "view",
      "type": "function"
    },
    {
      "inputs": [
        {
          "internalType": "uint256",
          "name": "promoId",
          "type": "uint256"
        },
        {
          "internalType": "address",
          "name": "recipient",
          "type": "address"
        }
      ],
      "name": "fetchRedeemableTickets",
      "outputs": [
        {
          "internalType": "uint256",
          "name": "",
          "type": "uint256"
        }
      ],
      "stateMutability": "view",
      "type": "function"
    },
    {
      "inputs": [
        {
          "internalType": "uint256",
          "name": "legendId",
          "type": "uint256"
        }
      ],
      "name": "fetchRoyaltyRecipient",
      "outputs": [
        {
          "internalType": "address payable",
          "name": "",
          "type": "address"
        }
      ],
      "stateMutability": "view",
      "type": "function"
    },
    {
      "inputs": [],
      "name": "fetchSeason",
      "outputs": [
        {
          "internalType": "string",
          "name": "",
          "type": "string"
        }
      ],
      "stateMutability": "view",
      "type": "function"
    },
    {
      "inputs": [
        {
          "internalType": "bytes32",
          "name": "role",
          "type": "bytes32"
        }
      ],
      "name": "getRoleAdmin",
      "outputs": [
        {
          "internalType": "bytes32",
          "name": "",
          "type": "bytes32"
        }
      ],
      "stateMutability": "view",
      "type": "function"
    },
    {
      "inputs": [
        {
          "internalType": "bytes32",
          "name": "role",
          "type": "bytes32"
        },
        {
          "internalType": "uint256",
          "name": "index",
          "type": "uint256"
        }
      ],
      "name": "getRoleMember",
      "outputs": [
        {
          "internalType": "address",
          "name": "",
          "type": "address"
        }
      ],
      "stateMutability": "view",
      "type": "function"
    },
    {
      "inputs": [
        {
          "internalType": "bytes32",
          "name": "role",
          "type": "bytes32"
        }
      ],
      "name": "getRoleMemberCount",
      "outputs": [
        {
          "internalType": "uint256",
          "name": "",
          "type": "uint256"
        }
      ],
      "stateMutability": "view",
      "type": "function"
    },
    {
      "inputs": [
        {
          "internalType": "bytes32",
          "name": "role",
          "type": "bytes32"
        },
        {
          "internalType": "address",
          "name": "account",
          "type": "address"
        }
      ],
      "name": "grantRole",
      "outputs": [],
      "stateMutability": "nonpayable",
      "type": "function"
    },
    {
      "inputs": [
        {
          "internalType": "bytes32",
          "name": "role",
          "type": "bytes32"
        },
        {
          "internalType": "address",
          "name": "account",
          "type": "address"
        }
      ],
      "name": "hasRole",
      "outputs": [
        {
          "internalType": "bool",
          "name": "",
          "type": "bool"
        }
      ],
      "stateMutability": "view",
      "type": "function"
    },
    {
      "inputs": [
        {
          "internalType": "uint256",
          "name": "legendId",
          "type": "uint256"
        }
      ],
      "name": "isBlendable",
      "outputs": [
        {
          "internalType": "bool",
          "name": "",
          "type": "bool"
        }
      ],
      "stateMutability": "view",
      "type": "function"
    },
    {
      "inputs": [
        {
          "internalType": "uint256",
          "name": "promoId",
          "type": "uint256"
        },
        {
          "internalType": "address",
          "name": "recipient",
          "type": "address"
        }
      ],
      "name": "isClaimed",
      "outputs": [
        {
          "internalType": "bool",
          "name": "",
          "type": "bool"
        }
      ],
      "stateMutability": "view",
      "type": "function"
    },
    {
      "inputs": [
        {
          "internalType": "uint256",
          "name": "legendId",
          "type": "uint256"
        }
      ],
      "name": "isHatched",
      "outputs": [
        {
          "internalType": "bool",
          "name": "",
          "type": "bool"
        }
      ],
      "stateMutability": "view",
      "type": "function"
    },
    {
      "inputs": [
        {
          "internalType": "uint256",
          "name": "legendId",
          "type": "uint256"
        }
      ],
      "name": "isListable",
      "outputs": [
        {
          "internalType": "bool",
          "name": "",
          "type": "bool"
        }
      ],
      "stateMutability": "view",
      "type": "function"
    },
    {
      "inputs": [
        {
          "internalType": "uint256",
          "name": "promoId",
          "type": "uint256"
        }
      ],
      "name": "isPromoIncubated",
      "outputs": [
        {
          "internalType": "bool",
          "name": "",
          "type": "bool"
        }
      ],
      "stateMutability": "view",
      "type": "function"
    },
    {
      "inputs": [
        {
          "internalType": "uint256",
          "name": "amount",
          "type": "uint256"
        }
      ],
      "name": "labBurn",
      "outputs": [],
      "stateMutability": "nonpayable",
      "type": "function"
    },
    {
      "inputs": [],
      "name": "legendRejuvenation",
      "outputs": [
        {
          "internalType": "contract LegendRejuvenation",
          "name": "",
          "type": "address"
        }
      ],
      "stateMutability": "view",
      "type": "function"
    },
    {
      "inputs": [],
      "name": "legendToken",
      "outputs": [
        {
          "internalType": "contract LegendToken",
          "name": "",
          "type": "address"
        }
      ],
      "stateMutability": "view",
      "type": "function"
    },
    {
      "inputs": [],
      "name": "legendsMarketplace",
      "outputs": [
        {
          "internalType": "contract LegendsMarketplace",
          "name": "",
          "type": "address"
        }
      ],
      "stateMutability": "view",
      "type": "function"
    },
    {
      "inputs": [],
      "name": "legendsMatchingBoard",
      "outputs": [
        {
          "internalType": "contract LegendsMatchingBoard",
          "name": "",
          "type": "address"
        }
      ],
      "stateMutability": "view",
      "type": "function"
    },
    {
      "inputs": [],
      "name": "legendsNFT",
      "outputs": [
        {
          "internalType": "contract LegendsNFT",
          "name": "",
          "type": "address"
        }
      ],
      "stateMutability": "view",
      "type": "function"
    },
    {
      "inputs": [
        {
          "internalType": "uint256",
          "name": "promoId",
          "type": "uint256"
        },
        {
          "internalType": "address",
          "name": "recipient",
          "type": "address"
        }
      ],
      "name": "mintLegendaryLegend",
      "outputs": [],
      "stateMutability": "nonpayable",
      "type": "function"
    },
    {
      "inputs": [
        {
          "internalType": "uint256",
          "name": "promoId",
          "type": "uint256"
        }
      ],
      "name": "redeemPromoTicket",
      "outputs": [],
      "stateMutability": "nonpayable",
      "type": "function"
    },
    {
      "inputs": [
        {
          "internalType": "bytes32",
          "name": "role",
          "type": "bytes32"
        },
        {
          "internalType": "address",
          "name": "account",
          "type": "address"
        }
      ],
      "name": "renounceRole",
      "outputs": [],
      "stateMutability": "nonpayable",
      "type": "function"
    },
    {
      "inputs": [
        {
          "internalType": "uint256",
          "name": "legendId",
          "type": "uint256"
        }
      ],
      "name": "reportVulgarLegend",
      "outputs": [],
      "stateMutability": "nonpayable",
      "type": "function"
    },
    {
      "inputs": [
        {
          "internalType": "uint256",
          "name": "legendId",
          "type": "uint256"
        }
      ],
      "name": "resetLegendName",
      "outputs": [],
      "stateMutability": "nonpayable",
      "type": "function"
    },
    {
      "inputs": [
        {
          "internalType": "uint256",
          "name": "legendId",
          "type": "uint256"
        },
        {
          "internalType": "uint256",
          "name": "regainedSlots",
          "type": "uint256"
        }
      ],
      "name": "restoreBlendingSlots",
      "outputs": [],
      "stateMutability": "nonpayable",
      "type": "function"
    },
    {
      "inputs": [
        {
          "internalType": "bytes32",
          "name": "role",
          "type": "bytes32"
        },
        {
          "internalType": "address",
          "name": "account",
          "type": "address"
        }
      ],
      "name": "revokeRole",
      "outputs": [],
      "stateMutability": "nonpayable",
      "type": "function"
    },
    {
      "inputs": [
        {
          "internalType": "uint256[3]",
          "name": "newAuctionDurations",
          "type": "uint256[3]"
        }
      ],
      "name": "setAuctionDurations",
      "outputs": [],
      "stateMutability": "nonpayable",
      "type": "function"
    },
    {
      "inputs": [
        {
          "internalType": "uint256",
          "name": "newAuctionExtension",
          "type": "uint256"
        }
      ],
      "name": "setAuctionExtension",
      "outputs": [],
      "stateMutability": "nonpayable",
      "type": "function"
    },
    {
      "inputs": [
        {
          "internalType": "uint256",
          "name": "newBaseBlendingCost",
          "type": "uint256"
        }
      ],
      "name": "setBaseBlendingCost",
      "outputs": [],
      "stateMutability": "nonpayable",
      "type": "function"
    },
    {
      "inputs": [
        {
          "internalType": "uint256",
          "name": "newBlendingLimit",
          "type": "uint256"
        }
      ],
      "name": "setBlendingLimit",
      "outputs": [],
      "stateMutability": "nonpayable",
      "type": "function"
    },
    {
      "inputs": [
        {
          "internalType": "uint256",
          "name": "newIncubationPeriod",
          "type": "uint256"
        }
      ],
      "name": "setIncubationPeriod",
      "outputs": [],
      "stateMutability": "nonpayable",
      "type": "function"
    },
    {
      "inputs": [
        {
          "internalType": "string[5]",
          "name": "newIncubationViews",
          "type": "string[5]"
        }
      ],
      "name": "setIncubationViews",
      "outputs": [],
      "stateMutability": "nonpayable",
      "type": "function"
    },
    {
      "inputs": [
        {
          "internalType": "uint256",
          "name": "newKinBlendingLevel",
          "type": "uint256"
        }
      ],
      "name": "setKinBlendingLevel",
      "outputs": [],
      "stateMutability": "nonpayable",
      "type": "function"
    },
    {
      "inputs": [
        {
          "internalType": "uint256",
          "name": "newMarketplaceFee",
          "type": "uint256"
        }
      ],
      "name": "setMarketplaceFee",
      "outputs": [],
      "stateMutability": "nonpayable",
      "type": "function"
    },
    {
      "inputs": [
        {
          "internalType": "uint256",
          "name": "newMaxMultiplier",
          "type": "uint256"
        }
      ],
      "name": "setMaxMultiplier",
      "outputs": [],
      "stateMutability": "nonpayable",
      "type": "function"
    },
    {
      "inputs": [
        {
          "internalType": "uint256",
          "name": "newMinimumSecure",
          "type": "uint256"
        }
      ],
      "name": "setMinimumSecure",
      "outputs": [],
      "stateMutability": "nonpayable",
      "type": "function"
    },
    {
      "inputs": [
        {
          "internalType": "uint256",
          "name": "newOfferDuration",
          "type": "uint256"
        }
      ],
      "name": "setOfferDuration",
      "outputs": [],
      "stateMutability": "nonpayable",
      "type": "function"
    },
    {
      "inputs": [
        {
          "internalType": "uint256",
          "name": "newReJuNeededPerSlot",
          "type": "uint256"
        }
      ],
      "name": "setReJuNeededPerSlot",
      "outputs": [],
      "stateMutability": "nonpayable",
      "type": "function"
    },
    {
      "inputs": [
        {
          "internalType": "uint256",
          "name": "newReJuEmissionRate",
          "type": "uint256"
        }
      ],
      "name": "setReJuPerBlock",
      "outputs": [],
      "stateMutability": "nonpayable",
      "type": "function"
    },
    {
      "inputs": [
        {
          "internalType": "uint256",
          "name": "newReportThreshold",
          "type": "uint256"
        }
      ],
      "name": "setReportThreshold",
      "outputs": [],
      "stateMutability": "nonpayable",
      "type": "function"
    },
    {
      "inputs": [
        {
          "internalType": "uint256",
          "name": "newRoyaltyFee",
          "type": "uint256"
        }
      ],
      "name": "setRoyaltyFee",
      "outputs": [],
      "stateMutability": "nonpayable",
      "type": "function"
    },
    {
      "inputs": [
        {
          "internalType": "string",
          "name": "newSeason",
          "type": "string"
        }
      ],
      "name": "setSeason",
      "outputs": [],
      "stateMutability": "nonpayable",
      "type": "function"
    },
    {
      "inputs": [
        {
          "internalType": "bytes4",
          "name": "interfaceId",
          "type": "bytes4"
        }
      ],
      "name": "supportsInterface",
      "outputs": [
        {
          "internalType": "bool",
          "name": "",
          "type": "bool"
        }
      ],
      "stateMutability": "view",
      "type": "function"
    },
    {
      "inputs": [
        {
          "internalType": "address",
          "name": "newAdmin",
          "type": "address"
        }
      ],
      "name": "transferLaboratoryAdmin",
      "outputs": [],
      "stateMutability": "nonpayable",
      "type": "function"
    },
    {
      "inputs": [],
      "name": "withdrawMarketplaceFees",
      "outputs": [],
      "stateMutability": "nonpayable",
      "type": "function"
    }
  ],
  "bytecode": "0x608060405260405162000012906200041b565b604051809103906000f0801580156200002f573d6000803e3d6000fd5b50600880546001600160a01b0319166001600160a01b03929092169190911790556040513390620000609062000429565b6001600160a01b039091168152602001604051809103906000f0801580156200008d573d6000803e3d6000fd5b50600980546001600160a01b0319166001600160a01b0392909216919091179055604051620000bc9062000437565b604051809103906000f080158015620000d9573d6000803e3d6000fd5b50600a80546001600160a01b0319166001600160a01b0392909216919091179055604051620001089062000445565b604051809103906000f08015801562000125573d6000803e3d6000fd5b50600b80546001600160a01b0319166001600160a01b0392909216919091179055604051620001549062000453565b604051809103906000f08015801562000171573d6000803e3d6000fd5b50600c80546001600160a01b0319166001600160a01b0392909216919091179055604080518082019091526007808252660a0d0decadcd2f60cb1b6020909201918252620001c291600d9162000461565b506005600f55348015620001d557600080fd5b50620001e36000306200026b565b6200020f7fa3c50eadf7191eaea0f91d60683b45bf06671be68100f95bbe6bf79e0f7f49da336200026b565b6200022a60008051602062010cd1833981519152336200026b565b6200026560008051602062010cd18339815191527fa3c50eadf7191eaea0f91d60683b45bf06671be68100f95bbe6bf79e0f7f49da620002ae565b62000544565b620002828282620002f960201b62001bf61760201c565b6000828152600160209081526040909120620002a991839062001c0062000309821b17901c565b505050565b600082815260208190526040808220600101805490849055905190918391839186917fbd79b86ffe0ab8e8776151514217cd7cacd52c909f66475c3af44e129f0b00ff9190a4505050565b62000305828262000329565b5050565b600062000320836001600160a01b038416620003c9565b90505b92915050565b6000828152602081815260408083206001600160a01b038516845290915290205460ff1662000305576000828152602081815260408083206001600160a01b03851684529091529020805460ff19166001179055620003853390565b6001600160a01b0316816001600160a01b0316837f2f8788117e7eff1d82e926ec794901d17c78024a50270940304540a733656f0d60405160405180910390a45050565b6000818152600183016020526040812054620004125750815460018181018455600084815260208082209093018490558454848252828601909352604090209190915562000323565b50600062000323565b613fc780620037f283390190565b61185680620077b983390190565b6117fc806200900f83390190565b614486806200a80b83390190565b612040806200ec9183390190565b8280546200046f9062000507565b90600052602060002090601f016020900481019282620004935760008555620004de565b82601f10620004ae57805160ff1916838001178555620004de565b82800160010185558215620004de579182015b82811115620004de578251825591602001919060010190620004c1565b50620004ec929150620004f0565b5090565b5b80821115620004ec5760008155600101620004f1565b600181811c908216806200051c57607f821691505b602082108114156200053e57634e487b7160e01b600052602260045260246000fd5b50919050565b61329e80620005546000396000f3fe608060405234801561001057600080fd5b50600436106103785760003560e01c8063805d419a116101d3578063b3f0cfaf11610104578063ced3e3f1116100a2578063da738c501161007c578063da738c5014610845578063e4eb23ae14610858578063ea832ddd1461086d578063f4c2bc8e1461088057600080fd5b8063ced3e3f1146107e6578063d2ef0795146107f9578063d547741f1461083257600080fd5b8063c6c61413116100de578063c6c614131461079a578063ca15c873146107ad578063ca9d8fd0146107c0578063ce530674146107d357600080fd5b8063b3f0cfaf1461075f578063bd07c68314610772578063c11b72731461078757600080fd5b806391d14854116101715780639c5ef2631161014b5780639c5ef2631461071e5780639d147ce914610731578063a217fddf14610744578063a4cecdb71461074c57600080fd5b806391d14854146106c05780639407ea98146106f757806399ea58441461070a57600080fd5b80638a306563116101ad5780638a306563146106605780638c68e547146106875780639010d07c1461069a5780639050a575146106ad57600080fd5b8063805d419a1461061a57806387aef1661461062d578063884c77f31461064057600080fd5b80632b3a6fd7116102ad578063443af2ba1161024b5780634838f565116102255780634838f565146105ce5780634c89c218146105e15780634dd40112146105f4578063683c65ef1461060757600080fd5b8063443af2ba14610595578063446845eb146105a8578063478c5ef0146105bb57600080fd5b8063307b71c011610287578063307b71c01461054957806336568abe1461055c578063390134261461056f5780633e4086e51461058257600080fd5b80632b3a6fd7146105105780632d1e7f86146105235780632f2ff15d1461053657600080fd5b80630c818a9a1161031a57806319b60f05116102f457806319b60f05146104af5780631b65cd30146104c2578063248a9ca3146104e55780632a25194f1461050857600080fd5b80630c818a9a146104765780631378b62e146104895780631944f20d1461049c57600080fd5b806304bc22641161035657806304bc2264146103e557806309932bbc146104065780630b24d720146104195780630c69ebcd1461046357600080fd5b806301526a431461037d57806301ffc9a71461039257806303003205146103ba575b600080fd5b61039061038b366004612bf9565b610893565b005b6103a56103a0366004612c61565b610928565b60405190151581526020015b60405180910390f35b6009546103cd906001600160a01b031681565b6040516001600160a01b0390911681526020016103b1565b6103f86103f3366004612bf9565b61096c565b6040519081526020016103b1565b6103f8610414366004612bf9565b6109f7565b6040805160208082018352600091829052825180820184529190915281518082018352600254815282519182019092526003548152604080519251835290516020830152016103b1565b610390610471366004612bf9565b610a8d565b610390610484366004612bf9565b610b02565b610390610497366004612bf9565b610b53565b6008546103cd906001600160a01b031681565b6103906104bd366004612bf9565b610bb6565b6103a56104d0366004612bf9565b6000908152600e602052604090205460ff1690565b6103f86104f3366004612bf9565b60009081526020819052604090206001015490565b610390610c19565b6103f861051e366004612bf9565b610c9d565b610390610531366004612c89565b610d41565b610390610544366004612c11565b610d6c565b610390610557366004612b63565b610d93565b61039061056a366004612c11565b610e82565b61039061057d366004612bf9565b610ea4565b610390610590366004612bf9565b610ec3565b6103906105a3366004612bb7565b610f14565b6103906105b6366004612bf9565b610f88565b6103a56105c9366004612bf9565b61104f565b6103906105dc366004612bf9565b6110e6565b6103906105ef366004612bf9565b611137565b600c546103cd906001600160a01b031681565b610390610615366004612e92565b61119a565b610390610628366004612bf9565b61122f565b61039061063b366004612b7f565b611280565b61065361064e366004612bf9565b6112f4565b6040516103b19190613072565b6103f87f50cfca4094c55bf42de4c6bab117b8cffa7bc564d44ed30ce3669a40f63c829b81565b610390610695366004612bf9565b611427565b6103cd6106a8366004612c40565b61145f565b6103906106bb366004612cc9565b61147e565b6103a56106ce366004612c11565b6000918252602082815260408084206001600160a01b0393909316845291905290205460ff1690565b610390610705366004612bf9565b6114df565b6103a5610718366004612bf9565b50600190565b61039061072c366004612bf9565b611530565b61039061073f366004612c40565b611655565b6103f8600081565b600a546103cd906001600160a01b031681565b61039061076d366004612bf9565b611726565b6103f860008051602061324983398151915281565b600b546103cd906001600160a01b031681565b6103906107a8366004612bf9565b611789565b6103f86107bb366004612bf9565b6117e6565b6103906107ce366004612bf9565b6117fd565b6103906107e1366004612bf9565b611860565b6103a56107f4366004612bf9565b61199a565b6103a5610807366004612e92565b60009182526006602090815260408084206001600160a01b0393909316845291905290205460ff1690565b610390610840366004612c11565b6119e5565b6103f8610853366004612e92565b6119ef565b610860611a80565b6040516103b1919061305f565b6103cd61087b366004612bf9565b611b12565b61039061088e366004612ea4565b611b9e565b6000805160206132498339815191526108ac8133611c15565b600a546040517f01526a43000000000000000000000000000000000000000000000000000000008152600481018490526001600160a01b03909116906301526a43906024015b600060405180830381600087803b15801561090c57600080fd5b505af1158015610920573d6000803e3d6000fd5b505050505050565b60006001600160e01b031982167f5a05180f000000000000000000000000000000000000000000000000000000001480610966575061096682611c93565b92915050565b60085460405163f88378bb60e01b8152600481018390526000916001600160a01b03169063f88378bb9060240160006040518083038186803b1580156109b157600080fd5b505afa1580156109c5573d6000803e3d6000fd5b505050506040513d6000823e601f3d908101601f191682016040526109ed9190810190612d43565b60c0015192915050565b6008546040517f09932bbc000000000000000000000000000000000000000000000000000000008152600481018390526000916001600160a01b0316906309932bbc9060240160206040518083038186803b158015610a5557600080fd5b505afa158015610a69573d6000803e3d6000fd5b505050506040513d601f19601f820116820180604052508101906109669190612e7a565b7f50cfca4094c55bf42de4c6bab117b8cffa7bc564d44ed30ce3669a40f63c829b610ab88133611c15565b600a546040517f0c69ebcd000000000000000000000000000000000000000000000000000000008152600481018490526001600160a01b0390911690630c69ebcd906024016108f2565b600080516020613249833981519152610b1b8133611c15565b60085460405163af5cf6c760e01b815260016004820152602481018490526001600160a01b039091169063af5cf6c7906044016108f2565b7f50cfca4094c55bf42de4c6bab117b8cffa7bc564d44ed30ce3669a40f63c829b610b7e8133611c15565b600b546040516319e5452360e11b815260026004820152602481018490526001600160a01b03909116906333ca8a46906044016108f2565b7f50cfca4094c55bf42de4c6bab117b8cffa7bc564d44ed30ce3669a40f63c829b610be18133611c15565b600b546040516319e5452360e11b815260036004820152602481018490526001600160a01b03909116906333ca8a46906044016108f2565b600080516020613249833981519152610c328133611c15565b600b60009054906101000a90046001600160a01b03166001600160a01b0316632a25194f6040518163ffffffff1660e01b8152600401600060405180830381600087803b158015610c8257600080fd5b505af1158015610c96573d6000803e3d6000fd5b5050505050565b600081815260046020819052604082200154610100900460ff16610d2e5760405162461bcd60e51b815260206004820152602c60248201527f50726f6d6f204576656e7420446f6573204e6f7420486176652041204d61782060448201527f5469636b6574204c696d6974000000000000000000000000000000000000000060648201526084015b60405180910390fd5b5060009081526005602052604090205490565b600080516020613249833981519152610d5a8133611c15565b610d66600d84846128f4565b50505050565b610d768282611cfa565b6000828152600160205260409020610d8e9082611c00565b505050565b600080516020613249833981519152610dac8133611c15565b6040517fd547741f0000000000000000000000000000000000000000000000000000000081526000805160206132498339815191526004820152336024820152309063d547741f90604401600060405180830381600087803b158015610e1157600080fd5b505af1158015610e25573d6000803e3d6000fd5b50506040517f2f2ff15d00000000000000000000000000000000000000000000000000000000815260008051602061324983398151915260048201526001600160a01b0385166024820152309250632f2ff15d91506044016108f2565b610e8c8282611d20565b6000828152600160205260409020610d8e9082611da8565b600080516020613249833981519152610ebd8133611c15565b50600f55565b600080516020613249833981519152610edc8133611c15565b600b546040516319e5452360e11b815260006004820152602481018490526001600160a01b03909116906333ca8a46906044016108f2565b7f50cfca4094c55bf42de4c6bab117b8cffa7bc564d44ed30ce3669a40f63c829b610f3f8133611c15565b600b546040517f443af2ba0000000000000000000000000000000000000000000000000000000081526001600160a01b039091169063443af2ba906108f290859060040161304c565b600080516020613249833981519152610fa18133611c15565b600382106110175760405162461bcd60e51b815260206004820152602160248201527f4b696e20426c656e64696e67204c6576656c20446f6573204e6f74204578697360448201527f74000000000000000000000000000000000000000000000000000000000000006064820152608401610d25565b60085460405163af5cf6c760e01b815260006004820152602481018490526001600160a01b039091169063af5cf6c7906044016108f2565b6008546040517f478c5ef0000000000000000000000000000000000000000000000000000000008152600481018390526000916001600160a01b03169063478c5ef0906024015b60206040518083038186803b1580156110ae57600080fd5b505afa1580156110c2573d6000803e3d6000fd5b505050506040513d601f19601f820116820180604052508101906109669190612bdd565b6000805160206132498339815191526110ff8133611c15565b60085460405163af5cf6c760e01b815260026004820152602481018490526001600160a01b039091169063af5cf6c7906044016108f2565b6000805160206132498339815191526111508133611c15565b600a546040517f4c89c218000000000000000000000000000000000000000000000000000000008152600481018490526001600160a01b0390911690634c89c218906024016108f2565b6000805160206132498339815191526111b38133611c15565b6111bd8383611dbd565b600854604051636a6ca76560e11b81526001600160a01b03848116600483015260248201869052600160448301529091169063d4d94eca90606401600060405180830381600087803b15801561121257600080fd5b505af1158015611226573d6000803e3d6000fd5b50505050505050565b6000805160206132498339815191526112488133611c15565b60085460405163af5cf6c760e01b815260036004820152602481018490526001600160a01b039091169063af5cf6c7906044016108f2565b7f50cfca4094c55bf42de4c6bab117b8cffa7bc564d44ed30ce3669a40f63c829b6112ab8133611c15565b6008546040517f87aef1660000000000000000000000000000000000000000000000000000000081526001600160a01b03909116906387aef166906108f2908590600401612fc1565b6112fc612978565b6000828152600460205260409081902081516101208101909252805482908290611325906131c1565b80601f0160208091040260200160405190810160405280929190818152602001828054611351906131c1565b801561139e5780601f106113735761010080835404028352916020019161139e565b820191906000526020600020905b81548152906001019060200180831161138157829003601f168201915b50505091835250506001820154602080830191909152600283015460408084019190915260038401546060840152600484015460ff808216151560808601526101008083048216151560a08701526201000090920416151560c0850152815180840183526005860154815260e08501528151928301909152600690930154815291015292915050565b7f50cfca4094c55bf42de4c6bab117b8cffa7bc564d44ed30ce3669a40f63c829b6114528133611c15565b61145b82611f2a565b5050565b60008281526001602052604081206114779083612055565b9392505050565b7f50cfca4094c55bf42de4c6bab117b8cffa7bc564d44ed30ce3669a40f63c829b6114a98133611c15565b60006114b88888888888612061565b6000908152600e60205260409020805460ff19169315159390931790925550505050505050565b6000805160206132498339815191526114f88133611c15565b600b546040516319e5452360e11b815260016004820152602481018490526001600160a01b03909116906333ca8a46906044016108f2565b600081815260116020908152604080832033845290915290205460ff16156115c05760405162461bcd60e51b815260206004820152602c60248201527f596f75204861766520416c7265616479205265706f727465642054686973204c60448201527f6567656e642773204e616d6500000000000000000000000000000000000000006064820152608401610d25565b60008181526011602090815260408083203384528252808320805460ff1916600190811790915584845260109092528220805491929091611602908490613130565b90915550506000818152601060205260409081902054905182917f5eb321bd0ee5b2958efb8b222425d702bc8927eeb2c0aa7394753195bf83337f9161164a91815260200190565b60405180910390a250565b600a546001600160a01b031633146116d55760405162461bcd60e51b815260206004820152602360248201527f4e6f742043616c6c65642042792052656a7576656e6174696f6e20436f6e747260448201527f61637400000000000000000000000000000000000000000000000000000000006064820152608401610d25565b6008546040517f9d147ce900000000000000000000000000000000000000000000000000000000815260048101849052602481018390526001600160a01b0390911690639d147ce9906044016108f2565b60008051602061324983398151915261173f8133611c15565b6009546040517fb3f0cfaf000000000000000000000000000000000000000000000000000000008152600481018490526001600160a01b039091169063b3f0cfaf906024016108f2565b6117938133611dbd565b600854604051636a6ca76560e11b815233600482015260248101839052600060448201526001600160a01b039091169063d4d94eca90606401600060405180830381600087803b158015610c8257600080fd5b600081815260016020526040812061096690612153565b6000805160206132498339815191526118168133611c15565b600a546040517fca9d8fd0000000000000000000000000000000000000000000000000000000008152600481018490526001600160a01b039091169063ca9d8fd0906024016108f2565b7f50cfca4094c55bf42de4c6bab117b8cffa7bc564d44ed30ce3669a40f63c829b61188b8133611c15565b600f5460008381526010602052604090205410156119115760405162461bcd60e51b815260206004820152602760248201527f5468726573686f6c64204e6f74205265616368656420466f722041646d696e2060448201527f546f2043616c6c000000000000000000000000000000000000000000000000006064820152608401610d25565b6008546040517fce530674000000000000000000000000000000000000000000000000000000008152600481018490526001600160a01b039091169063ce53067490602401600060405180830381600087803b15801561197057600080fd5b505af1158015611984573d6000803e3d6000fd5b5050506000928352505060106020526040812055565b6008546040517fced3e3f1000000000000000000000000000000000000000000000000000000008152600481018390526000916001600160a01b03169063ced3e3f190602401611096565b610e8c828261215d565b60008281526004602081905260408220015462010000900460ff1615611a575760405162461bcd60e51b815260206004820152601660248201527f50726f6d6f204576656e742048617320436c6f736564000000000000000000006044820152606401610d25565b5060009182526007602090815260408084206001600160a01b0393909316845291905290205490565b6060600d8054611a8f906131c1565b80601f0160208091040260200160405190810160405280929190818152602001828054611abb906131c1565b8015611b085780601f10611add57610100808354040283529160200191611b08565b820191906000526020600020905b815481529060010190602001808311611aeb57829003601f168201915b5050505050905090565b60085460405163f88378bb60e01b8152600481018390526000916001600160a01b03169063f88378bb9060240160006040518083038186803b158015611b5757600080fd5b505afa158015611b6b573d6000803e3d6000fd5b505050506040513d6000823e601f3d908101601f19168201604052611b939190810190612d43565b610100015192915050565b60008381526004602081905260408220015460ff16611be857611be17f50cfca4094c55bf42de4c6bab117b8cffa7bc564d44ed30ce3669a40f63c829b33611c15565b5081611beb565b50335b610d66848284612183565b61145b828261240c565b6000611477836001600160a01b0384166124aa565b6000828152602081815260408083206001600160a01b038516845290915290205460ff1661145b57611c51816001600160a01b031660146124f9565b611c5c8360206124f9565b604051602001611c6d929190612f40565b60408051601f198184030181529082905262461bcd60e51b8252610d259160040161305f565b60006001600160e01b031982167f7965db0b00000000000000000000000000000000000000000000000000000000148061096657507f01ffc9a7000000000000000000000000000000000000000000000000000000006001600160e01b0319831614610966565b600082815260208190526040902060010154611d168133611c15565b610d8e838361240c565b6001600160a01b0381163314611d9e5760405162461bcd60e51b815260206004820152602f60248201527f416363657373436f6e74726f6c3a2063616e206f6e6c792072656e6f756e636560448201527f20726f6c657320666f722073656c6600000000000000000000000000000000006064820152608401610d25565b61145b8282612720565b6000611477836001600160a01b03841661279f565b60008281526004602081905260409091209081015462010000900460ff1615611e285760405162461bcd60e51b815260206004820152601e60248201527f50726f6d6f204576656e742048617320416c726561647920436c6f73656400006044820152606401610d25565b6000611e3484846119ef565b905080611ea95760405162461bcd60e51b815260206004820152603560248201527f4164647265737320486173204e6f205469636b65747320546f2052656465656d60448201527f20466f7220546869732050726f6d6f204576656e7400000000000000000000006064820152608401610d25565b60008481526007602090815260408083206001600160a01b03871684529091528120805460019290611edc908490613167565b90915550506006820180546001019081905584907fc9c4f03b153a016160309ee0e44964d3d4a7479afa7cbdec77792ee6e5a534cc905b60405190815260200160405180910390a250505050565b600081815260046020526040902060038101544211611f8b5760405162461bcd60e51b815260206004820152601960248201527f50726f6d6f20486173204e6f74205965742045787069726564000000000000006044820152606401610d25565b600481015462010000900460ff1615611fe65760405162461bcd60e51b815260206004820152601860248201527f50726f6d6f2048617320416c726561647920436c6f73656400000000000000006044820152606401610d25565b60048101805462ff0000191662010000179055612007600380546001019055565b817fa5564de58e406ec47e635d6f73dd2f0582dc4c3cd41feb15bbe22c33cda1b353612034836005015490565b60068401546040805192835260208301919091520160405180910390a25050565b600061147783836128bc565b6000612071600280546001019055565b600061207c60025490565b9050600061208a8642613130565b60008381526004602052604090209091506120a6818a8a6128f4565b50600181018390554260028201556003810182905560048101805460ff191687151517905584156120f45760048101805461ff00191661010017905560008381526005602052604090208590555b8888604051612104929190612f30565b6040518091039020837f71d59def02df5d7fd25c165673e40168b501493e264f1064797de6e5367587648460405161213e91815260200190565b60405180910390a35090979650505050505050565b6000610966825490565b6000828152602081905260409020600101546121798133611c15565b610d8e8383612720565b6000838152600460205260409020600381015442106121e45760405162461bcd60e51b815260206004820152601f60248201527f50726f6d6f204576656e742048617320416c72656164792045787069726564006044820152606401610d25565b600481015460ff16156122d95760008481526006602090815260408083206001600160a01b038716845290915290205460ff16156122895760405162461bcd60e51b8152602060048201526024808201527f50726f6d6f204576656e742048617320416c7265616479204265656e20436c6160448201527f696d6564000000000000000000000000000000000000000000000000000000006064820152608401610d25565b816001146122d95760405162461bcd60e51b815260206004820152601360248201527f416d6f756e74204d75737420457175616c2031000000000000000000000000006044820152606401610d25565b6004810154610100900460ff16156123805760006122f8826005015490565b600086815260056020526040902054909150811061237e5760405162461bcd60e51b815260206004820152602160248201527f4d6178205469636b6574204c696d697420486173204265656e2052656163686560448201527f64000000000000000000000000000000000000000000000000000000000000006064820152608401610d25565b505b60008481526006602090815260408083206001600160a01b038716808552908352818420805460ff1916600117905587845260078352818420908452909152812080548492906123d1908490613130565b90915550506005810180546001019081905584907f846c3b95b866f54765c28d71ab65901a1d9aed59fa15e47bafb658e4cb7d78ff90611f13565b6000828152602081815260408083206001600160a01b038516845290915290205460ff1661145b576000828152602081815260408083206001600160a01b03851684529091529020805460ff191660011790556124663390565b6001600160a01b0316816001600160a01b0316837f2f8788117e7eff1d82e926ec794901d17c78024a50270940304540a733656f0d60405160405180910390a45050565b60008181526001830160205260408120546124f157508154600181810184556000848152602080822090930184905584548482528286019093526040902091909155610966565b506000610966565b60606000612508836002613148565b612513906002613130565b67ffffffffffffffff81111561253957634e487b7160e01b600052604160045260246000fd5b6040519080825280601f01601f191660200182016040528015612563576020820181803683370190505b5090507f3000000000000000000000000000000000000000000000000000000000000000816000815181106125a857634e487b7160e01b600052603260045260246000fd5b60200101906001600160f81b031916908160001a9053507f78000000000000000000000000000000000000000000000000000000000000008160018151811061260157634e487b7160e01b600052603260045260246000fd5b60200101906001600160f81b031916908160001a9053506000612625846002613148565b612630906001613130565b90505b60018111156126d1577f303132333435363738396162636465660000000000000000000000000000000085600f166010811061267f57634e487b7160e01b600052603260045260246000fd5b1a60f81b8282815181106126a357634e487b7160e01b600052603260045260246000fd5b60200101906001600160f81b031916908160001a90535060049490941c936126ca816131aa565b9050612633565b5083156114775760405162461bcd60e51b815260206004820181905260248201527f537472696e67733a20686578206c656e67746820696e73756666696369656e746044820152606401610d25565b6000828152602081815260408083206001600160a01b038516845290915290205460ff161561145b576000828152602081815260408083206001600160a01b0385168085529252808320805460ff1916905551339285917ff6391f5c32d9c69d2a47ea670b442974b53935d1edc7fd64eb21e047a839171b9190a45050565b600081815260018301602052604081205480156128b25760006127c3600183613167565b85549091506000906127d790600190613167565b905081811461285857600086600001828154811061280557634e487b7160e01b600052603260045260246000fd5b906000526020600020015490508087600001848154811061283657634e487b7160e01b600052603260045260246000fd5b6000918252602080832090910192909255918252600188019052604090208390555b855486908061287757634e487b7160e01b600052603160045260246000fd5b600190038181906000526020600020016000905590558560010160008681526020019081526020016000206000905560019350505050610966565b6000915050610966565b60008260000182815481106128e157634e487b7160e01b600052603260045260246000fd5b9060005260206000200154905092915050565b828054612900906131c1565b90600052602060002090601f0160209004810192826129225760008555612968565b82601f1061293b5782800160ff19823516178555612968565b82800160010185558215612968579182015b8281111561296857823582559160200191906001019061294d565b506129749291506129f1565b5090565b604051806101200160405280606081526020016000815260200160008152602001600081526020016000151581526020016000151581526020016000151581526020016129d16040518060200160405280600081525090565b81526020016129ec6040518060200160405280600081525090565b905290565b5b8082111561297457600081556001016129f2565b8051612a1181613222565b919050565b600082601f830112612a26578081fd5b6040516040810181811067ffffffffffffffff82111715612a4957612a4961320c565b8060405250808385604086011115612a5f578384fd5b835b6002811015612a80578151835260209283019290910190600101612a61565b509195945050505050565b8051612a118161323a565b60008083601f840112612aa7578182fd5b50813567ffffffffffffffff811115612abe578182fd5b602083019150836020828501011115612ad657600080fd5b9250929050565b600082601f830112612aed578081fd5b815167ffffffffffffffff80821115612b0857612b0861320c565b604051601f8301601f19908116603f01168101908282118183101715612b3057612b3061320c565b81604052838152866020858801011115612b48578485fd5b612b5984602083016020890161317e565b9695505050505050565b600060208284031215612b74578081fd5b813561147781613222565b600060208284031215612b90578081fd5b813567ffffffffffffffff811115612ba6578182fd5b820160a08101841015611477578182fd5b600060608284031215612bc8578081fd5b82606083011115612bd7578081fd5b50919050565b600060208284031215612bee578081fd5b81516114778161323a565b600060208284031215612c0a578081fd5b5035919050565b60008060408385031215612c23578081fd5b823591506020830135612c3581613222565b809150509250929050565b60008060408385031215612c52578182fd5b50508035926020909101359150565b600060208284031215612c72578081fd5b81356001600160e01b031981168114611477578182fd5b60008060208385031215612c9b578182fd5b823567ffffffffffffffff811115612cb1578283fd5b612cbd85828601612a96565b90969095509350505050565b60008060008060008060a08789031215612ce1578182fd5b863567ffffffffffffffff811115612cf7578283fd5b612d0389828a01612a96565b909750955050602087013593506040870135612d1e8161323a565b9250606087013591506080870135612d358161323a565b809150509295509295509295565b600060208284031215612d54578081fd5b815167ffffffffffffffff80821115612d6b578283fd5b908301906101a08286031215612d7f578283fd5b612d87613106565b82518152602083015182811115612d9c578485fd5b612da887828601612add565b602083015250604083015182811115612dbf578485fd5b612dcb87828601612add565b604083015250606083015182811115612de2578485fd5b612dee87828601612add565b606083015250612e018660808501612a16565b608082015260c083015160a082015260e083015160c082015261010091508183015160e0820152610120612e36818501612a06565b838301526101409250612e4a838501612a8b565b90820152610160612e5c848201612a8b565b83830152612e6d6101808501612a8b565b9082015295945050505050565b600060208284031215612e8b578081fd5b5051919050565b60008060408385031215612c23578182fd5b600080600060608486031215612eb8578081fd5b833592506020840135612eca81613222565b929592945050506040919091013590565b81835281816020850137506000828201602090810191909152601f909101601f19169091010190565b60008151808452612f1c81602086016020860161317e565b601f01601f19169290920160200192915050565b8183823760009101908152919050565b7f416363657373436f6e74726f6c3a206163636f756e7420000000000000000000815260008351612f7881601785016020880161317e565b7f206973206d697373696e6720726f6c65200000000000000000000000000000006017918401918201528351612fb581602884016020880161317e565b01602801949350505050565b602080825260009060c0830183820185845b600581101561304057868403601f19018352813536899003601e19018112612ff9578687fd5b8801803567ffffffffffffffff811115613011578788fd5b8036038a131561301f578788fd5b61302c8682898501612edb565b955050509184019190840190600101612fd3565b50919695505050505050565b6060818101908383376000815292915050565b6020815260006114776020830184612f04565b6020815260008251610120806020850152613091610140850183612f04565b915060208501516040850152604085015160608501526060850151608085015260808501516130c460a086018215159052565b5060a085015180151560c08601525060c085015180151560e08601525060e08501516101006130f581870183519052565b909501515193019290925250919050565b604051610180810167ffffffffffffffff8111828210171561312a5761312a61320c565b60405290565b60008219821115613143576131436131f6565b500190565b6000816000190483118215151615613162576131626131f6565b500290565b600082821015613179576131796131f6565b500390565b60005b83811015613199578181015183820152602001613181565b83811115610d665750506000910152565b6000816131b9576131b96131f6565b506000190190565b600181811c908216806131d557607f821691505b60208210811415612bd757634e487b7160e01b600052602260045260246000fd5b634e487b7160e01b600052601160045260246000fd5b634e487b7160e01b600052604160045260246000fd5b6001600160a01b038116811461323757600080fd5b50565b801515811461323757600080fdfea3c50eadf7191eaea0f91d60683b45bf06671be68100f95bbe6bf79e0f7f49daa26469706673582212205077f3fc6102d739225a012cd3137411a497118b4445c5d09f6256c1359b000b64736f6c63430008040033610180604052603561012081815260809182919062003f2861014039815260200160405180606001604052806035815260200162003ef360359139815260200160405180606001604052806035815260200162003f9260359139815260200160405180606001604052806035815260200162003ebe60359139815260200160405180606001604052806035815260200162003f5d603591399052620000a990600d9060056200014e565b50600560125560646013556064601455348015620000c657600080fd5b5060405180604001604052806006815260200165131959d95b9960d21b81525060405180604001604052806006815260200165131151d1539160d21b81525081600090805190602001906200011d929190620001a5565b50805162000133906001906020840190620001a5565b5050600a80546001600160a01b0319163317905550620002e7565b826005810192821562000193579160200282015b8281111562000193578251805162000182918491602090910190620001a5565b509160200191906001019062000162565b50620001a192915062000230565b5090565b828054620001b390620002aa565b90600052602060002090601f016020900481019282620001d7576000855562000222565b82601f10620001f257805160ff191683800117855562000222565b8280016001018555821562000222579182015b828111156200022257825182559160200191906001019062000205565b50620001a192915062000251565b80821115620001a157600062000247828262000268565b5060010162000230565b5b80821115620001a1576000815560010162000252565b5080546200027690620002aa565b6000825580601f1062000287575050565b601f016020900490600052602060002090810190620002a7919062000251565b50565b600181811c90821680620002bf57607f821691505b60208210811415620002e157634e487b7160e01b600052602260045260246000fd5b50919050565b613bc780620002f76000396000f3fe608060405234801561001057600080fd5b506004361061025b5760003560e01c80638ca46dcc11610145578063b88d4fde116100bd578063ceadb5021161008c578063d4d94eca11610071578063d4d94eca14610560578063e985e9c514610573578063f88378bb146105af57600080fd5b8063ceadb50214610520578063ced3e3f11461053357600080fd5b8063b88d4fde146104b9578063c2b64f2d146104cc578063c87b56dd146104fa578063ce5306741461050d57600080fd5b80639d147ce911610114578063a22cb465116100f9578063a22cb46514610470578063ac386f4b14610483578063af5cf6c7146104a657600080fd5b80639d147ce91461044a578063a18e7b2b1461045d57600080fd5b80638ca46dcc146103f05780638f660ea61461040357806395d89b411461042257806399ea58441461042a57600080fd5b80632f745c59116101d85780636352211e116101a757806371de4ed71161018c57806371de4ed7146103b75780637c20234d146103ca57806387aef166146103dd57600080fd5b80636352211e1461039157806370a08231146103a457600080fd5b80632f745c591461034557806342842e0e14610358578063478c5ef01461036b5780634f6ccce71461037e57600080fd5b8063095ea7b31161022f57806318160ddd1161021457806318160ddd146103175780631b4c46fb1461031f57806323b872dd1461033257600080fd5b8063095ea7b3146102e157806309932bbc146102f657600080fd5b8062ce93811461026057806301ffc9a71461027e57806306fdde03146102a1578063081812fc146102b6575b600080fd5b6102686105cf565b60405161027591906137d8565b60405180910390f35b61029161028c366004613357565b610696565b6040519015158152602001610275565b6102a96106da565b6040516102759190613895565b6102c96102c436600461341e565b61076c565b6040516001600160a01b039091168152602001610275565b6102f46102ef3660046131ed565b610806565b005b61030961030436600461341e565b610938565b604051908152602001610275565b600854610309565b61030961032d366004613259565b61096b565b6102f4610340366004613103565b610e7b565b6103096103533660046131ed565b610f02565b6102f4610366366004613103565b610faa565b61029161037936600461341e565b610fc5565b61030961038c36600461341e565b611058565b6102c961039f36600461341e565b61110a565b6103096103b23660046130af565b611195565b6102f46103c5366004613436565b61122f565b6102f46103d8366004613480565b61135c565b6102f46103eb36600461328d565b6113db565b6102916103fe36600461341e565b611403565b600c546012546013546014546040516102759460ff1693929190613825565b6102a9611484565b61043d61043836600461341e565b611493565b604051610275919061379e565b6102f46104583660046134f7565b61154c565b6102f461046b36600461341e565b61158d565b6102f461047e3660046131c0565b6115e9565b61029161049136600461341e565b60009081526017602052604090205460ff1690565b6102f46104b43660046134f7565b6116ae565b6102f46104c7366004613143565b61174c565b6102916104da3660046134f7565b600091825260186020908152604080842092845291905290205460ff1690565b6102a961050836600461341e565b6117da565b6102f461051b36600461341e565b6118cf565b6102a961052e36600461341e565b611943565b61029161054136600461341e565b600090815260156020526040902060090154600160a81b900460ff1690565b6102f461056e366004613218565b611a05565b6102916105813660046130cb565b6001600160a01b03918216600090815260056020908152604080832093909416825291909152205460ff1690565b6105c26105bd36600461341e565b611b1a565b60405161027591906138a8565b6105d7612d9e565b6040805160a08101909152600d60056000835b8282101561068d57838201805461060090613aac565b80601f016020809104026020016040519081016040528092919081815260200182805461062c90613aac565b80156106795780601f1061064e57610100808354040283529160200191610679565b820191906000526020600020905b81548152906001019060200180831161065c57829003601f168201915b5050505050815260200190600101906105ea565b50505050905090565b60006001600160e01b031982167f780e9d630000000000000000000000000000000000000000000000000000000014806106d457506106d482611dd8565b92915050565b6060600080546106e990613aac565b80601f016020809104026020016040519081016040528092919081815260200182805461071590613aac565b80156107625780601f1061073757610100808354040283529160200191610762565b820191906000526020600020905b81548152906001019060200180831161074557829003601f168201915b5050505050905090565b6000818152600260205260408120546001600160a01b03166107ea5760405162461bcd60e51b815260206004820152602c60248201527f4552433732313a20617070726f76656420717565727920666f72206e6f6e657860448201526b34b9ba32b73a103a37b5b2b760a11b60648201526084015b60405180910390fd5b506000908152600460205260409020546001600160a01b031690565b60006108118261110a565b9050806001600160a01b0316836001600160a01b0316141561089b5760405162461bcd60e51b815260206004820152602160248201527f4552433732313a20617070726f76616c20746f2063757272656e74206f776e6560448201527f720000000000000000000000000000000000000000000000000000000000000060648201526084016107e1565b336001600160a01b03821614806108b757506108b78133610581565b6109295760405162461bcd60e51b815260206004820152603860248201527f4552433732313a20617070726f76652063616c6c6572206973206e6f74206f7760448201527f6e6572206e6f7220617070726f76656420666f7220616c6c000000000000000060648201526084016107e1565b6109338383611e73565b505050565b6000818152601560205260408120600801548190610957906001613a1e565b6013546109649190613a4a565b9392505050565b6000336109778461110a565b6001600160a01b031614801561099d5750336109928361110a565b6001600160a01b0316145b6109a657600080fd5b60008381526015602052604080822084835291206109c385610fc5565b6109cc57600080fd5b6109d584610fc5565b6109de57600080fd5b6002600c5460ff166002811115610a0557634e487b7160e01b600052602160045260246000fd5b14610b8a576040805180820191829052610a7091600485019060029082845b815481526020019060010190808311610a24575050604080518082019182905293506004870192506002915082845b815481526020019060010190808311610a53575050505050611eee565b610ae25760405162461bcd60e51b815260206004820152602860248201527f426c656e64696e67204e6f7420416c6c6f7765642057697468205369626c696e60448201527f67204c6567656e6400000000000000000000000000000000000000000000000060648201526084016107e1565b6001600c5460ff166002811115610b0957634e487b7160e01b600052602160045260246000fd5b14610b8a57610b188585611fb9565b610b8a5760405162461bcd60e51b815260206004820152602760248201527f426c656e64696e67204e6f7420416c6c6f776564205769746820506172656e7460448201527f204c6567656e640000000000000000000000000000000000000000000000000060648201526084016107e1565b60006002610b9786610938565b610ba088610938565b610baa9190613a1e565b610bb49190613a36565b9050600a60009054906101000a90046001600160a01b03166001600160a01b031663030032056040518163ffffffff1660e01b815260040160206040518083038186803b158015610c0457600080fd5b505afa158015610c18573d6000803e3d6000fd5b505050506040513d601f19601f82011682018060405250810190610c3c919061338f565b6040517f9f87833f000000000000000000000000000000000000000000000000000000008152336004820152602481018390526001600160a01b039190911690639f87833f90604401600060405180830381600087803b158015610c9f57600080fd5b505af1158015610cb3573d6000803e3d6000fd5b50505050610cc5600b80546001019055565b6000610cd0600b5490565b604080518082019091528881526020810188905290915060005b6002811015610dda57600060156000848460028110610d1957634e487b7160e01b600052603260045260246000fd5b6020020151815260200190815260200160002090506001816008016000828254610d439190613a1e565b925050819055506001816007016000828254610d5f9190613a1e565b909155506001905060186000858560028110610d8b57634e487b7160e01b600052603260045260246000fd5b60200201518152602001908152602001600020600086815260200190815260200160002060006101000a81548160ff021916908315150217905550508080610dd290613ae7565b915050610cea565b506000610e2183610df184845b602002015161200d565b610dfc856001610de7565b604051602001610e0d9291906136e8565b604051602081830303815290604052612163565b9050610e328a8484846000806121c7565b87897f8f02af4ec019b401c0e9f3fd6c02b233d6d5d34ef5d13eed42d576aecc06766c85604051610e6591815260200190565b60405180910390a3509098975050505050505050565b610e85338261235e565b610ef75760405162461bcd60e51b815260206004820152603160248201527f4552433732313a207472616e736665722063616c6c6572206973206e6f74206f60448201527f776e6572206e6f7220617070726f76656400000000000000000000000000000060648201526084016107e1565b610933838383612451565b6000610f0d83611195565b8210610f815760405162461bcd60e51b815260206004820152602b60248201527f455243373231456e756d657261626c653a206f776e657220696e646578206f7560448201527f74206f6620626f756e647300000000000000000000000000000000000000000060648201526084016107e1565b506001600160a01b03919091166000908152600660209081526040808320938352929052205490565b6109338383836040518060200160405280600081525061174c565b601254600082815260156020526040812060070154909110156110505760405162461bcd60e51b815260206004820152602560248201527f4c6567656e64204861732052656163686564204d617820426c656e64696e672060448201527f536c6f747300000000000000000000000000000000000000000000000000000060648201526084016107e1565b506001919050565b600061106360085490565b82106110d75760405162461bcd60e51b815260206004820152602c60248201527f455243373231456e756d657261626c653a20676c6f62616c20696e646578206f60448201527f7574206f6620626f756e6473000000000000000000000000000000000000000060648201526084016107e1565b600882815481106110f857634e487b7160e01b600052603260045260246000fd5b90600052602060002001549050919050565b6000818152600260205260408120546001600160a01b0316806106d45760405162461bcd60e51b815260206004820152602960248201527f4552433732313a206f776e657220717565727920666f72206e6f6e657869737460448201527f656e7420746f6b656e000000000000000000000000000000000000000000000060648201526084016107e1565b60006001600160a01b0382166112135760405162461bcd60e51b815260206004820152602a60248201527f4552433732313a2062616c616e636520717565727920666f7220746865207a6560448201527f726f20616464726573730000000000000000000000000000000000000000000060648201526084016107e1565b506001600160a01b031660009081526003602052604090205490565b336112398461110a565b6001600160a01b03161461124c57600080fd5b61125583611403565b6112a15760405162461bcd60e51b815260206004820152601f60248201527f4c6567656e64204e65656473204c6f6e67657220546f20496e6375626174650060448201526064016107e1565b60008381526015602090815260409182902060090180547fffffffffffffffffffff00ffffffffffffffffffffffffffffffffffffffffff16600160a81b1790558151601f840182900482028101820190925282825261131d918591859085908190840183828082843760009201919091525061263692505050565b827f7212dd6ad91628f15bd648b9d774dd7ece843f5530043c4ccdf0784607ebbbb24260405161134f91815260200190565b60405180910390a2505050565b6000858152601560205260409020611378906002018585612dc5565b506000858152601560205260409020611395906003018383612dc5565b50847f06d4a29ec1d356093e05fa671c13569f2d68546579b6a8ec36b660db70ca390f858585856040516113cc9493929190613863565b60405180910390a25050505050565b600a546001600160a01b031633146113f257600080fd5b6113ff600d826005612e49565b5050565b600081815260156020526040812060090154600160a81b900460ff161561142957600080fd5b60008281526017602052604090205460ff161561144857506001919050565b601454600083815260156020526040812060060154909161146891613a1e565b90508042101561147b5750600092915050565b50600192915050565b6060600180546106e990613aac565b61149b612e95565b6114da336040518060400160405280600681526020017f73656e6465720000000000000000000000000000000000000000000000000000815250612655565b6115216114e68361110a565b6040518060400160405280600581526020017f6f776e6572000000000000000000000000000000000000000000000000000000815250612655565b604080518082019091523381526020810161153b8461110a565b6001600160a01b0316905292915050565b600a546001600160a01b0316331461156357600080fd5b60008281526015602052604081206007018054839290611584908490613a69565b90915550505050565b336115978261110a565b6001600160a01b0316146115aa57600080fd5b6115b3816126c8565b6040518181527f82c02749330cd846562e337f0a18fb1266e17bac7290c5ccd1a7181d94bd65589060200160405180910390a150565b6001600160a01b0382163314156116425760405162461bcd60e51b815260206004820152601960248201527f4552433732313a20617070726f766520746f2063616c6c65720000000000000060448201526064016107e1565b3360008181526005602090815260408083206001600160a01b03871680855290835292819020805460ff191686151590811790915590519081529192917f17307eab39ab6107e8899845ad3d59bd9653f200f220920489ca2b5937696c31910160405180910390a35050565b600a546001600160a01b031633146116c557600080fd5b8161171f57806116e857600c80546000919060ff19166001835b02179055505050565b8060011415611702575050600c805460ff19166001179055565b80600214156113ff57600c80546002919060ff19166001836116df565b816001141561172e5760125550565b816002141561173d5760135550565b81600314156113ff5760145550565b611756338361235e565b6117c85760405162461bcd60e51b815260206004820152603160248201527f4552433732313a207472616e736665722063616c6c6572206973206e6f74206f60448201527f776e6572206e6f7220617070726f76656400000000000000000000000000000060648201526084016107e1565b6117d48484848461277c565b50505050565b6000818152600260205260409020546060906001600160a01b03166118675760405162461bcd60e51b815260206004820152602f60248201527f4552433732314d657461646174613a2055524920717565727920666f72206e6f60448201527f6e6578697374656e7420746f6b656e000000000000000000000000000000000060648201526084016107e1565b600061187e60408051602081019091526000815290565b9050600081511161189e5760405180602001604052806000815250610964565b806118a88461200d565b6040516020016118b99291906135e0565b6040516020818303038152906040529392505050565b600a546001600160a01b031633146118e657600080fd5b6040805160208082018084526000808452858152601590925292902090516119149260029092019190612eb3565b506040805160208082018084526000808452858152601590925292902090516113ff9260039092019190612eb3565b6000818152600260205260409020546060906001600160a01b031661196757600080fd5b6000828152601660205260409020805461198090613aac565b80601f01602080910402602001604051908101604052809291908181526020018280546119ac90613aac565b80156119f95780601f106119ce576101008083540402835291602001916119f9565b820191906000526020600020905b8154815290600101906020018083116119dc57829003601f168201915b50505050509050919050565b600a546001600160a01b03163314611a1c57600080fd5b611a2a600b80546001019055565b6000611a35600b5490565b90506000604051806040016040528060008152602001600081525090506000611a6683611a618761200d565b612163565b600a546040517f1b65cd30000000000000000000000000000000000000000000000000000000008152600481018890529192506000916001600160a01b0390911690631b65cd309060240160206040518083038186803b158015611ac957600080fd5b505afa158015611add573d6000803e3d6000fd5b505050506040513d601f19601f82011682018060405250810190611b01919061333b565b9050611b118785858589866121c7565b50505050505050565b611b22612f27565b6000828152600260205260409020546001600160a01b0316611b4357600080fd5b601560008381526020019081526020016000206040518061018001604052908160008201548152602001600182018054611b7c90613aac565b80601f0160208091040260200160405190810160405280929190818152602001828054611ba890613aac565b8015611bf55780601f10611bca57610100808354040283529160200191611bf5565b820191906000526020600020905b815481529060010190602001808311611bd857829003601f168201915b50505050508152602001600282018054611c0e90613aac565b80601f0160208091040260200160405190810160405280929190818152602001828054611c3a90613aac565b8015611c875780601f10611c5c57610100808354040283529160200191611c87565b820191906000526020600020905b815481529060010190602001808311611c6a57829003601f168201915b50505050508152602001600382018054611ca090613aac565b80601f0160208091040260200160405190810160405280929190818152602001828054611ccc90613aac565b8015611d195780601f10611cee57610100808354040283529160200191611d19565b820191906000526020600020905b815481529060010190602001808311611cfc57829003601f168201915b5050509183525050604080518082019182905260209092019190600484019060029082845b815481526020019060010190808311611d3e5750505091835250506006820154602082015260078201546040820152600882015460608201526009909101546001600160a01b038116608083015260ff600160a01b82048116151560a0840152600160a81b82048116151560c084015276010000000000000000000000000000000000000000000090910416151560e09091015292915050565b60006001600160e01b031982167f80ac58cd000000000000000000000000000000000000000000000000000000001480611e3b57506001600160e01b031982167f5b5e139f00000000000000000000000000000000000000000000000000000000145b806106d457507f01ffc9a7000000000000000000000000000000000000000000000000000000006001600160e01b03198316146106d4565b6000818152600460205260409020805473ffffffffffffffffffffffffffffffffffffffff19166001600160a01b0384169081179091558190611eb58261110a565b6001600160a01b03167f8c5be1e5ebec7d5bd14f71427d1e84f3dd0314c0f7b2291e5b200ac8c7c3b92560405160405180910390a45050565b81516000901580611efe57508151155b15611f0b575060016106d4565b81604051602001611f1c91906135ac565b6040516020818303038152906040528051906020012083604051602001611f4391906135ac565b6040516020818303038152906040528051906020012014158015610964575082604051602001611f7391906135ac565b6040516020818303038152906040528051906020012082604051602001611f9a91906135ac565b6040516020818303038152906040528051906020012014159392505050565b600082815260186020908152604080832084845290915281205460ff1615611fe3575060006106d4565b600082815260186020908152604080832086845290915290205460ff161561147b575060006106d4565b60608161204d57505060408051808201909152600181527f3000000000000000000000000000000000000000000000000000000000000000602082015290565b8160005b8115612077578061206181613ae7565b91506120709050600a83613a36565b9150612051565b60008167ffffffffffffffff8111156120a057634e487b7160e01b600052604160045260246000fd5b6040519080825280601f01601f1916602001820160405280156120ca576020820181803683370190505b5090505b841561215b576120df600183613a69565b91506120ec600a86613b02565b6120f7906030613a1e565b60f81b81838151811061211a57634e487b7160e01b600052603260045260246000fd5b60200101907effffffffffffffffffffffffffffffffffffffffffffffffffffffffffffff1916908160001a905350612154600a86613a36565b94506120ce565b949350505050565b6060600061216f612805565b905061217a8461200d565b600d826005811061219b57634e487b7160e01b600052603260045260246000fd5b01846040516020016121af9392919061360f565b60405160208183030381529060405291505092915050565b6121d1868661284d565b83516000906121e2575060006121e5565b50855b600086815260156020526040808220888155600a5482517fe4eb23ae000000000000000000000000000000000000000000000000000000008152925191936001600160a01b039091169263e4eb23ae9260048083019392829003018186803b15801561225057600080fd5b505afa158015612264573d6000803e3d6000fd5b505050506040513d6000823e601f3d908101601f1916820160405261228c91908101906133ab565b80516122a2916001840191602090910190612eb3565b506122b260048201876002612f8e565b504260068201556009810180546001600160a01b0384167fffffffffffffffffffffff00000000000000000000000000000000000000000090911617600160a01b861515021790556000878152601760205260409020805460ff191684151517905561231e8786612636565b6040516001600160a01b0383169088907f79e5f511bb9bfc9228c8dcb92afe3487a0a2fb935727d236b1c9d0a4fb0ac5ef90600090a35050505050505050565b6000818152600260205260408120546001600160a01b03166123d75760405162461bcd60e51b815260206004820152602c60248201527f4552433732313a206f70657261746f7220717565727920666f72206e6f6e657860448201526b34b9ba32b73a103a37b5b2b760a11b60648201526084016107e1565b60006123e28361110a565b9050806001600160a01b0316846001600160a01b0316148061241d5750836001600160a01b03166124128461076c565b6001600160a01b0316145b8061215b57506001600160a01b0380821660009081526005602090815260408083209388168352929052205460ff1661215b565b826001600160a01b03166124648261110a565b6001600160a01b0316146124e05760405162461bcd60e51b815260206004820152602960248201527f4552433732313a207472616e73666572206f6620746f6b656e2074686174206960448201527f73206e6f74206f776e000000000000000000000000000000000000000000000060648201526084016107e1565b6001600160a01b03821661255b5760405162461bcd60e51b8152602060048201526024808201527f4552433732313a207472616e7366657220746f20746865207a65726f2061646460448201527f726573730000000000000000000000000000000000000000000000000000000060648201526084016107e1565b6125668383836129a8565b612571600082611e73565b6001600160a01b038316600090815260036020526040812080546001929061259a908490613a69565b90915550506001600160a01b03821660009081526003602052604081208054600192906125c8908490613a1e565b9091555050600081815260026020526040808220805473ffffffffffffffffffffffffffffffffffffffff19166001600160a01b0386811691821790925591518493918716917fddf252ad1be2c89b69c2b068fc378daa952ba7f163c4a11628f55a4df523b3ef91a4505050565b6000828152601660209081526040909120825161093392840190612eb3565b6113ff828260405160240161266b92919061377c565b60408051601f198184030181529190526020810180517bffffffffffffffffffffffffffffffffffffffffffffffffffffffff167f759f86bb00000000000000000000000000000000000000000000000000000000179052612a60565b60006126d38261110a565b90506126e1816000846129a8565b6126ec600083611e73565b6001600160a01b0381166000908152600360205260408120805460019290612715908490613a69565b9091555050600082815260026020526040808220805473ffffffffffffffffffffffffffffffffffffffff19169055518391906001600160a01b038416907fddf252ad1be2c89b69c2b068fc378daa952ba7f163c4a11628f55a4df523b3ef908390a45050565b612787848484612451565b61279384848484612a81565b6117d45760405162461bcd60e51b815260206004820152603260248201527f4552433732313a207472616e7366657220746f206e6f6e20455243373231526560448201527f63656976657220696d706c656d656e746572000000000000000000000000000060648201526084016107e1565b600060054442604051602001612825929190918252602082015260400190565b6040516020818303038152906040528051906020012060001c6128489190613b02565b905090565b6001600160a01b0382166128a35760405162461bcd60e51b815260206004820181905260248201527f4552433732313a206d696e7420746f20746865207a65726f206164647265737360448201526064016107e1565b6000818152600260205260409020546001600160a01b0316156129085760405162461bcd60e51b815260206004820152601c60248201527f4552433732313a20746f6b656e20616c7265616479206d696e7465640000000060448201526064016107e1565b612914600083836129a8565b6001600160a01b038216600090815260036020526040812080546001929061293d908490613a1e565b9091555050600081815260026020526040808220805473ffffffffffffffffffffffffffffffffffffffff19166001600160a01b03861690811790915590518392907fddf252ad1be2c89b69c2b068fc378daa952ba7f163c4a11628f55a4df523b3ef908290a45050565b6001600160a01b038316612a03576129fe81600880546000838152600960205260408120829055600182018355919091527ff3f7a9fe364faab93b216da50a3214154f22a0a2b415b23a84c8169e8b636ee30155565b612a26565b816001600160a01b0316836001600160a01b031614612a2657612a268382612be4565b6001600160a01b038216612a3d5761093381612c81565b826001600160a01b0316826001600160a01b031614610933576109338282612d5a565b80516a636f6e736f6c652e6c6f67602083016000808483855afa5050505050565b60006001600160a01b0384163b15612bd957604051630a85bd0160e11b81526001600160a01b0385169063150b7a0290612ac5903390899088908890600401613740565b602060405180830381600087803b158015612adf57600080fd5b505af1925050508015612b0f575060408051601f3d908101601f19168201909252612b0c91810190613373565b60015b612bbf573d808015612b3d576040519150601f19603f3d011682016040523d82523d6000602084013e612b42565b606091505b508051612bb75760405162461bcd60e51b815260206004820152603260248201527f4552433732313a207472616e7366657220746f206e6f6e20455243373231526560448201527f63656976657220696d706c656d656e746572000000000000000000000000000060648201526084016107e1565b805181602001fd5b6001600160e01b031916630a85bd0160e11b14905061215b565b506001949350505050565b60006001612bf184611195565b612bfb9190613a69565b600083815260076020526040902054909150808214612c4e576001600160a01b03841660009081526006602090815260408083208584528252808320548484528184208190558352600790915290208190555b5060009182526007602090815260408084208490556001600160a01b039094168352600681528383209183525290812055565b600854600090612c9390600190613a69565b60008381526009602052604081205460088054939450909284908110612cc957634e487b7160e01b600052603260045260246000fd5b906000526020600020015490508060088381548110612cf857634e487b7160e01b600052603260045260246000fd5b6000918252602080832090910192909255828152600990915260408082208490558582528120556008805480612d3e57634e487b7160e01b600052603160045260246000fd5b6001900381819060005260206000200160009055905550505050565b6000612d6583611195565b6001600160a01b039093166000908152600660209081526040808320868452825280832085905593825260079052919091209190915550565b6040518060a001604052806005905b6060815260200190600190039081612dad5790505090565b828054612dd190613aac565b90600052602060002090601f016020900481019282612df35760008555612e39565b82601f10612e0c5782800160ff19823516178555612e39565b82800160010185558215612e39579182015b82811115612e39578235825591602001919060010190612e1e565b50612e45929150612fbb565b5090565b8260058101928215612e89579160200282015b82811115612e895782518051612e79918491602090910190612eb3565b5091602001919060010190612e5c565b50612e45929150612fd0565b60405180604001604052806002906020820280368337509192915050565b828054612ebf90613aac565b90600052602060002090601f016020900481019282612ee15760008555612e39565b82601f10612efa57805160ff1916838001178555612e39565b82800160010185558215612e39579182015b82811115612e39578251825591602001919060010190612f0c565b60405180610180016040528060008152602001606081526020016060815260200160608152602001612f57612e95565b815260006020820181905260408201819052606082018190526080820181905260a0820181905260c0820181905260e09091015290565b8260028101928215612e395791602002820182811115612e39578251825591602001919060010190612f0c565b5b80821115612e455760008155600101612fbc565b80821115612e45576000612fe48282612fed565b50600101612fd0565b508054612ff990613aac565b6000825580601f10613009575050565b601f0160209004906000526020600020908101906130279190612fbb565b50565b600061303d613038846139f6565b6139c5565b905082815283838301111561305157600080fd5b828260208301376000602084830101529392505050565b60008083601f840112613079578182fd5b50813567ffffffffffffffff811115613090578182fd5b6020830191508360208285010111156130a857600080fd5b9250929050565b6000602082840312156130c0578081fd5b813561096481613b58565b600080604083850312156130dd578081fd5b82356130e881613b58565b915060208301356130f881613b58565b809150509250929050565b600080600060608486031215613117578081fd5b833561312281613b58565b9250602084013561313281613b58565b929592945050506040919091013590565b60008060008060808587031215613158578081fd5b843561316381613b58565b9350602085013561317381613b58565b925060408501359150606085013567ffffffffffffffff811115613195578182fd5b8501601f810187136131a5578182fd5b6131b48782356020840161302a565b91505092959194509250565b600080604083850312156131d2578182fd5b82356131dd81613b58565b915060208301356130f881613b6d565b600080604083850312156131ff578182fd5b823561320a81613b58565b946020939093013593505050565b60008060006060848603121561322c578283fd5b833561323781613b58565b925060208401359150604084013561324e81613b6d565b809150509250925092565b60008060006060848603121561326d578081fd5b833561327881613b58565b95602085013595506040909401359392505050565b6000602080838503121561329f578182fd5b823567ffffffffffffffff808211156132b6578384fd5b8185019150601f86818401126132ca578485fd5b6132d261399c565b80848960a0870111156132e3578788fd5b875b600581101561332c578135868111156132fc57898afd5b87018581018c1361330b57898afd5b6133198c82358b840161302a565b85525092870192908701906001016132e5565b50909998505050505050505050565b60006020828403121561334c578081fd5b815161096481613b6d565b600060208284031215613368578081fd5b813561096481613b7b565b600060208284031215613384578081fd5b815161096481613b7b565b6000602082840312156133a0578081fd5b815161096481613b58565b6000602082840312156133bc578081fd5b815167ffffffffffffffff8111156133d2578182fd5b8201601f810184136133e2578182fd5b80516133f0613038826139f6565b818152856020838501011115613404578384fd5b613415826020830160208601613a80565b95945050505050565b60006020828403121561342f578081fd5b5035919050565b60008060006040848603121561344a578081fd5b83359250602084013567ffffffffffffffff811115613467578182fd5b61347386828701613068565b9497909650939450505050565b600080600080600060608688031215613497578283fd5b85359450602086013567ffffffffffffffff808211156134b5578485fd5b6134c189838a01613068565b909650945060408801359150808211156134d9578283fd5b506134e688828901613068565b969995985093965092949392505050565b60008060408385031215613509578182fd5b50508035926020909101359150565b8060005b60028110156117d457815184526020938401939091019060010161351c565b60008151808452613553816020860160208601613a80565b601f01601f19169290920160200192915050565b81835281816020850137506000828201602090810191909152601f909101601f19169091010190565b600081516135a2818560208601613a80565b9290920192915050565b60008183825b60028110156135d15781518352602092830192909101906001016135b2565b50505060408201905092915050565b600083516135f2818460208801613a80565b835190830190613606818360208801613a80565b01949350505050565b6000845160206136228285838a01613a80565b600b60fa1b9184019182528554600190849080831c8184168061364657607f821691505b85821081141561366457634e487b7160e01b88526022600452602488fd5b808015613678576001811461368d576136bd565b60ff19841688870152828801860194506136bd565b60008c815260209020895b848110156136b35781548a8201890152908701908801613698565b5050858389010194505b505050506136db6136d582600b60fa1b815260010190565b88613590565b9998505050505050505050565b600083516136fa818460208801613a80565b7f2b000000000000000000000000000000000000000000000000000000000000009083019081528351613734816001840160208801613a80565b01600101949350505050565b60006001600160a01b03808716835280861660208401525083604083015260806060830152613772608083018461353b565b9695505050505050565b6001600160a01b038316815260406020820152600061215b604083018461353b565b60408101818360005b60028110156137cf5781516001600160a01b03168352602092830192909101906001016137a7565b50505092915050565b602080825260009060c0830183820185845b600581101561381957601f1987850301835261380784835161353b565b935091840191908401906001016137ea565b50919695505050505050565b608081016003861061384757634e487b7160e01b600052602160045260246000fd5b9481526020810193909352604083019190915260609091015290565b604081526000613877604083018688613567565b828103602084015261388a818587613567565b979650505050505050565b602081526000610964602083018461353b565b6020815281516020820152600060208301516101a08060408501526138d16101c085018361353b565b91506040850151601f19808685030160608701526138ef848361353b565b935060608701519150808685030160808701525061390d838261353b565b925050608085015161392260a0860182613518565b5060a085015160e085015260c0850151610100818187015260e0870151915061012082818801528188015192506101409150613968828801846001600160a01b03169052565b870151915061016061397d8782018415159052565b9087015115156101808701529590950151151593019290925250919050565b60405160a0810167ffffffffffffffff811182821017156139bf576139bf613b42565b60405290565b604051601f8201601f1916810167ffffffffffffffff811182821017156139ee576139ee613b42565b604052919050565b600067ffffffffffffffff821115613a1057613a10613b42565b50601f01601f191660200190565b60008219821115613a3157613a31613b16565b500190565b600082613a4557613a45613b2c565b500490565b6000816000190483118215151615613a6457613a64613b16565b500290565b600082821015613a7b57613a7b613b16565b500390565b60005b83811015613a9b578181015183820152602001613a83565b838111156117d45750506000910152565b600181811c90821680613ac057607f821691505b60208210811415613ae157634e487b7160e01b600052602260045260246000fd5b50919050565b6000600019821415613afb57613afb613b16565b5060010190565b600082613b1157613b11613b2c565b500690565b634e487b7160e01b600052601160045260246000fd5b634e487b7160e01b600052601260045260246000fd5b634e487b7160e01b600052604160045260246000fd5b6001600160a01b038116811461302757600080fd5b801515811461302757600080fd5b6001600160e01b03198116811461302757600080fdfea2646970667358221220c29e18b935352929d48e0f8c761c1aab9bb1ca66f1a453d8125a2e639935cd4664736f6c63430008040033697066733a2f2f516d534c5a364c514b626f46487863617a6b72614162564a514256393869316878367044704c77714d69656e4777697066733a2f2f516d526e414a34383174576667594b78485943645954517357543432574545645572374261614252663252583146697066733a2f2f516d58714751385361556d3763736174515641415465686e455162327a645a48634656784c6459447142334e584a697066733a2f2f516d656f5272756d4b34684e4c62794278517a587441383158554a744d326848636758423756375464614b744d36697066733a2f2f516d5a72375752335939527a784b4b627a4b766b41486b6e616f46584e6377464e5348373965586a4d374b6b64566101406040527f6e71edae12b1b97f4d1f60370fef10105fa2faae0126114a169c64845d6126c9610120523480156200003757600080fd5b5060405162001856380380620018568339810160408190526200005a916200034b565b604051806040016040528060078152602001664c6567656e647360c81b81525080604051806040016040528060018152602001603160f81b815250604051806040016040528060078152602001664c6567656e647360c81b815250604051806040016040528060048152602001631311d39160e21b8152508160039080519060200190620000ea929190620002a5565b50805162000100906004906020840190620002a5565b5050825160209384012082519284019290922060c083815260e08290524660a0818152604080517f8b73c3c69bb8fe3d512ecc4cf759cc79239f7b179b0ffacaa9a75d522b39400f818a01819052818301989098526060810195909552608080860193909352308583015280518086039092018252939092019092528051940193909320909252610100525050600680546001600160a01b03191633179055620001b6816a52b7d2dcc80cd2e4000000620001bd565b50620003dd565b6001600160a01b038216620002185760405162461bcd60e51b815260206004820152601f60248201527f45524332303a206d696e7420746f20746865207a65726f206164647265737300604482015260640160405180910390fd5b80600260008282546200022c91906200037b565b90915550506001600160a01b038216600090815260208190526040812080548392906200025b9084906200037b565b90915550506040518181526001600160a01b038316906000907fddf252ad1be2c89b69c2b068fc378daa952ba7f163c4a11628f55a4df523b3ef9060200160405180910390a35050565b828054620002b390620003a0565b90600052602060002090601f016020900481019282620002d7576000855562000322565b82601f10620002f257805160ff191683800117855562000322565b8280016001018555821562000322579182015b828111156200032257825182559160200191906001019062000305565b506200033092915062000334565b5090565b5b8082111562000330576000815560010162000335565b6000602082840312156200035d578081fd5b81516001600160a01b038116811462000374578182fd5b9392505050565b600082198211156200039b57634e487b7160e01b81526011600452602481fd5b500190565b600181811c90821680620003b557607f821691505b60208210811415620003d757634e487b7160e01b600052602260045260246000fd5b50919050565b60805160a05160c05160e05161010051610120516114296200042d600039600061070a01526000610be101526000610c3001526000610c0b01526000610b8f01526000610bb801526114296000f3fe608060405234801561001057600080fd5b506004361061011b5760003560e01c806370a08231116100b2578063a457c2d711610081578063b3f0cfaf11610066578063b3f0cfaf14610242578063d505accf14610255578063dd62ed3e1461026857600080fd5b8063a457c2d71461021c578063a9059cbb1461022f57600080fd5b806370a08231146101c55780637ecebe00146101ee57806395d89b41146102015780639f87833f1461020957600080fd5b8063313ce567116100ee578063313ce567146101865780633644e51514610195578063395093511461019d57806342966c68146101b057600080fd5b806306fdde0314610120578063095ea7b31461013e57806318160ddd1461016157806323b872dd14610173575b600080fd5b6101286102a1565b6040516101359190611311565b60405180910390f35b61015161014c3660046112b2565b610333565b6040519015158152602001610135565b6002545b604051908152602001610135565b6101516101813660046111fd565b610349565b60405160128152602001610135565b61016561040d565b6101516101ab3660046112b2565b61041c565b6101c36101be3660046112f9565b610458565b005b6101656101d33660046111a2565b6001600160a01b031660009081526020819052604090205490565b6101656101fc3660046111a2565b610465565b610128610485565b6101c36102173660046112b2565b610494565b61015161022a3660046112b2565b610588565b61015161023d3660046112b2565b610639565b6101c36102503660046112f9565b610646565b6101c361026336600461123d565b6106b6565b6101656102763660046111c5565b6001600160a01b03918216600090815260016020908152604080832093909416825291909152205490565b6060600380546102b090611393565b80601f01602080910402602001604051908101604052809291908181526020018280546102dc90611393565b80156103295780601f106102fe57610100808354040283529160200191610329565b820191906000526020600020905b81548152906001019060200180831161030c57829003601f168201915b5050505050905090565b600061034033848461081a565b50600192915050565b6000610356848484610973565b6001600160a01b0384166000908152600160209081526040808320338452909152902054828110156103f55760405162461bcd60e51b815260206004820152602860248201527f45524332303a207472616e7366657220616d6f756e742065786365656473206160448201527f6c6c6f77616e636500000000000000000000000000000000000000000000000060648201526084015b60405180910390fd5b610402853385840361081a565b506001949350505050565b6000610417610b8b565b905090565b3360008181526001602090815260408083206001600160a01b03871684529091528120549091610340918590610453908690611364565b61081a565b6104623382610c7e565b50565b6001600160a01b0381166000908152600560205260408120545b92915050565b6060600480546102b090611393565b600660009054906101000a90046001600160a01b03166001600160a01b0316631944f20d6040518163ffffffff1660e01b815260040160206040518083038186803b1580156104e257600080fd5b505afa1580156104f6573d6000803e3d6000fd5b505050506040513d601f19601f8201168201806040525081019061051a91906112dd565b6001600160a01b0316336001600160a01b03161461057a5760405162461bcd60e51b815260206004820152601a60248201527f4e6f742043616c6c6564204279204e465420436f6e747261637400000000000060448201526064016103ec565b6105848282610c7e565b5050565b3360009081526001602090815260408083206001600160a01b0386168452909152812054828110156106225760405162461bcd60e51b815260206004820152602560248201527f45524332303a2064656372656173656420616c6c6f77616e63652062656c6f7760448201527f207a65726f00000000000000000000000000000000000000000000000000000060648201526084016103ec565b61062f338585840361081a565b5060019392505050565b6000610340338484610973565b6006546001600160a01b031633146106a05760405162461bcd60e51b815260206004820152601760248201527f4e6f742043616c6c6564204279204c61622041646d696e00000000000000000060448201526064016103ec565b600654610462906001600160a01b031682610c7e565b834211156107065760405162461bcd60e51b815260206004820152601d60248201527f45524332305065726d69743a206578706972656420646561646c696e6500000060448201526064016103ec565b60007f00000000000000000000000000000000000000000000000000000000000000008888886107358c610dfb565b6040805160208101969096526001600160a01b0394851690860152929091166060840152608083015260a082015260c0810186905260e001604051602081830303815290604052805190602001209050600061079082610e23565b905060006107a082878787610e8c565b9050896001600160a01b0316816001600160a01b0316146108035760405162461bcd60e51b815260206004820152601e60248201527f45524332305065726d69743a20696e76616c6964207369676e6174757265000060448201526064016103ec565b61080e8a8a8a61081a565b50505050505050505050565b6001600160a01b0383166108955760405162461bcd60e51b8152602060048201526024808201527f45524332303a20617070726f76652066726f6d20746865207a65726f2061646460448201527f726573730000000000000000000000000000000000000000000000000000000060648201526084016103ec565b6001600160a01b0382166109115760405162461bcd60e51b815260206004820152602260248201527f45524332303a20617070726f766520746f20746865207a65726f20616464726560448201527f737300000000000000000000000000000000000000000000000000000000000060648201526084016103ec565b6001600160a01b0383811660008181526001602090815260408083209487168084529482529182902085905590518481527f8c5be1e5ebec7d5bd14f71427d1e84f3dd0314c0f7b2291e5b200ac8c7c3b92591015b60405180910390a3505050565b6001600160a01b0383166109ef5760405162461bcd60e51b815260206004820152602560248201527f45524332303a207472616e736665722066726f6d20746865207a65726f20616460448201527f647265737300000000000000000000000000000000000000000000000000000060648201526084016103ec565b6001600160a01b038216610a6b5760405162461bcd60e51b815260206004820152602360248201527f45524332303a207472616e7366657220746f20746865207a65726f206164647260448201527f657373000000000000000000000000000000000000000000000000000000000060648201526084016103ec565b6001600160a01b03831660009081526020819052604090205481811015610afa5760405162461bcd60e51b815260206004820152602660248201527f45524332303a207472616e7366657220616d6f756e742065786365656473206260448201527f616c616e6365000000000000000000000000000000000000000000000000000060648201526084016103ec565b6001600160a01b03808516600090815260208190526040808220858503905591851681529081208054849290610b31908490611364565b92505081905550826001600160a01b0316846001600160a01b03167fddf252ad1be2c89b69c2b068fc378daa952ba7f163c4a11628f55a4df523b3ef84604051610b7d91815260200190565b60405180910390a350505050565b60007f0000000000000000000000000000000000000000000000000000000000000000461415610bda57507f000000000000000000000000000000000000000000000000000000000000000090565b50604080517f00000000000000000000000000000000000000000000000000000000000000006020808301919091527f0000000000000000000000000000000000000000000000000000000000000000828401527f000000000000000000000000000000000000000000000000000000000000000060608301524660808301523060a0808401919091528351808403909101815260c0909201909252805191012090565b6001600160a01b038216610cfa5760405162461bcd60e51b815260206004820152602160248201527f45524332303a206275726e2066726f6d20746865207a65726f2061646472657360448201527f730000000000000000000000000000000000000000000000000000000000000060648201526084016103ec565b6001600160a01b03821660009081526020819052604090205481811015610d895760405162461bcd60e51b815260206004820152602260248201527f45524332303a206275726e20616d6f756e7420657863656564732062616c616e60448201527f636500000000000000000000000000000000000000000000000000000000000060648201526084016103ec565b6001600160a01b0383166000908152602081905260408120838303905560028054849290610db890849061137c565b90915550506040518281526000906001600160a01b038516907fddf252ad1be2c89b69c2b068fc378daa952ba7f163c4a11628f55a4df523b3ef90602001610966565b6001600160a01b03811660009081526005602052604090208054600181018255905b50919050565b600061047f610e30610b8b565b836040517f19010000000000000000000000000000000000000000000000000000000000006020820152602281018390526042810182905260009060620160405160208183030381529060405280519060200120905092915050565b6000806000610e9d87878787610eb4565b91509150610eaa81610fa1565b5095945050505050565b6000807f7fffffffffffffffffffffffffffffff5d576e7357a4501ddfe92f46681b20a0831115610eeb5750600090506003610f98565b8460ff16601b14158015610f0357508460ff16601c14155b15610f145750600090506004610f98565b6040805160008082526020820180845289905260ff881692820192909252606081018690526080810185905260019060a0016020604051602081039080840390855afa158015610f68573d6000803e3d6000fd5b5050604051601f1901519150506001600160a01b038116610f9157600060019250925050610f98565b9150600090505b94509492505050565b6000816004811115610fc357634e487b7160e01b600052602160045260246000fd5b1415610fcc5750565b6001816004811115610fee57634e487b7160e01b600052602160045260246000fd5b141561103c5760405162461bcd60e51b815260206004820152601860248201527f45434453413a20696e76616c6964207369676e6174757265000000000000000060448201526064016103ec565b600281600481111561105e57634e487b7160e01b600052602160045260246000fd5b14156110ac5760405162461bcd60e51b815260206004820152601f60248201527f45434453413a20696e76616c6964207369676e6174757265206c656e6774680060448201526064016103ec565b60038160048111156110ce57634e487b7160e01b600052602160045260246000fd5b14156111275760405162461bcd60e51b815260206004820152602260248201527f45434453413a20696e76616c6964207369676e6174757265202773272076616c604482015261756560f01b60648201526084016103ec565b600481600481111561114957634e487b7160e01b600052602160045260246000fd5b14156104625760405162461bcd60e51b815260206004820152602260248201527f45434453413a20696e76616c6964207369676e6174757265202776272076616c604482015261756560f01b60648201526084016103ec565b6000602082840312156111b3578081fd5b81356111be816113de565b9392505050565b600080604083850312156111d7578081fd5b82356111e2816113de565b915060208301356111f2816113de565b809150509250929050565b600080600060608486031215611211578081fd5b833561121c816113de565b9250602084013561122c816113de565b929592945050506040919091013590565b600080600080600080600060e0888a031215611257578283fd5b8735611262816113de565b96506020880135611272816113de565b95506040880135945060608801359350608088013560ff81168114611295578384fd5b9699959850939692959460a0840135945060c09093013592915050565b600080604083850312156112c4578182fd5b82356112cf816113de565b946020939093013593505050565b6000602082840312156112ee578081fd5b81516111be816113de565b60006020828403121561130a578081fd5b5035919050565b6000602080835283518082850152825b8181101561133d57858101830151858201604001528201611321565b8181111561134e5783604083870101525b50601f01601f1916929092016040019392505050565b60008219821115611377576113776113c8565b500190565b60008282101561138e5761138e6113c8565b500390565b600181811c908216806113a757607f821691505b60208210811415610e1d57634e487b7160e01b600052602260045260246000fd5b634e487b7160e01b600052601160045260246000fd5b6001600160a01b038116811461046257600080fdfea2646970667358221220423ea6d6340ca2c170b45db25c594e62a868631ab1844262164fa5a32c09b23f64736f6c6343000804003360806040526103e860025560056003556001600455620493e060055534801561002757600080fd5b506001600081905580546001600160a01b031916331790556117ae8061004e6000396000f3fe608060405234801561001057600080fd5b50600436106100c95760003560e01c80634c89c21811610081578063c9d8745a1161005b578063c9d8745a1461020b578063ca9d8fd01461021e578063fb5de0c41461023157600080fd5b80634c89c218146101b95780638d3d9989146101cc578063ade9ffb5146101df57600080fd5b80630c69ebcd116100b25780630c69ebcd146100f6578063121ee095146101095780634b259eaa1461013657600080fd5b806301526a43146100ce57806307e79620146100e3575b600080fd5b6100e16100dc36600461168b565b610244565b005b6100e16100f1366004611614565b6102a8565b6100e161010436600461168b565b610750565b61011c61011736600461168b565b6107af565b604080519283526020830191909152015b60405180910390f35b61014961014436600461168b565b61084d565b60405161012d91906000610100820190506001600160a01b038084511683528060208501511660208401525060408301516040830152606083015160608301526080830151608083015260a083015160a083015260c083015160c083015260e0830151151560e083015292915050565b6100e16101c736600461168b565b610988565b6100e16101da36600461168b565b6109e7565b60025460035460045460055460408051948552602085019390935291830152606082015260800161012d565b6100e16102193660046116bb565b610bce565b6100e161022c36600461168b565b610f45565b6100e161023f3660046116bb565b610fa4565b6001546001600160a01b031633146102a35760405162461bcd60e51b815260206004820152601760248201527f4e6f742043616c6c6564204279204c61622041646d696e00000000000000000060448201526064015b60405180910390fd5b600355565b600260005414156102fb5760405162461bcd60e51b815260206004820152601f60248201527f5265656e7472616e637947756172643a207265656e7472616e742063616c6c00604482015260640161029a565b60026000908155828152600660205260409020600781015484919060ff16156103665760405162461bcd60e51b815260206004820152601c60248201527f4c6567656e6420416c7265616479204f6363757079696e6720506f6400000000604482015260640161029a565b6002548310156103de5760405162461bcd60e51b815260206004820152603c60248201527f4c474e4420546f6b656e20416d6f756e74204d757374204d656574205468652060448201527f4d696e696d756d20546f2052656a7576656e617465204c6567656e6400000000606482015260840161029a565b60006003546002546103f09190611714565b9050808411156104575760405162461bcd60e51b815260206004820152602c60248201527f4c474e4420546f6b656e20416d6f756e742043616e204e6f742045786365656460448201526b0813585e08105b1b1bddd95960a21b606482015260840161029a565b6040516323b872dd60e01b8152336004820152306024820152604481018690526001600160a01b038416906323b872dd90606401600060405180830381600087803b1580156104a557600080fd5b505af11580156104b9573d6000803e3d6000fd5b50505050600160009054906101000a90046001600160a01b03166001600160a01b031663030032056040518163ffffffff1660e01b815260040160206040518083038186803b15801561050b57600080fd5b505afa15801561051f573d6000803e3d6000fd5b505050506040513d601f19601f82011682018060405250810190610543919061166f565b6040516323b872dd60e01b8152336004820152306024820152604481018690526001600160a01b0391909116906323b872dd90606401602060405180830381600087803b15801561059357600080fd5b505af11580156105a7573d6000803e3d6000fd5b505050506040513d601f19601f820116820180604052508101906105cb9190611648565b5081546001600160a01b038088167fffffffffffffffffffffffff000000000000000000000000000000000000000092831617845560018085018054909316331790925543600285015590546040517f04bc22640000000000000000000000000000000000000000000000000000000081529116906304bc22649061065890889060040190815260200190565b60206040518083038186803b15801561067057600080fd5b505afa158015610684573d6000803e3d6000fd5b505050506040513d601f19601f820116820180604052508101906106a891906116a3565b6003830155600482018490556106bd846113b3565b600583015560078201805460ff1916600190811790915560405190815285907fe1f0053afd5619f5757e1a2ce608e79ee12e7887eade511e50e6a769d49102229060200160405180910390a2847f19f48ee12cb815777d6a9110b9a9ab55c74b4f8bfbb6597069244c09ddaf34598560405161073b91815260200190565b60405180910390a25050600160005550505050565b6001546001600160a01b031633146107aa5760405162461bcd60e51b815260206004820152601760248201527f4e6f742043616c6c6564204279204c61622041646d696e000000000000000000604482015260640161029a565b600255565b600081815260066020526040812060070154819060ff166108125760405162461bcd60e51b815260206004820152601b60248201527f4c6567656e64204973204e6f74204f6363757079696e6720506f640000000000604482015260640161029a565b600061081d846113db565b60008581526006602052604081206003015460055492935090916108419190611714565b91959194509092505050565b6108a960405180610100016040528060006001600160a01b0316815260200160006001600160a01b0316815260200160008152602001600081526020016000815260200160008152602001600081526020016000151581525090565b60008281526006602052604090206007015460ff1661090a5760405162461bcd60e51b815260206004820152601b60248201527f4c6567656e64204973204e6f74204f6363757079696e6720506f640000000000604482015260640161029a565b5060009081526006602081815260409283902083516101008101855281546001600160a01b039081168252600183015416928101929092526002810154938201939093526003830154606082015260048301546080820152600583015460a08201529082015460c082015260079091015460ff16151560e082015290565b6001546001600160a01b031633146109e25760405162461bcd60e51b815260206004820152601760248201527f4e6f742043616c6c6564204279204c61622041646d696e000000000000000000604482015260640161029a565b600455565b60026000541415610a3a5760405162461bcd60e51b815260206004820152601f60248201527f5265656e7472616e637947756172643a207265656e7472616e742063616c6c00604482015260640161029a565b60026000908155818152600660205260409020600781015460ff16610aa15760405162461bcd60e51b815260206004820152601b60248201527f4c6567656e64204973204e6f74204f6363757079696e6720506f640000000000604482015260640161029a565b60018101546001600160a01b03163314610afd5760405162461bcd60e51b815260206004820152601b60248201527f43616c6c657220446964204e6f7420456e746572204c6567656e640000000000604482015260640161029a565b60078101805460ff191690556004810154610b19908390610fa4565b60006006820155805460018201546040516323b872dd60e01b81523060048201526001600160a01b039182166024820152604481018590529116906323b872dd90606401600060405180830381600087803b158015610b7757600080fd5b505af1158015610b8b573d6000803e3d6000fd5b5050604051600081528492507fe1f0053afd5619f5757e1a2ce608e79ee12e7887eade511e50e6a769d4910222915060200160405180910390a250506001600055565b60026000541415610c215760405162461bcd60e51b815260206004820152601f60248201527f5265656e7472616e637947756172643a207265656e7472616e742063616c6c00604482015260640161029a565b60026000908155828152600660205260409020600781015460ff16610c885760405162461bcd60e51b815260206004820152601b60248201527f4c6567656e64204973204e6f74204f6363757079696e6720506f640000000000604482015260640161029a565b60018101546001600160a01b03163314610ce45760405162461bcd60e51b815260206004820152601b60248201527f43616c6c657220446964204e6f7420456e746572204c6567656e640000000000604482015260640161029a565b81610d315760405162461bcd60e51b815260206004820152601360248201527f416d6f756e742043616e204e6f74204265203000000000000000000000000000604482015260640161029a565b6000828260040154610d4391906116dc565b90506000600354600254610d579190611714565b905080836004015485610d6a91906116dc565b1115610dcd5760405162461bcd60e51b815260206004820152602c60248201527f4c474e4420546f6b656e20416d6f756e742043616e204e6f742045786365656460448201526b0813585e08105b1b1bddd95960a21b606482015260840161029a565b600383015415610de057610de0856114c7565b600160009054906101000a90046001600160a01b03166001600160a01b031663030032056040518163ffffffff1660e01b815260040160206040518083038186803b158015610e2e57600080fd5b505afa158015610e42573d6000803e3d6000fd5b505050506040513d601f19601f82011682018060405250810190610e66919061166f565b6040516323b872dd60e01b8152336004820152306024820152604481018690526001600160a01b0391909116906323b872dd90606401602060405180830381600087803b158015610eb657600080fd5b505af1158015610eca573d6000803e3d6000fd5b505050506040513d601f19601f82011682018060405250810190610eee9190611648565b5060048301829055610eff826113b3565b600584015560405182815285907f19f48ee12cb815777d6a9110b9a9ab55c74b4f8bfbb6597069244c09ddaf34599060200160405180910390a250506001600055505050565b6001546001600160a01b03163314610f9f5760405162461bcd60e51b815260206004820152601760248201527f4e6f742043616c6c6564204279204c61622041646d696e000000000000000000604482015260640161029a565b600555565b60026000541415610ff75760405162461bcd60e51b815260206004820152601f60248201527f5265656e7472616e637947756172643a207265656e7472616e742063616c6c00604482015260640161029a565b60026000908155828152600660205260409020600781015460ff1661105e5760405162461bcd60e51b815260206004820152601b60248201527f4c6567656e64204973204e6f74204f6363757079696e6720506f640000000000604482015260640161029a565b60018101546001600160a01b031633146110ba5760405162461bcd60e51b815260206004820152601b60248201527f43616c6c657220446964204e6f7420456e746572204c6567656e640000000000604482015260640161029a565b816111075760405162461bcd60e51b815260206004820152601360248201527f416d6f756e742043616e204e6f74204265203000000000000000000000000000604482015260640161029a565b80600401548211156111815760405162461bcd60e51b815260206004820152602660248201527f416d6f756e742043616e204e6f742042652047726561746572205468616e205360448201527f6563757265640000000000000000000000000000000000000000000000000000606482015260840161029a565b806004015482146112135760025482826004015461119f9190611733565b10156112135760405162461bcd60e51b815260206004820152602d60248201527f52656d61696e696e6720416d6f756e742043616e204e6f74204265204c65737360448201527f205468616e204d696e696d756d00000000000000000000000000000000000000606482015260840161029a565b60038101541561122657611226836114c7565b60008282600401546112389190611733565b60048301819055905061124a816113b3565b6005830155600154604080517f0300320500000000000000000000000000000000000000000000000000000000815290516001600160a01b0390921691630300320591600480820192602092909190829003018186803b1580156112ad57600080fd5b505afa1580156112c1573d6000803e3d6000fd5b505050506040513d601f19601f820116820180604052508101906112e5919061166f565b6040516323b872dd60e01b8152306004820152336024820152604481018590526001600160a01b0391909116906323b872dd90606401602060405180830381600087803b15801561133557600080fd5b505af1158015611349573d6000803e3d6000fd5b505050506040513d601f19601f8201168201806040525081019061136d9190611648565b50837f6d2e26fda994c75f3495c56e81ccad25eaf7688557ee435cfb808c1692588596826040516113a091815260200190565b60405180910390a2505060016000555050565b600080600254836113c491906116f4565b90506003548111156113d557506003545b92915050565b600081815260066020818152604080842081516101008101835281546001600160a01b03908116825260018301541693810193909352600281015491830191909152600381015460608301526004808201546080840152600582015460a084018190529382015460c084015260079091015460ff16151560e083015254909183916114669190611714565b9050600082604001514361147a9190611733565b905060008360c00151828461148f9190611714565b61149991906116dc565b9050600084606001516005546114af9190611714565b9050808211156114bd578091505b5095945050505050565b600081815260066020526040812090806114e0846115cb565b43600286015590925090508115611589576001546040517f9d147ce900000000000000000000000000000000000000000000000000000000815260048101869052602481018490526001600160a01b0390911690639d147ce990604401600060405180830381600087803b15801561155757600080fd5b505af115801561156b573d6000803e3d6000fd5b50505050818360030160008282546115839190611733565b90915550505b6006830181905560405182815284907f1c9377a71fc8ecca76c771676a3bae304a1bca2b12e63a7a8a3496b1ef0c88259060200160405180910390a250505050565b60008060006115d9846113db565b90506000600554826115eb91906116f4565b90506000600554826115fd9190611714565b6116079084611733565b9196919550909350505050565b600080600060608486031215611628578283fd5b833561163381611760565b95602085013595506040909401359392505050565b600060208284031215611659578081fd5b81518015158114611668578182fd5b9392505050565b600060208284031215611680578081fd5b815161166881611760565b60006020828403121561169c578081fd5b5035919050565b6000602082840312156116b4578081fd5b5051919050565b600080604083850312156116cd578182fd5b50508035926020909101359150565b600082198211156116ef576116ef61174a565b500190565b60008261170f57634e487b7160e01b81526012600452602481fd5b500490565b600081600019048311821515161561172e5761172e61174a565b500290565b6000828210156117455761174561174a565b500390565b634e487b7160e01b600052601160045260246000fd5b6001600160a01b038116811461177557600080fd5b5056fea2646970667358221220878986883037f59dbb87d9c89eb570bd651452c10261c9241b1f35e4cc3111da64736f6c634300080400336206978060038181556101006040526203f48060a090815260c09290925262093a8060e0526200003291600791620000ac565b50610258600a55600260125560026013553480156200005057600080fd5b506040516200005f90620000f6565b604051809103906000f0801580156200007c573d6000803e3d6000fd5b5060601b6001600160601b031916608052600160105560118054336001600160a01b03199091161790556200011b565b8260038101928215620000e4579160200282015b82811115620000e4578251829062ffffff16905591602001919060010190620000c0565b50620000f292915062000104565b5090565b610d19806200376d83390190565b5b80821115620000f2576000815560010162000105565b60805160601c6135fb620001726000396000818161082f01528181610db9015281816121e201528181612675015281816127250152818161285c01528181612b2e0152818161301701526130c901526135fb6000f3fe6080604052600436106101a15760003560e01c806370d59e91116100e1578063b54babda1161008a578063d3e88c5f11610064578063d3e88c5f1461053a578063d9548e531461055a578063e5a255cb1461058a578063fbc8e19d1461059d57600080fd5b8063b54babda146104a0578063c11f1f8e146104c0578063c63e927a1461050d57600080fd5b80639979ef45116100bb5780639979ef451461040d5780639c1ecb5114610420578063b1e95dbe1461048d57600080fd5b806370d59e91146103ba5780638ada7716146103cd5780638ba9458f146103ed57600080fd5b8063340d3b501161014e5780634a3f133e116101285780634a3f133e146102c95780635ac10dc8146102d157806363d3a813146103145780636df49b911461038d57600080fd5b8063340d3b5014610263578063443af2ba1461028357806345480859146102a357600080fd5b80632a25194f1161017f5780632a25194f1461020e5780633244cce81461022357806333ca8a461461024357600080fd5b80631837e533146101a65780631f282bac146101c857806326d29ce0146101fb575b600080fd5b3480156101b257600080fd5b506101c66101c136600461326c565b6105e3565b005b3480156101d457600080fd5b506101e86101e33660046131d5565b6107f4565b6040519081526020015b60405180910390f35b6101c66102093660046132f1565b6108b2565b34801561021a57600080fd5b506101c6610942565b34801561022f57600080fd5b506101c661023e366004613350565b610964565b34801561024f57600080fd5b506101c661025e366004613374565b610d24565b34801561026f57600080fd5b506101e861027e366004613321565b610d77565b34801561028f57600080fd5b506101c661029e3660046132af565b610e3c565b3480156102af57600080fd5b506102b8610e60565b6040516101f29594939291906134ca565b6101c6610ec1565b3480156102dd57600080fd5b506102f16102ec3660046132f1565b610f39565b604080519384526001600160a01b039092166020840152908201526060016101f2565b34801561032057600080fd5b50610371604080516020808201835260009182905282518082018452829052825180820184528290528251808201845291548252825180820184526001548152835191820190935260025481529092565b60408051935184529151602084015251908201526060016101f2565b34801561039957600080fd5b506103ad6103a83660046132f1565b611163565b6040516101f291906133b7565b6101c66103c83660046132f1565b6111ee565b3480156103d957600080fd5b506101c66103e8366004613238565b611414565b3480156103f957600080fd5b506101c66104083660046132f1565b6116cf565b6101c661041b3660046132f1565b611970565b34801561042c57600080fd5b5061044061043b3660046132f1565b611c90565b6040516101f29190600060a0820190508251825260208301516020830152604083015160408301526001600160a01b03606084015116606083015260808301511515608083015292915050565b6101c661049b36600461320d565b611d4b565b3480156104ac57600080fd5b506101e86104bb3660046132f1565b611f4c565b3480156104cc57600080fd5b506104e06104db3660046132f1565b611f84565b60408051825181526020808401516001600160a01b031690820152918101511515908201526060016101f2565b34801561051957600080fd5b5061052d6105283660046132f1565b612011565b6040516101f29190613412565b34801561054657600080fd5b506101e86105553660046131d5565b6121a7565b34801561056657600080fd5b5061057a6105753660046132f1565b612213565b60405190151581526020016101f2565b6101c66105983660046132f1565b612254565b3480156105a957600080fd5b5061057a6105b8366004613321565b6000918252600f602090815260408084206001600160a01b0393909316845291905290205460ff1690565b6002601054141561063b5760405162461bcd60e51b815260206004820152601f60248201527f5265656e7472616e637947756172643a207265656e7472616e742063616c6c0060448201526064015b60405180910390fd5b60026010556011546040517f99ea58440000000000000000000000000000000000000000000000000000000081526004810186905286916001600160a01b0316906399ea58449060240160206040518083038186803b15801561069d57600080fd5b505afa1580156106b1573d6000803e3d6000fd5b505050506040513d601f19601f820116820180604052508101906106d591906132d5565b6106de57600080fd5b826106e857600080fd5b81156106fa578282116106fa57600080fd5b600384111561074b5760405162461bcd60e51b815260206004820152601960248201527f4475726174696f6e20496e64657820497320496e76616c6964000000000000006044820152606401610632565b60006007856003811061076e57634e487b7160e01b600052603260045260246000fd5b01546040516323b872dd60e01b8152336004820152306024820152604481018890529091506001600160a01b038316906323b872dd90606401600060405180830381600087803b1580156107c157600080fd5b505af11580156107d5573d6000803e3d6000fd5b505050506107e68787838787612510565b505060016010555050505050565b6040517f1f282bac0000000000000000000000000000000000000000000000000000000081526001600160a01b0382811660048301526000917f000000000000000000000000000000000000000000000000000000000000000090911690631f282bac906024015b60206040518083038186803b15801561087457600080fd5b505afa158015610888573d6000803e3d6000fd5b505050506040513d601f19601f820116820180604052508101906108ac9190613309565b92915050565b600260105414156109055760405162461bcd60e51b815260206004820152601f60248201527f5265656e7472616e637947756172643a207265656e7472616e742063616c6c006044820152606401610632565b60026010556000818152600f6020908152604080832033845290915290205460ff1661093057600080fd5b61093a8133612636565b506001601055565b6011546001600160a01b0316331461095957600080fd5b610962306126d6565b565b600260105414156109b75760405162461bcd60e51b815260206004820152601f60248201527f5265656e7472616e637947756172643a207265656e7472616e742063616c6c006044820152606401610632565b60026010819055600083815260046020818152604080842081516101408101835281548152600182015493810193909352948501546001600160a01b03908116918301919091526003808601546060840152928501548116608083015260058501541660a0820152600684015460c0820152600784015460ff808216151560e084015261010080830482161515908401529394919391926101208501926201000090920490911690811115610a7c57634e487b7160e01b600052602160045260246000fd5b6003811115610a9b57634e487b7160e01b600052602160045260246000fd5b905250604081015190915060018261012001516003811115610acd57634e487b7160e01b600052602160045260246000fd5b14610ad757600080fd5b6000848152600560205260409020544210610b345760405162461bcd60e51b815260206004820152601960248201527f4f666665722048617320416c72656164792045787069726564000000000000006044820152606401610632565b60608201516040516331a9108f60e11b815260048101919091526001600160a01b03821690636352211e9060240160206040518083038186803b158015610b7a57600080fd5b505afa158015610b8e573d6000803e3d6000fd5b505050506040513d601f19601f82011682018060405250810190610bb291906131f1565b6001600160a01b0316336001600160a01b0316148015610beb57506000848152600560205260409020600101546001600160a01b031633145b610c375760405162461bcd60e51b815260206004820152601860248201527f4c6567656e64204f776e657220486173204368616e67656400000000000000006044820152606401610632565b610c418484612754565b8215610cb85760608201516040516323b872dd60e01b815233600482015230602482015260448101919091526001600160a01b038216906323b872dd90606401600060405180830381600087803b158015610c9b57600080fd5b505af1158015610caf573d6000803e3d6000fd5b50505050610cea565b6000848152600f6020908152604080832060a08601516001600160a01b031684529091529020805460ff191660011790555b6040518315159085907fbe84c08cacf7be329858d01a82d1e99b4e5a8f9a9df7a04b16c1f070e449b49990600090a3505060016010555050565b6011546001600160a01b03163314610d3b57600080fd5b81610d465760125550565b8160011415610d555760135550565b8160021415610d645760035550565b8160031415610d7357600a8190555b5050565b6040517f340d3b50000000000000000000000000000000000000000000000000000000008152600481018390526001600160a01b0382811660248301526000917f00000000000000000000000000000000000000000000000000000000000000009091169063340d3b509060440160206040518083038186803b158015610dfd57600080fd5b505afa158015610e11573d6000803e3d6000fd5b505050506040513d601f19601f82011682018060405250810190610e359190613309565b9392505050565b6011546001600160a01b03163314610e5357600080fd5b610d736007826003613164565b600080600080610e6e6131a2565b60125460135460038054600a5460408051606081019182905292939192600792909183919082845b815481526020019060010190808311610e965750505050509050945094509450945094509091929394565b60026010541415610f145760405162461bcd60e51b815260206004820152601f60248201527f5265656e7472616e637947756172643a207265656e7472616e742063616c6c006044820152606401610632565b60026010556000610f24336121a7565b905080610f3057600080fd5b61093a33612824565b60008181526004602081815260408084208151610140810183528154815260018201549381019390935260028101546001600160a01b039081169284019290925260038082015460608501529381015482166080840152600581015490911660a0830152600681015460c0830152600781015460ff808216151560e0850152610100808304821615159085015285948594859490939092610120850192620100009092041690811115610ffc57634e487b7160e01b600052602160045260246000fd5b600381111561101b57634e487b7160e01b600052602160045260246000fd5b815250509050600060646013548360c001516110379190613553565b6110419190613533565b60115460608401516040517fea832ddd0000000000000000000000000000000000000000000000000000000081529293506000926001600160a01b039092169163ea832ddd916110979160040190815260200190565b60206040518083038186803b1580156110af57600080fd5b505afa1580156110c3573d6000803e3d6000fd5b505050506040513d601f19601f820116820180604052508101906110e791906131f1565b905060006001600160a01b038216156111555783608001516001600160a01b0316826001600160a01b031614611155578360a001516001600160a01b0316826001600160a01b0316146111555760646012548560c001516111489190613553565b6111529190613533565b90505b919790965090945092505050565b60008181526004602052604090206007015460609060ff1661118457600080fd5b6000828152600d6020908152604091829020805483518184028101840190945280845290918301828280156111e257602002820191906000526020600020905b81546001600160a01b031681526001909101906020018083116111c4575b50505050509050919050565b600260105414156112415760405162461bcd60e51b815260206004820152601f60248201527f5265656e7472616e637947756172643a207265656e7472616e742063616c6c006044820152606401610632565b60026010819055600082815260046020818152604080842081516101408101835281548152600182015493810193909352948501546001600160a01b03908116918301919091526003808601546060840152928501548116608083015260058501541660a0820152600684015460c0820152600784015460ff808216151560e08401526101008083048216151590840152939491939192610120850192620100009092049091169081111561130657634e487b7160e01b600052602160045260246000fd5b600381111561132557634e487b7160e01b600052602160045260246000fd5b90525090506001816101200151600381111561135157634e487b7160e01b600052602160045260246000fd5b1461135b57600080fd5b80608001516001600160a01b0316336001600160a01b0316141561137e57600080fd5b8060c0015134146113f75760405162461bcd60e51b815260206004820152602560248201527f496e636f7272656374205072696365205375626d697474656420466f72204c6960448201527f7374696e670000000000000000000000000000000000000000000000000000006064820152608401610632565b6114028260006128bb565b61140b8261292d565b50506001601055565b600260105414156114675760405162461bcd60e51b815260206004820152601f60248201527f5265656e7472616e637947756172643a207265656e7472616e742063616c6c006044820152606401610632565b60026010556040516331a9108f60e11b815260048101839052839033906001600160a01b03831690636352211e9060240160206040518083038186803b1580156114b057600080fd5b505afa1580156114c4573d6000803e3d6000fd5b505050506040513d601f19601f820116820180604052508101906114e891906131f1565b6001600160a01b03161461153e5760405162461bcd60e51b815260206004820152600660248201527f6f776e74727300000000000000000000000000000000000000000000000000006044820152606401610632565b60115460405163ced3e3f160e01b8152600481018590526001600160a01b039091169063ced3e3f19060240160206040518083038186803b15801561158257600080fd5b505afa158015611596573d6000803e3d6000fd5b505050506040513d601f19601f820116820180604052508101906115ba91906132d5565b6116065760405162461bcd60e51b815260206004820152600b60248201527f4e6f7420486174636865640000000000000000000000000000000000000000006044820152606401610632565b816116535760405162461bcd60e51b815260206004820152601260248201527f50726963652063616e206e6f74206265203000000000000000000000000000006044820152606401610632565b6040516323b872dd60e01b8152336004820152306024820152604481018490526001600160a01b038216906323b872dd90606401600060405180830381600087803b1580156116a157600080fd5b505af11580156116b5573d6000803e3d6000fd5b505050506116c48484846129c1565b505060016010555050565b600260105414156117225760405162461bcd60e51b815260206004820152601f60248201527f5265656e7472616e637947756172643a207265656e7472616e742063616c6c006044820152606401610632565b60026010819055600082815260046020818152604080842081516101408101835281548152600182015493810193909352948501546001600160a01b03908116918301919091526003808601546060840152928501548116608083015260058501541660a0820152600684015460c0820152600784015460ff808216151560e0840152610100808304821615159084015293949193919261012085019262010000909204909116908111156117e757634e487b7160e01b600052602160045260246000fd5b600381111561180657634e487b7160e01b600052602160045260246000fd5b90525090506001816101200151600381111561183257634e487b7160e01b600052602160045260246000fd5b1461183c57600080fd5b8061010001511561186e578060a001516001600160a01b0316336001600160a01b03161461186957600080fd5b611890565b80608001516001600160a01b0316336001600160a01b03161461189057600080fd5b8060e00151156118b3576000828152600d6020526040902054156118b357600080fd5b6118bc82612a8a565b806101000151156118f0576000828152600f602090815260408083203384529091529020805460ff1916600117905561140b565b6040808201516080830151606084015192516323b872dd60e01b81523060048201526001600160a01b039182166024820152604481019390935216906323b872dd90606401600060405180830381600087803b15801561194f57600080fd5b505af1158015611963573d6000803e3d6000fd5b5050505050506001601055565b600260105414156119c35760405162461bcd60e51b815260206004820152601f60248201527f5265656e7472616e637947756172643a207265656e7472616e742063616c6c006044820152606401610632565b60026010556000818152600460209081526040808320600b9092529091206001600783015462010000900460ff166003811115611a1057634e487b7160e01b600052602160045260246000fd5b14611a1a57600080fd5b611a2383612213565b15611a705760405162461bcd60e51b815260206004820152601b60248201527f41756374696f6e2048617320416c7265616479204578706972656400000000006044820152606401610632565b60048201546001600160a01b0316331415611af35760405162461bcd60e51b815260206004820152602160248201527f53656c6c65722043616e204e6f7420426964204f6e204f776e204c697374696e60448201527f67000000000000000000000000000000000000000000000000000000000000006064820152608401610632565b6000611aff8433610d77565b6000858152600d6020526040902054909150611b6e578160010154341015611b695760405162461bcd60e51b815260206004820152601460248201527f5374617274696e6720426964204e6f74204d65740000000000000000000000006044820152606401610632565b611bf4565b6000848152600b60205260409020600201548111611bf45760405162461bcd60e51b815260206004820152602360248201527f426964206d75737420626520686967686572207468616e2063757272656e742060448201527f62696400000000000000000000000000000000000000000000000000000000006064820152608401610632565b6000848152600f60209081526040808320338085529252909120805460ff19169055611c239034908690612aef565b6000848152600f6020908152604080832060038601546001600160a01b031684529091529020805460ff19166001179055611c5e8482612b91565b6003820154600160a01b900460ff16156116c4576000848152600c602052604090205481106116c4576116c484612c99565b611ccd6040518060a0016040528060008152602001600081526020016000815260200160006001600160a01b031681526020016000151581525090565b60008281526004602052604090206007015460ff16611ceb57600080fd5b506000908152600b6020908152604091829020825160a081018452815481526001820154928101929092526002810154928201929092526003909101546001600160a01b0381166060830152600160a01b900460ff161515608082015290565b60026010541415611d9e5760405162461bcd60e51b815260206004820152601f60248201527f5265656e7472616e637947756172643a207265656e7472616e742063616c6c006044820152606401610632565b60026010556040516331a9108f60e11b81526004810182905282906000906001600160a01b03831690636352211e9060240160206040518083038186803b158015611de857600080fd5b505afa158015611dfc573d6000803e3d6000fd5b505050506040513d601f19601f82011682018060405250810190611e2091906131f1565b9050336001600160a01b0382161415611e3857600080fd5b60115460405163ced3e3f160e01b8152600481018590526001600160a01b039091169063ced3e3f19060240160206040518083038186803b158015611e7c57600080fd5b505afa158015611e90573d6000803e3d6000fd5b505050506040513d601f19601f82011682018060405250810190611eb491906132d5565b611ebd57600080fd5b34611ec757600080fd5b6000611ed4858386612d4a565b6000818152600f60209081526040808320338085529252909120805460ff19169055909150611f069034908390612aef565b807f6d13017ad90cf7d9f398b5753f263aa0ddf37bacd59019879304f9fa0213077434604051611f3891815260200190565b60405180910390a250506001601055505050565b6000818152600b6020526040812060030154600160a01b900460ff16611f7157600080fd5b506000908152600c602052604090205490565b6040805160608101825260008082526020820181905291810191909152600082815260046020526040902060070154610100900460ff16611fc457600080fd5b506000908152600560209081526040918290208251606081018452815481526001909101546001600160a01b03811692820192909252600160a01b90910460ff1615159181019190915290565b6120666040805161014081018252600080825260208201819052918101829052606081018290526080810182905260a0810182905260c0810182905260e0810182905261010081018290529061012082015290565b8161207060005490565b8111156120bf5760405162461bcd60e51b815260206004820152601660248201527f4c697374696e6720446f6573204e6f74204578697374000000000000000000006044820152606401610632565b6000838152600460208181526040928390208351610140810185528154815260018201549281019290925260028101546001600160a01b039081169483019490945260038082015460608401529281015484166080830152600581015490931660a0820152600683015460c0820152600783015460ff808216151560e08401526101008083048216151590840152919392610120850192620100009092049091169081111561217e57634e487b7160e01b600052602160045260246000fd5b600381111561219d57634e487b7160e01b600052602160045260246000fd5b9052509392505050565b6040517fd3e88c5f0000000000000000000000000000000000000000000000000000000081526001600160a01b0382811660048301526000917f00000000000000000000000000000000000000000000000000000000000000009091169063d3e88c5f9060240161085c565b6000818152600b602090815260408083205460049092528220600101548291829161223e919061351b565b90508042111561224d57600191505b5092915050565b600260105414156122a75760405162461bcd60e51b815260206004820152601f60248201527f5265656e7472616e637947756172643a207265656e7472616e742063616c6c006044820152606401610632565b60026010556000818152600460208181526040808420600b909252909220908201546001600160a01b03163314806122eb575060058201546001600160a01b031633145b80612302575060038101546001600160a01b031633145b61234e5760405162461bcd60e51b815260206004820152601c60248201527f43616c6c65722043616e204e6f7420436c6f7365204c697374696e67000000006044820152606401610632565b600782015460ff16156123f3576001600783015462010000900460ff16600381111561238a57634e487b7160e01b600052602160045260246000fd5b14156123ee5761239983612213565b6123e55760405162461bcd60e51b815260206004820152601b60248201527f41756374696f6e20486173204e6f7420596574204578706972656400000000006044820152606401610632565b6123ee83612c99565b61242c565b6002600783015462010000900460ff16600381111561242257634e487b7160e01b600052602160045260246000fd5b1461242c57600080fd5b600782015460ff168061244857506007820154610100900460ff165b1561248a5760008381526014602052604090205460ff1661248a576000838152601460205260409020805460ff1916600190811790915561248a9084906128bb565b60048201546001600160a01b03163314156124bb5760048201546124b6906001600160a01b03166126d6565b6124d9565b60058201546001600160a01b03163314156124d9576124d983612e0e565b604051339084907f4100f70c133e1c4066c72b21f815cec87ab6d5f89acabf924ca488d47c08bf7b90600090a35050600160105550565b61251e600080546001019055565b6000805490821561253e57506000818152600c6020526040902082905560015b6000828152600460208190526040909120838155426001808301919091556002820180546001600160a01b038c166001600160a01b031991821617909155600383018a9055928201805484163317905560058201805490931690925560078101805460ff1981168417825591929162ff00ff19168217620100008302179055506000838152600b602052604090819020878155600180820188905560038201805460ff60a01b1916600160a01b871515021790559151909185917fab8013f69383454f861c325aa79a70266ccaf52ad8683c842832a8df74c57a259161262391613404565b60405180910390a2505050505050505050565b6040517f03073828000000000000000000000000000000000000000000000000000000008152600481018390526001600160a01b0382811660248301527f000000000000000000000000000000000000000000000000000000000000000016906303073828906044015b600060405180830381600087803b1580156126ba57600080fd5b505af11580156126ce573d6000803e3d6000fd5b505050505050565b60006126e1826107f4565b9050806126ed57600080fd5b6040517f31b3eb940000000000000000000000000000000000000000000000000000000081526001600160a01b0383811660048301527f000000000000000000000000000000000000000000000000000000000000000016906331b3eb94906024016126a0565b600082815260046020526040902081156127e85760078101805462ff00001916620200001790556004810180546001600160a01b0319163317905560009283526005602081815260408086206001908101805460ff60a01b1916600160a01b17905560038501546006845282882094909501546001600160a01b03168752929091529093205550805481019055565b505050565b600701805462ff00001916620300001790555060009081526005602052604090206001908101805460ff60a01b19169055600280549091019055565b6040517f968db7830000000000000000000000000000000000000000000000000000000081526001600160a01b0382811660048301527f0000000000000000000000000000000000000000000000000000000000000000169063968db78390602401600060405180830381600087803b1580156128a057600080fd5b505af11580156128b4573d6000803e3d6000fd5b5050505050565b60008281526004602052604081209080806128d586610f39565b925092509250841561290e57600584015460048501546129099188916001600160a01b039182169187918691889116612fba565b6126ce565b60048401546126ce9034908590849086906001600160a01b031661307b565b600081815260046020908152604080832060078101805462ff00001916620200001790556005810180546001600160a01b0319163390811790915560038201546006855283862091865293529220556001805481019055817fab8013f69383454f861c325aa79a70266ccaf52ad8683c842832a8df74c57a2560026040516129b59190613404565b60405180910390a25050565b6129cf600080546001019055565b6000805480825260046020819052604092839020828155426001808301919091556002820180546001600160a01b038a166001600160a01b0319918216179091556003830188905592820180548416331790556005820180549093169092556006810185905560078101805462ff0000191662010000179055925191929183917fab8013f69383454f861c325aa79a70266ccaf52ad8683c842832a8df74c57a2591612a7b9190613404565b60405180910390a25050505050565b6000818152600460205260409020600701805462ff0000191662030000179055600280546001019055807fab8013f69383454f861c325aa79a70266ccaf52ad8683c842832a8df74c57a256003604051612ae49190613404565b60405180910390a250565b6040517f7c9fe43a000000000000000000000000000000000000000000000000000000008152600481018390526001600160a01b0382811660248301527f00000000000000000000000000000000000000000000000000000000000000001690637c9fe43a9085906044016000604051808303818588803b158015612b7357600080fd5b505af1158015612b87573d6000803e3d6000fd5b5050505050505050565b6000828152600b60209081526040808320600e83528184203385529092529091205460ff16612c0d576000838152600d602090815260408083208054600181810183559185528385200180546001600160a01b03191633908117909155878552600e8452828520908552909252909120805460ff191690911790555b600281018290556003810180546001600160a01b03191633179055612c318361310e565b156127e3576000838152600c60205260409020548210156127e357600a548154612c5b919061351b565b80825560405190815283907f6e912a3a9105bdd2af817ba5adc14e6c127c1035b5b648faa29ca0d58ab8ff4e906020015b60405180910390a2505050565b6000818152600460209081526040808320600b8352818420600380820180546005850180546001600160a01b0319166001600160a01b03928316179055600284015460068087019190915560078601805462ff000019166202000017905592850154928752858820915416875290945291909320919091556001805481019055827fab8013f69383454f861c325aa79a70266ccaf52ad8683c842832a8df74c57a256002604051612c8c9190613404565b600080546001908101808355808352600460208181526040808620848155429581018690556002810180546001600160a01b038c166001600160a01b03199182161790915560038083018a9055948201805482169055600580830180549092163317909155346006830181905560078301805462ffff001916620101001790559352908620925493949193909291612de2919061351b565b815560010180546001600160a01b0388166001600160a01b031990911617905550909150509392505050565b60008181526004602081815260408084208151610140810183528154815260018201549381019390935260028101546001600160a01b039081169284019290925260038082015460608501529381015482166080840152600581015490911660a0830152600681015460c0830152600781015460ff808216151560e0850152610100808304821615159085015292939192610120850192620100009092041690811115612ecb57634e487b7160e01b600052602160045260246000fd5b6003811115612eea57634e487b7160e01b600052602160045260246000fd5b905250600083815260066020908152604080832060a08501516001600160a01b0316845290915290205490915080612f2157600080fd5b600083815260066020908152604080832060a0860180516001600160a01b039081168652919093528184209390935584810151915190516323b872dd60e01b81523060048201529083166024820152604481018490529116906323b872dd90606401600060405180830381600087803b158015612f9d57600080fd5b505af1158015612fb1573d6000803e3d6000fd5b50505050505050565b6040517f2408c803000000000000000000000000000000000000000000000000000000008152600481018790526001600160a01b0386811660248301526044820186905260648201859052838116608483015282811660a48301527f00000000000000000000000000000000000000000000000000000000000000001690632408c8039060c401600060405180830381600087803b15801561305b57600080fd5b505af115801561306f573d6000803e3d6000fd5b50505050505050505050565b6040517f1ca44e9500000000000000000000000000000000000000000000000000000000815260048101859052602481018490526001600160a01b03838116604483015282811660648301527f00000000000000000000000000000000000000000000000000000000000000001690631ca44e959087906084016000604051808303818588803b15801561305b57600080fd5b6000818152600b6020908152604080832054600490925282206001015482918291613139919061351b565b905080421080156131555750600a546131529082613572565b42115b1561224d575060019392505050565b8260038101928215613192579160200282015b82811115613192578235825591602001919060010190613177565b5061319e9291506131c0565b5090565b60405180606001604052806003906020820280368337509192915050565b5b8082111561319e57600081556001016131c1565b6000602082840312156131e6578081fd5b8135610e358161359f565b600060208284031215613202578081fd5b8151610e358161359f565b6000806040838503121561321f578081fd5b823561322a8161359f565b946020939093013593505050565b60008060006060848603121561324c578081fd5b83356132578161359f565b95602085013595506040909401359392505050565b600080600080600060a08688031215613283578081fd5b853561328e8161359f565b97602087013597506040870135966060810135965060800135945092505050565b6000606082840312156132c0578081fd5b826060830111156132cf578081fd5b50919050565b6000602082840312156132e6578081fd5b8151610e35816135b7565b600060208284031215613302578081fd5b5035919050565b60006020828403121561331a578081fd5b5051919050565b60008060408385031215613333578182fd5b8235915060208301356133458161359f565b809150509250929050565b60008060408385031215613362578182fd5b823591506020830135613345816135b7565b60008060408385031215613386578182fd5b50508035926020909101359150565b600481106133b357634e487b7160e01b600052602160045260246000fd5b9052565b6020808252825182820181905260009190848201906040850190845b818110156133f85783516001600160a01b0316835292840192918401916001016133d3565b50909695505050505050565b602081016108ac8284613395565b6000610140820190508251825260208301516020830152604083015161344360408401826001600160a01b03169052565b5060608301516060830152608083015161346860808401826001600160a01b03169052565b5060a083015161348360a08401826001600160a01b03169052565b5060c083015160c083015260e08301516134a160e084018215159052565b5061010083810151151590830152610120808401516134c282850182613395565b505092915050565b600060e08201905086825260208681840152856040840152846060840152608083018460005b600381101561350d578151835291830191908301906001016134f0565b505050509695505050505050565b6000821982111561352e5761352e613589565b500190565b60008261354e57634e487b7160e01b81526012600452602481fd5b500490565b600081600019048311821515161561356d5761356d613589565b500290565b60008282101561358457613584613589565b500390565b634e487b7160e01b600052601160045260246000fd5b6001600160a01b03811681146135b457600080fd5b50565b80151581146135b457600080fdfea2646970667358221220af05cc26bb9e6ee44b1bdada7cf055a5f52fabce09c507121832c4e2eacfda3064736f6c63430008040033608060405234801561001057600080fd5b5061001a33610031565b600180546001600160a01b03191633179055610081565b600080546001600160a01b038381166001600160a01b0319831681178455604051919092169283917f8be0079c531659141344cd1fd0a4f28419497f9722a3daafe3b4186f6b6457e09190a35050565b610c89806100906000396000f3fe6080604052600436106100c75760003560e01c8063715018a611610074578063968db7831161004e578063968db78314610210578063d3e88c5f14610230578063f2fde38b1461026657600080fd5b8063715018a6146101c05780637c9fe43a146101d55780638da5cb5b146101e857600080fd5b80632408c803116100a55780632408c8031461013d57806331b3eb941461015d578063340d3b501461017d57600080fd5b806303073828146100cc5780631ca44e95146100e15780631f282bac146100f4575b600080fd5b6100df6100da366004610b1f565b610286565b005b6100df6100ef366004610b97565b610353565b34801561010057600080fd5b5061012a61010f366004610acd565b6001600160a01b031660009081526002602052604090205490565b6040519081526020015b60405180910390f35b34801561014957600080fd5b506100df610158366004610b31565b61049d565b34801561016957600080fd5b506100df610178366004610acd565b6105a9565b34801561018957600080fd5b5061012a610198366004610af0565b60009182526003602090815260408084206001600160a01b0393909316845291905290205490565b3480156101cc57600080fd5b506100df610672565b6100df6101e3366004610af0565b6106d8565b3480156101f457600080fd5b506000546040516001600160a01b039091168152602001610134565b34801561021c57600080fd5b506100df61022b366004610acd565b6107a8565b34801561023c57600080fd5b5061012a61024b366004610acd565b6001600160a01b031660009081526004602052604090205490565b34801561027257600080fd5b506100df610281366004610acd565b610865565b6000546001600160a01b031633146102e55760405162461bcd60e51b815260206004820181905260248201527f4f776e61626c653a2063616c6c6572206973206e6f7420746865206f776e657260448201526064015b60405180910390fd5b60008281526003602090815260408083206001600160a01b0385168085529252822080549290556103169082610947565b604051818152339084907fa59312996dc68b7f0224b341fed75d5afeb3bb20624107d37942d14f59428156906020015b60405180910390a3505050565b6000546001600160a01b031633146103ad5760405162461bcd60e51b815260206004820181905260248201527f4f776e61626c653a2063616c6c6572206973206e6f7420746865206f776e657260448201526064016102dc565b6001546001600160a01b0316600090815260026020526040812080548692906103d7908490610be0565b90915550508215610410576001600160a01b0382166000908152600460205260408120805485929061040a908490610be0565b90915550505b600061041c8486610be0565b6104269034610bf8565b6001600160a01b038316600090815260026020526040812080549293508392909190610453908490610be0565b90915550506040518181526001600160a01b038316907fd348a8f42fae8db1d0030271b37ed6d94a5e292ff36db57b244ffe13f494dd459060200160405180910390a25050505050565b6000546001600160a01b031633146104f75760405162461bcd60e51b815260206004820181905260248201527f4f776e61626c653a2063616c6c6572206973206e6f7420746865206f776e657260448201526064016102dc565b60008681526003602090815260408083206001600160a01b03898116855292528083208054939055517f1ca44e950000000000000000000000000000000000000000000000000000000081526004810187905260248101869052848216604482015290831660648201523090631ca44e959083906084016000604051808303818588803b15801561058757600080fd5b505af115801561059b573d6000803e3d6000fd5b505050505050505050505050565b6000546001600160a01b031633146106035760405162461bcd60e51b815260206004820181905260248201527f4f776e61626c653a2063616c6c6572206973206e6f7420746865206f776e657260448201526064016102dc565b6001600160a01b038116600081815260026020526040812080549190559061062b9082610947565b816001600160a01b03167fd8102a2d73a808d6664a3116966c123291d07ec500edf12e27ee919d7b81bd3c8260405161066691815260200190565b60405180910390a25050565b6000546001600160a01b031633146106cc5760405162461bcd60e51b815260206004820181905260248201527f4f776e61626c653a2063616c6c6572206973206e6f7420746865206f776e657260448201526064016102dc565b6106d66000610a65565b565b6000546001600160a01b031633146107325760405162461bcd60e51b815260206004820181905260248201527f4f776e61626c653a2063616c6c6572206973206e6f7420746865206f776e657260448201526064016102dc565b60008281526003602090815260408083206001600160a01b0385168452909152812080543492839291610766908490610be0565b90915550506040518181526001600160a01b0383169084907f0e54eff26401bf69b81b26f60bd85ef47f5d85275c1d268d84f68d6897431c4790602001610346565b6000546001600160a01b031633146108025760405162461bcd60e51b815260206004820181905260248201527f4f776e61626c653a2063616c6c6572206973206e6f7420746865206f776e657260448201526064016102dc565b6001600160a01b038116600081815260046020526040812080549190559061082a9082610947565b816001600160a01b03167f312b70e5726648ad7ab64374bb491934c2732cfb4f8c285ea2c1bbe4fa07f3db8260405161066691815260200190565b6000546001600160a01b031633146108bf5760405162461bcd60e51b815260206004820181905260248201527f4f776e61626c653a2063616c6c6572206973206e6f7420746865206f776e657260448201526064016102dc565b6001600160a01b03811661093b5760405162461bcd60e51b815260206004820152602660248201527f4f776e61626c653a206e6577206f776e657220697320746865207a65726f206160448201527f646472657373000000000000000000000000000000000000000000000000000060648201526084016102dc565b61094481610a65565b50565b804710156109975760405162461bcd60e51b815260206004820152601d60248201527f416464726573733a20696e73756666696369656e742062616c616e636500000060448201526064016102dc565b6000826001600160a01b03168260405160006040518083038185875af1925050503d80600081146109e4576040519150601f19603f3d011682016040523d82523d6000602084013e6109e9565b606091505b5050905080610a605760405162461bcd60e51b815260206004820152603a60248201527f416464726573733a20756e61626c6520746f2073656e642076616c75652c207260448201527f6563697069656e74206d6179206861766520726576657274656400000000000060648201526084016102dc565b505050565b600080546001600160a01b038381167fffffffffffffffffffffffff0000000000000000000000000000000000000000831681178455604051919092169283917f8be0079c531659141344cd1fd0a4f28419497f9722a3daafe3b4186f6b6457e09190a35050565b600060208284031215610ade578081fd5b8135610ae981610c3e565b9392505050565b60008060408385031215610b02578081fd5b823591506020830135610b1481610c3e565b809150509250929050565b60008060408385031215610b02578182fd5b60008060008060008060c08789031215610b49578182fd5b863595506020870135610b5b81610c3e565b945060408701359350606087013592506080870135610b7981610c3e565b915060a0870135610b8981610c3e565b809150509295509295509295565b60008060008060808587031215610bac578384fd5b84359350602085013592506040850135610bc581610c3e565b91506060850135610bd581610c3e565b939692955090935050565b60008219821115610bf357610bf3610c0f565b500190565b600082821015610c0a57610c0a610c0f565b500390565b7f4e487b7100000000000000000000000000000000000000000000000000000000600052601160045260246000fd5b6001600160a01b038116811461094457600080fdfea264697066735822122030936803e212f625bdb1fb4cc8327a465f443ab4fc87db6df72ced3bf926b35764736f6c63430008040033608060405234801561001057600080fd5b506001600655600780546001600160a01b03191633179055612009806100376000396000f3fe608060405234801561001057600080fd5b50600436106100be5760003560e01c806348c54b9d11610076578063a3ac75b31161005b578063a3ac75b3146101aa578063ce1109fb146101bd578063dae7d1d8146101dc57600080fd5b806348c54b9d1461018f578063556fa5251461019757600080fd5b80632014a935116100a75780632014a93514610149578063401537911461015c578063405c81e91461016f57600080fd5b8063050bf88e146100c357806308c8aec2146100d8575b600080fd5b6100d66100d1366004611e06565b6101ef565b005b610128604080516020808201835260009182905282518082018452829052825180820184528290528251808201845291548252825180820184526001548152835191820190935260025481529092565b60408051935184529151602084015251908201526060015b60405180910390f35b6100d6610157366004611d93565b610484565b6100d661016a366004611e65565b610708565b61018261017d366004611e06565b610f38565b6040516101409190611ebc565b6100d6611074565b6100d66101a5366004611e06565b611293565b6100d66101b8366004611e36565b611671565b336000908152600460205260409020545b604051908152602001610140565b6101ce6101ea366004611e06565b6119ee565b600260065414156102475760405162461bcd60e51b815260206004820152601f60248201527f5265656e7472616e637947756172643a207265656e7472616e742063616c6c0060448201526064015b60405180910390fd5b60026006818155600083815260036020818152604080842081516101408101835281548152600182015493810193909352958601546001600160a01b039081169183019190915285830154811660608301526004860154608083015260058601541660a08201529284015460c0840152600784015460e08401526008840154610100840152600984015491939161012084019160ff909116908111156102fd57634e487b7160e01b600052602160045260246000fd5b600381111561031c57634e487b7160e01b600052602160045260246000fd5b81525050905080606001516001600160a01b0316336001600160a01b0316146103875760405162461bcd60e51b815260206004820152601a60248201527f43616c6c657220446964204e6f74204c697374204c6567656e64000000000000604482015260640161023e565b600181610120015160038111156103ae57634e487b7160e01b600052602160045260246000fd5b146103fb5760405162461bcd60e51b815260206004820152601860248201527f4c6567656e64204d61746368696e67204e6f74204f70656e0000000000000000604482015260640161023e565b61040482611ad1565b604080820151606083015160808401519251632142170760e11b81523060048201526001600160a01b039182166024820152604481019390935216906342842e0e90606401600060405180830381600087803b15801561046357600080fd5b505af1158015610477573d6000803e3d6000fd5b5050600160065550505050565b600260065414156104d75760405162461bcd60e51b815260206004820152601f60248201527f5265656e7472616e637947756172643a207265656e7472616e742063616c6c00604482015260640161023e565b600260065560075460405163267a961160e21b81526004810184905284916001600160a01b0316906399ea58449060240160206040518083038186803b15801561052057600080fd5b505afa158015610534573d6000803e3d6000fd5b505050506040513d601f19601f820116820180604052508101906105589190611dc7565b6105ba5760405162461bcd60e51b815260206004820152602d60248201527f43616c6c6572204973204e6f74204f776e6572204f72204c6567656e6420486160448201526c1cc8139bdd0812185d18da1959609a1b606482015260840161023e565b600754604051630478c5ef60e41b8152600481018590526001600160a01b039091169063478c5ef09060240160206040518083038186803b1580156105fe57600080fd5b505afa158015610612573d6000803e3d6000fd5b505050506040513d601f19601f820116820180604052508101906106369190611dc7565b61063f57600080fd5b8161068c5760405162461bcd60e51b815260206004820152601260248201527f50726963652043616e204e6f7420426520300000000000000000000000000000604482015260640161023e565b6040516323b872dd60e01b8152336004820152306024820152604481018490526001600160a01b038216906323b872dd90606401600060405180830381600087803b1580156106da57600080fd5b505af11580156106ee573d6000803e3d6000fd5b505050506106fd848484611b35565b505060016006555050565b6002600654141561075b5760405162461bcd60e51b815260206004820152601f60248201527f5265656e7472616e637947756172643a207265656e7472616e742063616c6c00604482015260640161023e565b60026006818155600084815260036020818152604080842081516101408101835281548152600182015493810193909352958601546001600160a01b039081169183019190915285830154811660608301526004860154608083015260058601541660a08201529284015460c0840152600784015460e08401526008840154610100840152600984015491939161012084019160ff9091169081111561081157634e487b7160e01b600052602160045260246000fd5b600381111561083057634e487b7160e01b600052602160045260246000fd5b90525060408101519091506001826101200151600381111561086257634e487b7160e01b600052602160045260246000fd5b146108af5760405162461bcd60e51b815260206004820152601860248201527f4c6567656e64204d61746368696e67204e6f74204f70656e0000000000000000604482015260640161023e565b60608201516001600160a01b03163314156109325760405162461bcd60e51b815260206004820152602e60248201527f53656c6c6572204e6f7420417574686f72697a656420546f205075726368617360448201527f65204f776e204d61746368696e67000000000000000000000000000000000000606482015260840161023e565b60075460405163267a961160e21b8152600481018590526001600160a01b03909116906399ea58449060240160206040518083038186803b15801561097657600080fd5b505afa15801561098a573d6000803e3d6000fd5b505050506040513d601f19601f820116820180604052508101906109ae9190611dc7565b610a105760405162461bcd60e51b815260206004820152602d60248201527f43616c6c6572204973204e6f74204f776e6572204f72204c6567656e6420486160448201526c1cc8139bdd0812185d18da1959609a1b606482015260840161023e565b600754604051630478c5ef60e41b8152600481018590526001600160a01b039091169063478c5ef09060240160206040518083038186803b158015610a5457600080fd5b505afa158015610a68573d6000803e3d6000fd5b505050506040513d601f19601f82011682018060405250810190610a8c9190611dc7565b610a9557600080fd5b6040516323b872dd60e01b8152336004820152306024820152604481018490526001600160a01b038216906323b872dd90606401600060405180830381600087803b158015610ae357600080fd5b505af1158015610af7573d6000803e3d6000fd5b5050600754604051630264caef60e21b81526004810187905260009350600292506001600160a01b03909116906309932bbc9060240160206040518083038186803b158015610b4557600080fd5b505afa158015610b59573d6000803e3d6000fd5b505050506040513d601f19601f82011682018060405250810190610b7d9190611e1e565b6007546080860151604051630264caef60e21b81526001600160a01b03909216916309932bbc91610bb49160040190815260200190565b60206040518083038186803b158015610bcc57600080fd5b505afa158015610be0573d6000803e3d6000fd5b505050506040513d601f19601f82011682018060405250810190610c049190611e1e565b610c0e9190611f69565b610c189190611f8d565b9050600081846101000151610c2d9190611f69565b9050600760009054906101000a90046001600160a01b03166001600160a01b031663030032056040518163ffffffff1660e01b815260040160206040518083038186803b158015610c7d57600080fd5b505afa158015610c91573d6000803e3d6000fd5b505050506040513d601f19601f82011682018060405250810190610cb59190611dea565b6040516323b872dd60e01b8152336004820152306024820152604481018390526001600160a01b0391909116906323b872dd90606401602060405180830381600087803b158015610d0557600080fd5b505af1158015610d19573d6000803e3d6000fd5b505050506040513d601f19601f82011682018060405250810190610d3d9190611dc7565b5060075460408051631944f20d60e01b815290516000926001600160a01b031691631944f20d916004808301926020929190829003018186803b158015610d8357600080fd5b505afa158015610d97573d6000803e3d6000fd5b505050506040513d601f19601f82011682018060405250810190610dbb9190611dea565b60808601516040517f1b4c46fb0000000000000000000000000000000000000000000000000000000081523060048201526024810191909152604481018890526001600160a01b039190911690631b4c46fb90606401602060405180830381600087803b158015610e2b57600080fd5b505af1158015610e3f573d6000803e3d6000fd5b505050506040513d601f19601f82011682018060405250810190610e639190611e1e565b9050610e728733888486611c06565b604051632142170760e11b8152306004820152336024820152604481018790526001600160a01b038516906342842e0e90606401600060405180830381600087803b158015610ec057600080fd5b505af1158015610ed4573d6000803e3d6000fd5b505050508460c001518560800151887f16251362edd8a93df20396d15d45d3d5cf509f3e3a252a69ddfcd1167ef4187a84896101000151604051610f22929190918252602082015260400190565b60405180910390a4505060016006555050505050565b610f40611d07565b81610f4a60005490565b811015610f995760405162461bcd60e51b815260206004820152601560248201527f4d61746368696e67204944204e6f742056616c69640000000000000000000000604482015260640161023e565b6000838152600360208181526040928390208351610140810185528154815260018201549281019290925260028101546001600160a01b0390811694830194909452808301548416606083015260048101546080830152600581015490931660a0820152600683015460c0820152600783015460e08201526008830154610100820152600983015490929161012084019160ff169081111561104b57634e487b7160e01b600052602160045260246000fd5b600381111561106a57634e487b7160e01b600052602160045260246000fd5b9052509392505050565b600260065414156110c75760405162461bcd60e51b815260206004820152601f60248201527f5265656e7472616e637947756172643a207265656e7472616e742063616c6c00604482015260640161023e565b600260065533600090815260046020526040902054806111295760405162461bcd60e51b815260206004820152601d60248201527f41646472657373204973204f7765642030204c474e4420546f6b656e73000000604482015260640161023e565b3360009081526004602081815260408084209390935560075483517f0300320500000000000000000000000000000000000000000000000000000000815293516001600160a01b0390911693630300320593818101939291829003018186803b15801561119557600080fd5b505afa1580156111a9573d6000803e3d6000fd5b505050506040513d601f19601f820116820180604052508101906111cd9190611dea565b6040516323b872dd60e01b8152306004820152336024820152604481018390526001600160a01b0391909116906323b872dd90606401602060405180830381600087803b15801561121d57600080fd5b505af1158015611231573d6000803e3d6000fd5b505050506040513d601f19601f820116820180604052508101906112559190611dc7565b5060405181815233907f896e034966eaaf1adc54acc0f257056febbd300c9e47182cf761982cf1f5e4309060200160405180910390a2506001600655565b600260065414156112e65760405162461bcd60e51b815260206004820152601f60248201527f5265656e7472616e637947756172643a207265656e7472616e742063616c6c00604482015260640161023e565b60026006818155600083815260036020818152604080842081516101408101835281548152600182015493810193909352958601546001600160a01b039081169183019190915285830154811660608301526004860154608083015260058601541660a08201529284015460c0840152600784015460e08401526008840154610100840152600984015491939161012084019160ff9091169081111561139c57634e487b7160e01b600052602160045260246000fd5b60038111156113bb57634e487b7160e01b600052602160045260246000fd5b8152505090508060a001516001600160a01b0316336001600160a01b0316146114265760405162461bcd60e51b815260206004820181905260248201527f43616c6c657220446964204e6f74205075726368617365204d61746368696e67604482015260640161023e565b6002816101200151600381111561144d57634e487b7160e01b600052602160045260246000fd5b1461149a5760405162461bcd60e51b815260206004820152601a60248201527f4c6567656e64204d61746368696e67204e6f7420436c6f736564000000000000604482015260640161023e565b600082815260056020908152604080832060a08501516001600160a01b031684529091529020548061150e5760405162461bcd60e51b815260206004820152601360248201527f45676720416c726561647920436c61696d656400000000000000000000000000604482015260640161023e565b600083815260056020908152604080832060a08601516001600160a01b039081168552908352818420939093556007548151631944f20d60e01b81529151931692631944f20d92600480840193919291829003018186803b15801561157257600080fd5b505afa158015611586573d6000803e3d6000fd5b505050506040513d601f19601f820116820180604052508101906115aa9190611dea565b60a0830151604051632142170760e11b81523060048201526001600160a01b039182166024820152604481018490529116906342842e0e90606401600060405180830381600087803b1580156115ff57600080fd5b505af1158015611613573d6000803e3d6000fd5b505050508160a001516001600160a01b03167fce9c280f977ed75885e90ec68f12c7aec51eb9c386cb1d07016a03fc4f13180d848360405161165f929190918252602082015260400190565b60405180910390a25050600160065550565b600260065414156116c45760405162461bcd60e51b815260206004820152601f60248201527f5265656e7472616e637947756172643a207265656e7472616e742063616c6c00604482015260640161023e565b60026006818155600084815260036020818152604080842081516101408101835281548152600182015493810193909352958601546001600160a01b039081169183019190915285830154811660608301526004860154608083015260058601541660a08201529284015460c0840152600784015460e08401526008840154610100840152600984015491939161012084019160ff9091169081111561177a57634e487b7160e01b600052602160045260246000fd5b600381111561179957634e487b7160e01b600052602160045260246000fd5b81525050905080606001516001600160a01b0316336001600160a01b0316146118045760405162461bcd60e51b815260206004820152601a60248201527f43616c6c657220446964204e6f74204c697374204c6567656e64000000000000604482015260640161023e565b6002816101200151600381111561182b57634e487b7160e01b600052602160045260246000fd5b146118785760405162461bcd60e51b815260206004820152601a60248201527f4c6567656e64204d61746368696e67204e6f7420436c6f736564000000000000604482015260640161023e565b811561192b576007546080820151604051630478c5ef60e41b81526001600160a01b039092169163478c5ef0916118b59160040190815260200190565b60206040518083038186803b1580156118cd57600080fd5b505afa1580156118e1573d6000803e3d6000fd5b505050506040513d601f19601f820116820180604052508101906119059190611dc7565b61190e57600080fd5b61192681604001518260800151836101000151611b35565b6119a3565b604080820151606083015160808401519251632142170760e11b81523060048201526001600160a01b039182166024820152604481019390935216906342842e0e90606401600060405180830381600087803b15801561198a57600080fd5b505af115801561199e573d6000803e3d6000fd5b505050505b8060800151837f4ecb8f58050aa11f1a1531513aa66b708b2a7bd62c37e0195be72300da48677c846040516119dc911515815260200190565b60405180910390a35050600160065550565b6000816119fa60005490565b811015611a495760405162461bcd60e51b815260206004820152601560248201527f4d61746368696e67204944204e6f742056616c69640000000000000000000000604482015260640161023e565b6000838152600360205260409020600501546001600160a01b03163314611ab25760405162461bcd60e51b815260206004820152601f60248201527f43616c6c657220446964204e6f74205075726368617365204c697374696e6700604482015260640161023e565b5050600090815260056020908152604080832033845290915290205490565b6000818152600360208190526040909120600901805460ff19169091179055600280546001019055807f19ca3c8e697c2730c0ea245a0d6b6fbf54dd90f12bed2a09690b30a6a0b17ff96003604051611b2a9190611ea8565b60405180910390a250565b611b43600080546001019055565b6000805480825260036020819052604092839020828155426001808301919091556002820180546001600160a01b038a1673ffffffffffffffffffffffffffffffffffffffff19918216179091559282018054841633179055600482018790556005820180549093169092556008810185905560098101805460ff191683179055925191929183917f19ca3c8e697c2730c0ea245a0d6b6fbf54dd90f12bed2a09690b30a6a0b17ff991611bf79190611ea8565b60405180910390a25050505050565b600085815260036020526040902060058101805473ffffffffffffffffffffffffffffffffffffffff19166001600160a01b03871617905560068101849055600781018390556009810180546002919060ff1916600183021790555060038101546001600160a01b031660009081526004602052604081208054849290611c8e908490611f69565b909155505060008681526005602090815260408083206001600160a01b03891684529091529020839055611cc6600180546001019055565b857f19ca3c8e697c2730c0ea245a0d6b6fbf54dd90f12bed2a09690b30a6a0b17ff96002604051611cf79190611ea8565b60405180910390a2505050505050565b604051806101400160405280600081526020016000815260200160006001600160a01b0316815260200160006001600160a01b031681526020016000815260200160006001600160a01b0316815260200160008152602001600081526020016000815260200160006003811115611d8e57634e487b7160e01b600052602160045260246000fd5b905290565b600080600060608486031215611da7578283fd5b8335611db281611fad565b95602085013595506040909401359392505050565b600060208284031215611dd8578081fd5b8151611de381611fc5565b9392505050565b600060208284031215611dfb578081fd5b8151611de381611fad565b600060208284031215611e17578081fd5b5035919050565b600060208284031215611e2f578081fd5b5051919050565b60008060408385031215611e48578182fd5b823591506020830135611e5a81611fc5565b809150509250929050565b60008060408385031215611e77578182fd5b50508035926020909101359150565b60048110611ea457634e487b7160e01b600052602160045260246000fd5b9052565b60208101611eb68284611e86565b92915050565b60006101408201905082518252602083015160208301526040830151611eed60408401826001600160a01b03169052565b506060830151611f0860608401826001600160a01b03169052565b506080830151608083015260a0830151611f2d60a08401826001600160a01b03169052565b5060c083015160c083015260e083015160e083015261010080840151818401525061012080840151611f6182850182611e86565b505092915050565b60008219821115611f8857634e487b7160e01b81526011600452602481fd5b500190565b600082611fa857634e487b7160e01b81526012600452602481fd5b500490565b6001600160a01b0381168114611fc257600080fd5b50565b8015158114611fc257600080fdfea26469706673582212206d3e4f3764d88278a9ff7797c0ca256dcb29f0a7d8072a20dcb16db7a6f0115064736f6c6343000804003350cfca4094c55bf42de4c6bab117b8cffa7bc564d44ed30ce3669a40f63c829b",
  "linkReferences": {},
  "deployedLinkReferences": {}
}